{"contracts/MultiSig.sol":{"MultiSig":{"abi":[{"inputs":[{"internalType":"address[]","name":"_owners","type":"address[]"},{"internalType":"uint256","name":"_noOfconfirmations","type":"uint256"}],"stateMutability":"nonpayable","type":"constructor"},{"anonymous":false,"inputs":[{"indexed":true,"internalType":"address","name":"from","type":"address"},{"indexed":true,"internalType":"address","name":"to","type":"address"},{"indexed":false,"internalType":"uint256","name":"value","type":"uint256"}],"name":"Transfer","type":"event"},{"inputs":[{"internalType":"address","name":"destination","type":"address"},{"internalType":"uint256","name":"value","type":"uint256"}],"name":"addTransaction","outputs":[{"internalType":"uint256","name":"trxId","type":"uint256"}],"stateMutability":"nonpayable","type":"function"},{"inputs":[{"internalType":"uint256","name":"trxId","type":"uint256"}],"name":"confirmTransaction","outputs":[{"internalType":"uint256","name":"","type":"uint256"}],"stateMutability":"nonpayable","type":"function"},{"inputs":[{"internalType":"uint256","name":"","type":"uint256"},{"internalType":"address","name":"","type":"address"}],"name":"confirmations","outputs":[{"internalType":"bool","name":"","type":"bool"}],"stateMutability":"view","type":"function"},{"inputs":[{"internalType":"uint256","name":"trxId","type":"uint256"}],"name":"getConfirmationsCount","outputs":[{"internalType":"uint256","name":"","type":"uint256"}],"stateMutability":"view","type":"function"},{"inputs":[{"internalType":"uint256","name":"trxId","type":"uint256"}],"name":"isConfirmed","outputs":[{"internalType":"bool","name":"_isConfirmed","type":"bool"}],"stateMutability":"view","type":"function"},{"inputs":[{"internalType":"uint256","name":"","type":"uint256"},{"internalType":"address","name":"","type":"address"}],"name":"isOwnerSignedTrx","outputs":[{"internalType":"bool","name":"","type":"bool"}],"stateMutability":"view","type":"function"},{"inputs":[],"name":"noOfConfirmations","outputs":[{"internalType":"uint256","name":"","type":"uint256"}],"stateMutability":"view","type":"function"},{"inputs":[{"internalType":"uint256","name":"","type":"uint256"}],"name":"owners","outputs":[{"internalType":"address","name":"","type":"address"}],"stateMutability":"view","type":"function"},{"inputs":[{"internalType":"address","name":"destination","type":"address"},{"internalType":"uint256","name":"value","type":"uint256"}],"name":"submitTransaction","outputs":[{"internalType":"uint256","name":"trxId","type":"uint256"}],"stateMutability":"nonpayable","type":"function"},{"inputs":[],"name":"transactionCount","outputs":[{"internalType":"uint256","name":"","type":"uint256"}],"stateMutability":"view","type":"function"},{"inputs":[{"internalType":"uint256","name":"","type":"uint256"}],"name":"transactions","outputs":[{"internalType":"address","name":"destination","type":"address"},{"internalType":"uint256","name":"value","type":"uint256"},{"internalType":"bool","name":"executed","type":"bool"}],"stateMutability":"view","type":"function"},{"stateMutability":"payable","type":"receive"}],"evm":{"bytecode":{"linkReferences":{},"object":"608060405260006002553480156200001657600080fd5b5060405162001a2e38038062001a2e83398181016040528101906200003c91906200040f565b600082511162000083576040517f08c379a00000000000000000000000000000000000000000000000000000000081526004016200007a90620004fc565b60405180910390fd5b60018111620000c9576040517f08c379a0000000000000000000000000000000000000000000000000000000008152600401620000c09062000594565b60405180910390fd5b815181111562000110576040517f08c379a0000000000000000000000000000000000000000000000000000000008152600401620001079062000652565b60405180910390fd5b81600090805190602001906200012892919062000138565b5080600181905550505062000674565b828054828255906000526020600020908101928215620001b4579160200282015b82811115620001b35782518260006101000a81548173ffffffffffffffffffffffffffffffffffffffff021916908373ffffffffffffffffffffffffffffffffffffffff1602179055509160200191906001019062000159565b5b509050620001c39190620001c7565b5090565b5b80821115620001e2576000816000905550600101620001c8565b5090565b6000604051905090565b600080fd5b600080fd5b600080fd5b6000601f19601f8301169050919050565b7f4e487b7100000000000000000000000000000000000000000000000000000000600052604160045260246000fd5b6200024a82620001ff565b810181811067ffffffffffffffff821117156200026c576200026b62000210565b5b80604052505050565b600062000281620001e6565b90506200028f82826200023f565b919050565b600067ffffffffffffffff821115620002b257620002b162000210565b5b602082029050602081019050919050565b600080fd5b600073ffffffffffffffffffffffffffffffffffffffff82169050919050565b6000620002f582620002c8565b9050919050565b6200030781620002e8565b81146200031357600080fd5b50565b6000815190506200032781620002fc565b92915050565b6000620003446200033e8462000294565b62000275565b905080838252602082019050602084028301858111156200036a5762000369620002c3565b5b835b8181101562000397578062000382888262000316565b8452602084019350506020810190506200036c565b5050509392505050565b600082601f830112620003b957620003b8620001fa565b5b8151620003cb8482602086016200032d565b91505092915050565b6000819050919050565b620003e981620003d4565b8114620003f557600080fd5b50565b6000815190506200040981620003de565b92915050565b60008060408385031215620004295762000428620001f0565b5b600083015167ffffffffffffffff8111156200044a5762000449620001f5565b5b6200045885828601620003a1565b92505060206200046b85828601620003f8565b9150509250929050565b600082825260208201905092915050565b7f4174206c65617374206f6e65206f776e65722068617320746f2062652073706560008201527f6369666965642100000000000000000000000000000000000000000000000000602082015250565b6000620004e460278362000475565b9150620004f18262000486565b604082019050919050565b600060208201905081810360008301526200051781620004d5565b9050919050565b7f4e6f2e206f66207369676e74757265732072657175697265642073686f756c6460008201527f206265206174206c656173742032000000000000000000000000000000000000602082015250565b60006200057c602e8362000475565b915062000589826200051e565b604082019050919050565b60006020820190508181036000830152620005af816200056d565b9050919050565b7f4e6f2e206f66207369676e6174757265732072657175697265642073686f756c60008201527f64206e6f74206265206d6f7265207468616e20746865206e6f2e206f66204f7760208201527f6e65727321000000000000000000000000000000000000000000000000000000604082015250565b60006200063a60458362000475565b91506200064782620005b6565b606082019050919050565b600060208201905081810360008301526200066d816200062b565b9050919050565b6113aa80620006846000396000f3fe6080604052600436106100a05760003560e01c806384a372731161006457806384a37273146102305780639ace38c21461026d578063b77bf600146102ac578063bce800e5146102d7578063c01a8c8414610314578063c35e5e9b146103515761010c565b8063025e7c27146101115780631d43b6531461014e5780633411c81c1461018b578063784547a7146101c85780637baef2f5146102055761010c565b3661010c573073ffffffffffffffffffffffffffffffffffffffff163373ffffffffffffffffffffffffffffffffffffffff167fddf252ad1be2c89b69c2b068fc378daa952ba7f163c4a11628f55a4df523b3ef346040516101029190610c65565b60405180910390a3005b600080fd5b34801561011d57600080fd5b5061013860048036038101906101339190610cb1565b61038e565b6040516101459190610d1f565b60405180910390f35b34801561015a57600080fd5b5061017560048036038101906101709190610d66565b6103cd565b6040516101829190610c65565b60405180910390f35b34801561019757600080fd5b506101b260048036038101906101ad9190610da6565b6104c5565b6040516101bf9190610e01565b60405180910390f35b3480156101d457600080fd5b506101ef60048036038101906101ea9190610cb1565b6104f4565b6040516101fc9190610e01565b60405180910390f35b34801561021157600080fd5b5061021a610511565b6040516102279190610c65565b60405180910390f35b34801561023c57600080fd5b5061025760048036038101906102529190610d66565b610517565b6040516102649190610c65565b60405180910390f35b34801561027957600080fd5b50610294600480360381019061028f9190610cb1565b6105f7565b6040516102a393929190610e1c565b60405180910390f35b3480156102b857600080fd5b506102c161064e565b6040516102ce9190610c65565b60405180910390f35b3480156102e357600080fd5b506102fe60048036038101906102f99190610cb1565b610654565b60405161030b9190610c65565b60405180910390f35b34801561032057600080fd5b5061033b60048036038101906103369190610cb1565b610671565b6040516103489190610c65565b60405180910390f35b34801561035d57600080fd5b5061037860048036038101906103739190610da6565b610908565b6040516103859190610e01565b60405180910390f35b6000818154811061039e57600080fd5b906000526020600020016000915054906101000a900473ffffffffffffffffffffffffffffffffffffffff1681565b60008060005b60008054905081101561046957600081815481106103f4576103f3610e53565b5b9060005260206000200160009054906101000a900473ffffffffffffffffffffffffffffffffffffffff1673ffffffffffffffffffffffffffffffffffffffff163373ffffffffffffffffffffffffffffffffffffffff160361045657600191505b808061046190610eb1565b9150506103d3565b50806104aa576040517f08c379a00000000000000000000000000000000000000000000000000000000081526004016104a190610f56565b60405180910390fd5b6104bc6104b78585610517565b610671565b91505092915050565b60036020528160005260406000206020528060005260406000206000915091509054906101000a900460ff1681565b600060015461050283610654565b1061050c57600190505b919050565b60015481565b6000600254905060405180606001604052808473ffffffffffffffffffffffffffffffffffffffff168152602001838152602001600015158152506004600083815260200190815260200160002060008201518160000160006101000a81548173ffffffffffffffffffffffffffffffffffffffff021916908373ffffffffffffffffffffffffffffffffffffffff1602179055506020820151816001015560408201518160020160006101000a81548160ff021916908315150217905550905050600260008154809291906105ec90610eb1565b919050555092915050565b60046020528060005260406000206000915090508060000160009054906101000a900473ffffffffffffffffffffffffffffffffffffffff16908060010154908060020160009054906101000a900460ff16905083565b60025481565b600060056000838152602001908152602001600020549050919050565b60008060005b60008054905081101561070d576000818154811061069857610697610e53565b5b9060005260206000200160009054906101000a900473ffffffffffffffffffffffffffffffffffffffff1673ffffffffffffffffffffffffffffffffffffffff163373ffffffffffffffffffffffffffffffffffffffff16036106fa57600191505b808061070590610eb1565b915050610677565b508061074e576040517f08c379a000000000000000000000000000000000000000000000000000000000815260040161074590610f56565b60405180910390fd5b6006600084815260200190815260200160002060003373ffffffffffffffffffffffffffffffffffffffff1673ffffffffffffffffffffffffffffffffffffffff16815260200190815260200160002060009054906101000a900460ff16156107ec576040517f08c379a00000000000000000000000000000000000000000000000000000000081526004016107e390610fe8565b60405180910390fd5b60016006600085815260200190815260200160002060003373ffffffffffffffffffffffffffffffffffffffff1673ffffffffffffffffffffffffffffffffffffffff16815260200190815260200160002060006101000a81548160ff02191690831515021790555060016003600085815260200190815260200160002060003373ffffffffffffffffffffffffffffffffffffffff1673ffffffffffffffffffffffffffffffffffffffff16815260200190815260200160002060006101000a81548160ff0219169083151502179055506005600084815260200190815260200160002060008154809291906108e290610eb1565b91905055506108f0836104f4565b156108ff576108fe83610937565b5b82915050919050565b60066020528160005260406000206020528060005260406000206000915091509054906101000a900460ff1681565b610940816104f4565b61097f576040517f08c379a00000000000000000000000000000000000000000000000000000000081526004016109769061107a565b60405180910390fd5b60006004600083815260200190815260200160002060000160009054906101000a900473ffffffffffffffffffffffffffffffffffffffff169050600073ffffffffffffffffffffffffffffffffffffffff168173ffffffffffffffffffffffffffffffffffffffff1603610a29576040517f08c379a0000000000000000000000000000000000000000000000000000000008152600401610a209061110c565b60405180910390fd5b6004600083815260200190815260200160002060010154471015610a82576040517f08c379a0000000000000000000000000000000000000000000000000000000008152600401610a79906111c4565b60405180910390fd5b6000600460008481526020019081526020016000206001015403610adb576040517f08c379a0000000000000000000000000000000000000000000000000000000008152600401610ad290611256565b60405180910390fd5b60008173ffffffffffffffffffffffffffffffffffffffff166004600085815260200190815260200160002060010154604051610b17906112a7565b60006040518083038185875af1925050503d8060008114610b54576040519150601f19603f3d011682016040523d82523d6000602084013e610b59565b606091505b5050905080610b9d576040517f08c379a0000000000000000000000000000000000000000000000000000000008152600401610b9490611354565b60405180910390fd5b60016004600085815260200190815260200160002060020160006101000a81548160ff0219169083151502179055508173ffffffffffffffffffffffffffffffffffffffff163073ffffffffffffffffffffffffffffffffffffffff167fddf252ad1be2c89b69c2b068fc378daa952ba7f163c4a11628f55a4df523b3ef6004600087815260200190815260200160002060010154604051610c3f9190610c65565b60405180910390a3505050565b6000819050919050565b610c5f81610c4c565b82525050565b6000602082019050610c7a6000830184610c56565b92915050565b600080fd5b610c8e81610c4c565b8114610c9957600080fd5b50565b600081359050610cab81610c85565b92915050565b600060208284031215610cc757610cc6610c80565b5b6000610cd584828501610c9c565b91505092915050565b600073ffffffffffffffffffffffffffffffffffffffff82169050919050565b6000610d0982610cde565b9050919050565b610d1981610cfe565b82525050565b6000602082019050610d346000830184610d10565b92915050565b610d4381610cfe565b8114610d4e57600080fd5b50565b600081359050610d6081610d3a565b92915050565b60008060408385031215610d7d57610d7c610c80565b5b6000610d8b85828601610d51565b9250506020610d9c85828601610c9c565b9150509250929050565b60008060408385031215610dbd57610dbc610c80565b5b6000610dcb85828601610c9c565b9250506020610ddc85828601610d51565b9150509250929050565b60008115159050919050565b610dfb81610de6565b82525050565b6000602082019050610e166000830184610df2565b92915050565b6000606082019050610e316000830186610d10565b610e3e6020830185610c56565b610e4b6040830184610df2565b949350505050565b7f4e487b7100000000000000000000000000000000000000000000000000000000600052603260045260246000fd5b7f4e487b7100000000000000000000000000000000000000000000000000000000600052601160045260246000fd5b6000610ebc82610c4c565b91507fffffffffffffffffffffffffffffffffffffffffffffffffffffffffffffffff8203610eee57610eed610e82565b5b600182019050919050565b600082825260208201905092915050565b7f596f7520617265206e6f7420616e20617574686f7269736564204f776e657221600082015250565b6000610f40602083610ef9565b9150610f4b82610f0a565b602082019050919050565b60006020820190508181036000830152610f6f81610f33565b9050919050565b7f596f7520617265206e6f7420616c6c6f77656420746f20646f75626c6520636f60008201527f6e6669726d207468652073616d65207472616e73616374696f6e210000000000602082015250565b6000610fd2603b83610ef9565b9150610fdd82610f76565b604082019050919050565b6000602082019050818103600083015261100181610fc5565b9050919050565b7f5472616e73616374696f6e206973206e6f7420636f6e6669726d65642079657460008201527f2100000000000000000000000000000000000000000000000000000000000000602082015250565b6000611064602183610ef9565b915061106f82611008565b604082019050919050565b6000602082019050818103600083015261109381611057565b9050919050565b7f64657374696e6174696f6e20616464726573732068617320746f206265206e6f60008201527f6e2d7a65726f2100000000000000000000000000000000000000000000000000602082015250565b60006110f6602783610ef9565b91506111018261109a565b604082019050919050565b60006020820190508181036000830152611125816110e9565b9050919050565b7f496e73756666696369656e742066756e647320696e207468652077616c6c657460008201527f20746f207472616e736665722074686520726571756972656420616d6f756e7460208201527f2100000000000000000000000000000000000000000000000000000000000000604082015250565b60006111ae604183610ef9565b91506111b98261112c565b606082019050919050565b600060208201905081810360008301526111dd816111a1565b9050919050565b7f616d6f756e7420746f207472616e736665722068617320746f206265206e6f6e60008201527f2d7a65726f210000000000000000000000000000000000000000000000000000602082015250565b6000611240602683610ef9565b915061124b826111e4565b604082019050919050565b6000602082019050818103600083015261126f81611233565b9050919050565b600081905092915050565b50565b6000611291600083611276565b915061129c82611281565b600082019050919050565b60006112b282611284565b9150819050919050565b7f4661696c656420746f2065786563757465207472616e73616374696f6e20647560008201527f6520746f20696e76616c6964207472616e736665722064657461696c732f696e60208201527f73756666696369656e742066756e647320696e207468652077616c6c65742100604082015250565b600061133e605f83610ef9565b9150611349826112bc565b606082019050919050565b6000602082019050818103600083015261136d81611331565b905091905056fea2646970667358221220dc7acdb6d86ae33e2b0e70ce9fedf90eeb4d9d918043c5755009acefaa1588bc64736f6c63430008110033","opcodes":"PUSH1 0x80 PUSH1 0x40 MSTORE PUSH1 0x0 PUSH1 0x2 SSTORE CALLVALUE DUP1 ISZERO PUSH3 0x16 JUMPI PUSH1 0x0 DUP1 REVERT JUMPDEST POP PUSH1 0x40 MLOAD PUSH3 0x1A2E CODESIZE SUB DUP1 PUSH3 0x1A2E DUP4 CODECOPY DUP2 DUP2 ADD PUSH1 0x40 MSTORE DUP2 ADD SWAP1 PUSH3 0x3C SWAP2 SWAP1 PUSH3 0x40F JUMP JUMPDEST PUSH1 0x0 DUP3 MLOAD GT PUSH3 0x83 JUMPI PUSH1 0x40 MLOAD PUSH32 0x8C379A000000000000000000000000000000000000000000000000000000000 DUP2 MSTORE PUSH1 0x4 ADD PUSH3 0x7A SWAP1 PUSH3 0x4FC JUMP JUMPDEST PUSH1 0x40 MLOAD DUP1 SWAP2 SUB SWAP1 REVERT JUMPDEST PUSH1 0x1 DUP2 GT PUSH3 0xC9 JUMPI PUSH1 0x40 MLOAD PUSH32 0x8C379A000000000000000000000000000000000000000000000000000000000 DUP2 MSTORE PUSH1 0x4 ADD PUSH3 0xC0 SWAP1 PUSH3 0x594 JUMP JUMPDEST PUSH1 0x40 MLOAD DUP1 SWAP2 SUB SWAP1 REVERT JUMPDEST DUP2 MLOAD DUP2 GT ISZERO PUSH3 0x110 JUMPI PUSH1 0x40 MLOAD PUSH32 0x8C379A000000000000000000000000000000000000000000000000000000000 DUP2 MSTORE PUSH1 0x4 ADD PUSH3 0x107 SWAP1 PUSH3 0x652 JUMP JUMPDEST PUSH1 0x40 MLOAD DUP1 SWAP2 SUB SWAP1 REVERT JUMPDEST DUP2 PUSH1 0x0 SWAP1 DUP1 MLOAD SWAP1 PUSH1 0x20 ADD SWAP1 PUSH3 0x128 SWAP3 SWAP2 SWAP1 PUSH3 0x138 JUMP JUMPDEST POP DUP1 PUSH1 0x1 DUP2 SWAP1 SSTORE POP POP POP PUSH3 0x674 JUMP JUMPDEST DUP3 DUP1 SLOAD DUP3 DUP3 SSTORE SWAP1 PUSH1 0x0 MSTORE PUSH1 0x20 PUSH1 0x0 KECCAK256 SWAP1 DUP2 ADD SWAP3 DUP3 ISZERO PUSH3 0x1B4 JUMPI SWAP2 PUSH1 0x20 MUL DUP3 ADD JUMPDEST DUP3 DUP2 GT ISZERO PUSH3 0x1B3 JUMPI DUP3 MLOAD DUP3 PUSH1 0x0 PUSH2 0x100 EXP DUP2 SLOAD DUP2 PUSH20 0xFFFFFFFFFFFFFFFFFFFFFFFFFFFFFFFFFFFFFFFF MUL NOT AND SWAP1 DUP4 PUSH20 0xFFFFFFFFFFFFFFFFFFFFFFFFFFFFFFFFFFFFFFFF AND MUL OR SWAP1 SSTORE POP SWAP2 PUSH1 0x20 ADD SWAP2 SWAP1 PUSH1 0x1 ADD SWAP1 PUSH3 0x159 JUMP JUMPDEST JUMPDEST POP SWAP1 POP PUSH3 0x1C3 SWAP2 SWAP1 PUSH3 0x1C7 JUMP JUMPDEST POP SWAP1 JUMP JUMPDEST JUMPDEST DUP1 DUP3 GT ISZERO PUSH3 0x1E2 JUMPI PUSH1 0x0 DUP2 PUSH1 0x0 SWAP1 SSTORE POP PUSH1 0x1 ADD PUSH3 0x1C8 JUMP JUMPDEST POP SWAP1 JUMP JUMPDEST PUSH1 0x0 PUSH1 0x40 MLOAD SWAP1 POP SWAP1 JUMP JUMPDEST PUSH1 0x0 DUP1 REVERT JUMPDEST PUSH1 0x0 DUP1 REVERT JUMPDEST PUSH1 0x0 DUP1 REVERT JUMPDEST PUSH1 0x0 PUSH1 0x1F NOT PUSH1 0x1F DUP4 ADD AND SWAP1 POP SWAP2 SWAP1 POP JUMP JUMPDEST PUSH32 0x4E487B7100000000000000000000000000000000000000000000000000000000 PUSH1 0x0 MSTORE PUSH1 0x41 PUSH1 0x4 MSTORE PUSH1 0x24 PUSH1 0x0 REVERT JUMPDEST PUSH3 0x24A DUP3 PUSH3 0x1FF JUMP JUMPDEST DUP2 ADD DUP2 DUP2 LT PUSH8 0xFFFFFFFFFFFFFFFF DUP3 GT OR ISZERO PUSH3 0x26C JUMPI PUSH3 0x26B PUSH3 0x210 JUMP JUMPDEST JUMPDEST DUP1 PUSH1 0x40 MSTORE POP POP POP JUMP JUMPDEST PUSH1 0x0 PUSH3 0x281 PUSH3 0x1E6 JUMP JUMPDEST SWAP1 POP PUSH3 0x28F DUP3 DUP3 PUSH3 0x23F JUMP JUMPDEST SWAP2 SWAP1 POP JUMP JUMPDEST PUSH1 0x0 PUSH8 0xFFFFFFFFFFFFFFFF DUP3 GT ISZERO PUSH3 0x2B2 JUMPI PUSH3 0x2B1 PUSH3 0x210 JUMP JUMPDEST JUMPDEST PUSH1 0x20 DUP3 MUL SWAP1 POP PUSH1 0x20 DUP2 ADD SWAP1 POP SWAP2 SWAP1 POP JUMP JUMPDEST PUSH1 0x0 DUP1 REVERT JUMPDEST PUSH1 0x0 PUSH20 0xFFFFFFFFFFFFFFFFFFFFFFFFFFFFFFFFFFFFFFFF DUP3 AND SWAP1 POP SWAP2 SWAP1 POP JUMP JUMPDEST PUSH1 0x0 PUSH3 0x2F5 DUP3 PUSH3 0x2C8 JUMP JUMPDEST SWAP1 POP SWAP2 SWAP1 POP JUMP JUMPDEST PUSH3 0x307 DUP2 PUSH3 0x2E8 JUMP JUMPDEST DUP2 EQ PUSH3 0x313 JUMPI PUSH1 0x0 DUP1 REVERT JUMPDEST POP JUMP JUMPDEST PUSH1 0x0 DUP2 MLOAD SWAP1 POP PUSH3 0x327 DUP2 PUSH3 0x2FC JUMP JUMPDEST SWAP3 SWAP2 POP POP JUMP JUMPDEST PUSH1 0x0 PUSH3 0x344 PUSH3 0x33E DUP5 PUSH3 0x294 JUMP JUMPDEST PUSH3 0x275 JUMP JUMPDEST SWAP1 POP DUP1 DUP4 DUP3 MSTORE PUSH1 0x20 DUP3 ADD SWAP1 POP PUSH1 0x20 DUP5 MUL DUP4 ADD DUP6 DUP2 GT ISZERO PUSH3 0x36A JUMPI PUSH3 0x369 PUSH3 0x2C3 JUMP JUMPDEST JUMPDEST DUP4 JUMPDEST DUP2 DUP2 LT ISZERO PUSH3 0x397 JUMPI DUP1 PUSH3 0x382 DUP9 DUP3 PUSH3 0x316 JUMP JUMPDEST DUP5 MSTORE PUSH1 0x20 DUP5 ADD SWAP4 POP POP PUSH1 0x20 DUP2 ADD SWAP1 POP PUSH3 0x36C JUMP JUMPDEST POP POP POP SWAP4 SWAP3 POP POP POP JUMP JUMPDEST PUSH1 0x0 DUP3 PUSH1 0x1F DUP4 ADD SLT PUSH3 0x3B9 JUMPI PUSH3 0x3B8 PUSH3 0x1FA JUMP JUMPDEST JUMPDEST DUP2 MLOAD PUSH3 0x3CB DUP5 DUP3 PUSH1 0x20 DUP7 ADD PUSH3 0x32D JUMP JUMPDEST SWAP2 POP POP SWAP3 SWAP2 POP POP JUMP JUMPDEST PUSH1 0x0 DUP2 SWAP1 POP SWAP2 SWAP1 POP JUMP JUMPDEST PUSH3 0x3E9 DUP2 PUSH3 0x3D4 JUMP JUMPDEST DUP2 EQ PUSH3 0x3F5 JUMPI PUSH1 0x0 DUP1 REVERT JUMPDEST POP JUMP JUMPDEST PUSH1 0x0 DUP2 MLOAD SWAP1 POP PUSH3 0x409 DUP2 PUSH3 0x3DE JUMP JUMPDEST SWAP3 SWAP2 POP POP JUMP JUMPDEST PUSH1 0x0 DUP1 PUSH1 0x40 DUP4 DUP6 SUB SLT ISZERO PUSH3 0x429 JUMPI PUSH3 0x428 PUSH3 0x1F0 JUMP JUMPDEST JUMPDEST PUSH1 0x0 DUP4 ADD MLOAD PUSH8 0xFFFFFFFFFFFFFFFF DUP2 GT ISZERO PUSH3 0x44A JUMPI PUSH3 0x449 PUSH3 0x1F5 JUMP JUMPDEST JUMPDEST PUSH3 0x458 DUP6 DUP3 DUP7 ADD PUSH3 0x3A1 JUMP JUMPDEST SWAP3 POP POP PUSH1 0x20 PUSH3 0x46B DUP6 DUP3 DUP7 ADD PUSH3 0x3F8 JUMP JUMPDEST SWAP2 POP POP SWAP3 POP SWAP3 SWAP1 POP JUMP JUMPDEST PUSH1 0x0 DUP3 DUP3 MSTORE PUSH1 0x20 DUP3 ADD SWAP1 POP SWAP3 SWAP2 POP POP JUMP JUMPDEST PUSH32 0x4174206C65617374206F6E65206F776E65722068617320746F20626520737065 PUSH1 0x0 DUP3 ADD MSTORE PUSH32 0x6369666965642100000000000000000000000000000000000000000000000000 PUSH1 0x20 DUP3 ADD MSTORE POP JUMP JUMPDEST PUSH1 0x0 PUSH3 0x4E4 PUSH1 0x27 DUP4 PUSH3 0x475 JUMP JUMPDEST SWAP2 POP PUSH3 0x4F1 DUP3 PUSH3 0x486 JUMP JUMPDEST PUSH1 0x40 DUP3 ADD SWAP1 POP SWAP2 SWAP1 POP JUMP JUMPDEST PUSH1 0x0 PUSH1 0x20 DUP3 ADD SWAP1 POP DUP2 DUP2 SUB PUSH1 0x0 DUP4 ADD MSTORE PUSH3 0x517 DUP2 PUSH3 0x4D5 JUMP JUMPDEST SWAP1 POP SWAP2 SWAP1 POP JUMP JUMPDEST PUSH32 0x4E6F2E206F66207369676E74757265732072657175697265642073686F756C64 PUSH1 0x0 DUP3 ADD MSTORE PUSH32 0x206265206174206C656173742032000000000000000000000000000000000000 PUSH1 0x20 DUP3 ADD MSTORE POP JUMP JUMPDEST PUSH1 0x0 PUSH3 0x57C PUSH1 0x2E DUP4 PUSH3 0x475 JUMP JUMPDEST SWAP2 POP PUSH3 0x589 DUP3 PUSH3 0x51E JUMP JUMPDEST PUSH1 0x40 DUP3 ADD SWAP1 POP SWAP2 SWAP1 POP JUMP JUMPDEST PUSH1 0x0 PUSH1 0x20 DUP3 ADD SWAP1 POP DUP2 DUP2 SUB PUSH1 0x0 DUP4 ADD MSTORE PUSH3 0x5AF DUP2 PUSH3 0x56D JUMP JUMPDEST SWAP1 POP SWAP2 SWAP1 POP JUMP JUMPDEST PUSH32 0x4E6F2E206F66207369676E6174757265732072657175697265642073686F756C PUSH1 0x0 DUP3 ADD MSTORE PUSH32 0x64206E6F74206265206D6F7265207468616E20746865206E6F2E206F66204F77 PUSH1 0x20 DUP3 ADD MSTORE PUSH32 0x6E65727321000000000000000000000000000000000000000000000000000000 PUSH1 0x40 DUP3 ADD MSTORE POP JUMP JUMPDEST PUSH1 0x0 PUSH3 0x63A PUSH1 0x45 DUP4 PUSH3 0x475 JUMP JUMPDEST SWAP2 POP PUSH3 0x647 DUP3 PUSH3 0x5B6 JUMP JUMPDEST PUSH1 0x60 DUP3 ADD SWAP1 POP SWAP2 SWAP1 POP JUMP JUMPDEST PUSH1 0x0 PUSH1 0x20 DUP3 ADD SWAP1 POP DUP2 DUP2 SUB PUSH1 0x0 DUP4 ADD MSTORE PUSH3 0x66D DUP2 PUSH3 0x62B JUMP JUMPDEST SWAP1 POP SWAP2 SWAP1 POP JUMP JUMPDEST PUSH2 0x13AA DUP1 PUSH3 0x684 PUSH1 0x0 CODECOPY PUSH1 0x0 RETURN INVALID PUSH1 0x80 PUSH1 0x40 MSTORE PUSH1 0x4 CALLDATASIZE LT PUSH2 0xA0 JUMPI PUSH1 0x0 CALLDATALOAD PUSH1 0xE0 SHR DUP1 PUSH4 0x84A37273 GT PUSH2 0x64 JUMPI DUP1 PUSH4 0x84A37273 EQ PUSH2 0x230 JUMPI DUP1 PUSH4 0x9ACE38C2 EQ PUSH2 0x26D JUMPI DUP1 PUSH4 0xB77BF600 EQ PUSH2 0x2AC JUMPI DUP1 PUSH4 0xBCE800E5 EQ PUSH2 0x2D7 JUMPI DUP1 PUSH4 0xC01A8C84 EQ PUSH2 0x314 JUMPI DUP1 PUSH4 0xC35E5E9B EQ PUSH2 0x351 JUMPI PUSH2 0x10C JUMP JUMPDEST DUP1 PUSH4 0x25E7C27 EQ PUSH2 0x111 JUMPI DUP1 PUSH4 0x1D43B653 EQ PUSH2 0x14E JUMPI DUP1 PUSH4 0x3411C81C EQ PUSH2 0x18B JUMPI DUP1 PUSH4 0x784547A7 EQ PUSH2 0x1C8 JUMPI DUP1 PUSH4 0x7BAEF2F5 EQ PUSH2 0x205 JUMPI PUSH2 0x10C JUMP JUMPDEST CALLDATASIZE PUSH2 0x10C JUMPI ADDRESS PUSH20 0xFFFFFFFFFFFFFFFFFFFFFFFFFFFFFFFFFFFFFFFF AND CALLER PUSH20 0xFFFFFFFFFFFFFFFFFFFFFFFFFFFFFFFFFFFFFFFF AND PUSH32 0xDDF252AD1BE2C89B69C2B068FC378DAA952BA7F163C4A11628F55A4DF523B3EF CALLVALUE PUSH1 0x40 MLOAD PUSH2 0x102 SWAP2 SWAP1 PUSH2 0xC65 JUMP JUMPDEST PUSH1 0x40 MLOAD DUP1 SWAP2 SUB SWAP1 LOG3 STOP JUMPDEST PUSH1 0x0 DUP1 REVERT JUMPDEST CALLVALUE DUP1 ISZERO PUSH2 0x11D JUMPI PUSH1 0x0 DUP1 REVERT JUMPDEST POP PUSH2 0x138 PUSH1 0x4 DUP1 CALLDATASIZE SUB DUP2 ADD SWAP1 PUSH2 0x133 SWAP2 SWAP1 PUSH2 0xCB1 JUMP JUMPDEST PUSH2 0x38E JUMP JUMPDEST PUSH1 0x40 MLOAD PUSH2 0x145 SWAP2 SWAP1 PUSH2 0xD1F JUMP JUMPDEST PUSH1 0x40 MLOAD DUP1 SWAP2 SUB SWAP1 RETURN JUMPDEST CALLVALUE DUP1 ISZERO PUSH2 0x15A JUMPI PUSH1 0x0 DUP1 REVERT JUMPDEST POP PUSH2 0x175 PUSH1 0x4 DUP1 CALLDATASIZE SUB DUP2 ADD SWAP1 PUSH2 0x170 SWAP2 SWAP1 PUSH2 0xD66 JUMP JUMPDEST PUSH2 0x3CD JUMP JUMPDEST PUSH1 0x40 MLOAD PUSH2 0x182 SWAP2 SWAP1 PUSH2 0xC65 JUMP JUMPDEST PUSH1 0x40 MLOAD DUP1 SWAP2 SUB SWAP1 RETURN JUMPDEST CALLVALUE DUP1 ISZERO PUSH2 0x197 JUMPI PUSH1 0x0 DUP1 REVERT JUMPDEST POP PUSH2 0x1B2 PUSH1 0x4 DUP1 CALLDATASIZE SUB DUP2 ADD SWAP1 PUSH2 0x1AD SWAP2 SWAP1 PUSH2 0xDA6 JUMP JUMPDEST PUSH2 0x4C5 JUMP JUMPDEST PUSH1 0x40 MLOAD PUSH2 0x1BF SWAP2 SWAP1 PUSH2 0xE01 JUMP JUMPDEST PUSH1 0x40 MLOAD DUP1 SWAP2 SUB SWAP1 RETURN JUMPDEST CALLVALUE DUP1 ISZERO PUSH2 0x1D4 JUMPI PUSH1 0x0 DUP1 REVERT JUMPDEST POP PUSH2 0x1EF PUSH1 0x4 DUP1 CALLDATASIZE SUB DUP2 ADD SWAP1 PUSH2 0x1EA SWAP2 SWAP1 PUSH2 0xCB1 JUMP JUMPDEST PUSH2 0x4F4 JUMP JUMPDEST PUSH1 0x40 MLOAD PUSH2 0x1FC SWAP2 SWAP1 PUSH2 0xE01 JUMP JUMPDEST PUSH1 0x40 MLOAD DUP1 SWAP2 SUB SWAP1 RETURN JUMPDEST CALLVALUE DUP1 ISZERO PUSH2 0x211 JUMPI PUSH1 0x0 DUP1 REVERT JUMPDEST POP PUSH2 0x21A PUSH2 0x511 JUMP JUMPDEST PUSH1 0x40 MLOAD PUSH2 0x227 SWAP2 SWAP1 PUSH2 0xC65 JUMP JUMPDEST PUSH1 0x40 MLOAD DUP1 SWAP2 SUB SWAP1 RETURN JUMPDEST CALLVALUE DUP1 ISZERO PUSH2 0x23C JUMPI PUSH1 0x0 DUP1 REVERT JUMPDEST POP PUSH2 0x257 PUSH1 0x4 DUP1 CALLDATASIZE SUB DUP2 ADD SWAP1 PUSH2 0x252 SWAP2 SWAP1 PUSH2 0xD66 JUMP JUMPDEST PUSH2 0x517 JUMP JUMPDEST PUSH1 0x40 MLOAD PUSH2 0x264 SWAP2 SWAP1 PUSH2 0xC65 JUMP JUMPDEST PUSH1 0x40 MLOAD DUP1 SWAP2 SUB SWAP1 RETURN JUMPDEST CALLVALUE DUP1 ISZERO PUSH2 0x279 JUMPI PUSH1 0x0 DUP1 REVERT JUMPDEST POP PUSH2 0x294 PUSH1 0x4 DUP1 CALLDATASIZE SUB DUP2 ADD SWAP1 PUSH2 0x28F SWAP2 SWAP1 PUSH2 0xCB1 JUMP JUMPDEST PUSH2 0x5F7 JUMP JUMPDEST PUSH1 0x40 MLOAD PUSH2 0x2A3 SWAP4 SWAP3 SWAP2 SWAP1 PUSH2 0xE1C JUMP JUMPDEST PUSH1 0x40 MLOAD DUP1 SWAP2 SUB SWAP1 RETURN JUMPDEST CALLVALUE DUP1 ISZERO PUSH2 0x2B8 JUMPI PUSH1 0x0 DUP1 REVERT JUMPDEST POP PUSH2 0x2C1 PUSH2 0x64E JUMP JUMPDEST PUSH1 0x40 MLOAD PUSH2 0x2CE SWAP2 SWAP1 PUSH2 0xC65 JUMP JUMPDEST PUSH1 0x40 MLOAD DUP1 SWAP2 SUB SWAP1 RETURN JUMPDEST CALLVALUE DUP1 ISZERO PUSH2 0x2E3 JUMPI PUSH1 0x0 DUP1 REVERT JUMPDEST POP PUSH2 0x2FE PUSH1 0x4 DUP1 CALLDATASIZE SUB DUP2 ADD SWAP1 PUSH2 0x2F9 SWAP2 SWAP1 PUSH2 0xCB1 JUMP JUMPDEST PUSH2 0x654 JUMP JUMPDEST PUSH1 0x40 MLOAD PUSH2 0x30B SWAP2 SWAP1 PUSH2 0xC65 JUMP JUMPDEST PUSH1 0x40 MLOAD DUP1 SWAP2 SUB SWAP1 RETURN JUMPDEST CALLVALUE DUP1 ISZERO PUSH2 0x320 JUMPI PUSH1 0x0 DUP1 REVERT JUMPDEST POP PUSH2 0x33B PUSH1 0x4 DUP1 CALLDATASIZE SUB DUP2 ADD SWAP1 PUSH2 0x336 SWAP2 SWAP1 PUSH2 0xCB1 JUMP JUMPDEST PUSH2 0x671 JUMP JUMPDEST PUSH1 0x40 MLOAD PUSH2 0x348 SWAP2 SWAP1 PUSH2 0xC65 JUMP JUMPDEST PUSH1 0x40 MLOAD DUP1 SWAP2 SUB SWAP1 RETURN JUMPDEST CALLVALUE DUP1 ISZERO PUSH2 0x35D JUMPI PUSH1 0x0 DUP1 REVERT JUMPDEST POP PUSH2 0x378 PUSH1 0x4 DUP1 CALLDATASIZE SUB DUP2 ADD SWAP1 PUSH2 0x373 SWAP2 SWAP1 PUSH2 0xDA6 JUMP JUMPDEST PUSH2 0x908 JUMP JUMPDEST PUSH1 0x40 MLOAD PUSH2 0x385 SWAP2 SWAP1 PUSH2 0xE01 JUMP JUMPDEST PUSH1 0x40 MLOAD DUP1 SWAP2 SUB SWAP1 RETURN JUMPDEST PUSH1 0x0 DUP2 DUP2 SLOAD DUP2 LT PUSH2 0x39E JUMPI PUSH1 0x0 DUP1 REVERT JUMPDEST SWAP1 PUSH1 0x0 MSTORE PUSH1 0x20 PUSH1 0x0 KECCAK256 ADD PUSH1 0x0 SWAP2 POP SLOAD SWAP1 PUSH2 0x100 EXP SWAP1 DIV PUSH20 0xFFFFFFFFFFFFFFFFFFFFFFFFFFFFFFFFFFFFFFFF AND DUP2 JUMP JUMPDEST PUSH1 0x0 DUP1 PUSH1 0x0 JUMPDEST PUSH1 0x0 DUP1 SLOAD SWAP1 POP DUP2 LT ISZERO PUSH2 0x469 JUMPI PUSH1 0x0 DUP2 DUP2 SLOAD DUP2 LT PUSH2 0x3F4 JUMPI PUSH2 0x3F3 PUSH2 0xE53 JUMP JUMPDEST JUMPDEST SWAP1 PUSH1 0x0 MSTORE PUSH1 0x20 PUSH1 0x0 KECCAK256 ADD PUSH1 0x0 SWAP1 SLOAD SWAP1 PUSH2 0x100 EXP SWAP1 DIV PUSH20 0xFFFFFFFFFFFFFFFFFFFFFFFFFFFFFFFFFFFFFFFF AND PUSH20 0xFFFFFFFFFFFFFFFFFFFFFFFFFFFFFFFFFFFFFFFF AND CALLER PUSH20 0xFFFFFFFFFFFFFFFFFFFFFFFFFFFFFFFFFFFFFFFF AND SUB PUSH2 0x456 JUMPI PUSH1 0x1 SWAP2 POP JUMPDEST DUP1 DUP1 PUSH2 0x461 SWAP1 PUSH2 0xEB1 JUMP JUMPDEST SWAP2 POP POP PUSH2 0x3D3 JUMP JUMPDEST POP DUP1 PUSH2 0x4AA JUMPI PUSH1 0x40 MLOAD PUSH32 0x8C379A000000000000000000000000000000000000000000000000000000000 DUP2 MSTORE PUSH1 0x4 ADD PUSH2 0x4A1 SWAP1 PUSH2 0xF56 JUMP JUMPDEST PUSH1 0x40 MLOAD DUP1 SWAP2 SUB SWAP1 REVERT JUMPDEST PUSH2 0x4BC PUSH2 0x4B7 DUP6 DUP6 PUSH2 0x517 JUMP JUMPDEST PUSH2 0x671 JUMP JUMPDEST SWAP2 POP POP SWAP3 SWAP2 POP POP JUMP JUMPDEST PUSH1 0x3 PUSH1 0x20 MSTORE DUP2 PUSH1 0x0 MSTORE PUSH1 0x40 PUSH1 0x0 KECCAK256 PUSH1 0x20 MSTORE DUP1 PUSH1 0x0 MSTORE PUSH1 0x40 PUSH1 0x0 KECCAK256 PUSH1 0x0 SWAP2 POP SWAP2 POP SWAP1 SLOAD SWAP1 PUSH2 0x100 EXP SWAP1 DIV PUSH1 0xFF AND DUP2 JUMP JUMPDEST PUSH1 0x0 PUSH1 0x1 SLOAD PUSH2 0x502 DUP4 PUSH2 0x654 JUMP JUMPDEST LT PUSH2 0x50C JUMPI PUSH1 0x1 SWAP1 POP JUMPDEST SWAP2 SWAP1 POP JUMP JUMPDEST PUSH1 0x1 SLOAD DUP2 JUMP JUMPDEST PUSH1 0x0 PUSH1 0x2 SLOAD SWAP1 POP PUSH1 0x40 MLOAD DUP1 PUSH1 0x60 ADD PUSH1 0x40 MSTORE DUP1 DUP5 PUSH20 0xFFFFFFFFFFFFFFFFFFFFFFFFFFFFFFFFFFFFFFFF AND DUP2 MSTORE PUSH1 0x20 ADD DUP4 DUP2 MSTORE PUSH1 0x20 ADD PUSH1 0x0 ISZERO ISZERO DUP2 MSTORE POP PUSH1 0x4 PUSH1 0x0 DUP4 DUP2 MSTORE PUSH1 0x20 ADD SWAP1 DUP2 MSTORE PUSH1 0x20 ADD PUSH1 0x0 KECCAK256 PUSH1 0x0 DUP3 ADD MLOAD DUP2 PUSH1 0x0 ADD PUSH1 0x0 PUSH2 0x100 EXP DUP2 SLOAD DUP2 PUSH20 0xFFFFFFFFFFFFFFFFFFFFFFFFFFFFFFFFFFFFFFFF MUL NOT AND SWAP1 DUP4 PUSH20 0xFFFFFFFFFFFFFFFFFFFFFFFFFFFFFFFFFFFFFFFF AND MUL OR SWAP1 SSTORE POP PUSH1 0x20 DUP3 ADD MLOAD DUP2 PUSH1 0x1 ADD SSTORE PUSH1 0x40 DUP3 ADD MLOAD DUP2 PUSH1 0x2 ADD PUSH1 0x0 PUSH2 0x100 EXP DUP2 SLOAD DUP2 PUSH1 0xFF MUL NOT AND SWAP1 DUP4 ISZERO ISZERO MUL OR SWAP1 SSTORE POP SWAP1 POP POP PUSH1 0x2 PUSH1 0x0 DUP2 SLOAD DUP1 SWAP3 SWAP2 SWAP1 PUSH2 0x5EC SWAP1 PUSH2 0xEB1 JUMP JUMPDEST SWAP2 SWAP1 POP SSTORE POP SWAP3 SWAP2 POP POP JUMP JUMPDEST PUSH1 0x4 PUSH1 0x20 MSTORE DUP1 PUSH1 0x0 MSTORE PUSH1 0x40 PUSH1 0x0 KECCAK256 PUSH1 0x0 SWAP2 POP SWAP1 POP DUP1 PUSH1 0x0 ADD PUSH1 0x0 SWAP1 SLOAD SWAP1 PUSH2 0x100 EXP SWAP1 DIV PUSH20 0xFFFFFFFFFFFFFFFFFFFFFFFFFFFFFFFFFFFFFFFF AND SWAP1 DUP1 PUSH1 0x1 ADD SLOAD SWAP1 DUP1 PUSH1 0x2 ADD PUSH1 0x0 SWAP1 SLOAD SWAP1 PUSH2 0x100 EXP SWAP1 DIV PUSH1 0xFF AND SWAP1 POP DUP4 JUMP JUMPDEST PUSH1 0x2 SLOAD DUP2 JUMP JUMPDEST PUSH1 0x0 PUSH1 0x5 PUSH1 0x0 DUP4 DUP2 MSTORE PUSH1 0x20 ADD SWAP1 DUP2 MSTORE PUSH1 0x20 ADD PUSH1 0x0 KECCAK256 SLOAD SWAP1 POP SWAP2 SWAP1 POP JUMP JUMPDEST PUSH1 0x0 DUP1 PUSH1 0x0 JUMPDEST PUSH1 0x0 DUP1 SLOAD SWAP1 POP DUP2 LT ISZERO PUSH2 0x70D JUMPI PUSH1 0x0 DUP2 DUP2 SLOAD DUP2 LT PUSH2 0x698 JUMPI PUSH2 0x697 PUSH2 0xE53 JUMP JUMPDEST JUMPDEST SWAP1 PUSH1 0x0 MSTORE PUSH1 0x20 PUSH1 0x0 KECCAK256 ADD PUSH1 0x0 SWAP1 SLOAD SWAP1 PUSH2 0x100 EXP SWAP1 DIV PUSH20 0xFFFFFFFFFFFFFFFFFFFFFFFFFFFFFFFFFFFFFFFF AND PUSH20 0xFFFFFFFFFFFFFFFFFFFFFFFFFFFFFFFFFFFFFFFF AND CALLER PUSH20 0xFFFFFFFFFFFFFFFFFFFFFFFFFFFFFFFFFFFFFFFF AND SUB PUSH2 0x6FA JUMPI PUSH1 0x1 SWAP2 POP JUMPDEST DUP1 DUP1 PUSH2 0x705 SWAP1 PUSH2 0xEB1 JUMP JUMPDEST SWAP2 POP POP PUSH2 0x677 JUMP JUMPDEST POP DUP1 PUSH2 0x74E JUMPI PUSH1 0x40 MLOAD PUSH32 0x8C379A000000000000000000000000000000000000000000000000000000000 DUP2 MSTORE PUSH1 0x4 ADD PUSH2 0x745 SWAP1 PUSH2 0xF56 JUMP JUMPDEST PUSH1 0x40 MLOAD DUP1 SWAP2 SUB SWAP1 REVERT JUMPDEST PUSH1 0x6 PUSH1 0x0 DUP5 DUP2 MSTORE PUSH1 0x20 ADD SWAP1 DUP2 MSTORE PUSH1 0x20 ADD PUSH1 0x0 KECCAK256 PUSH1 0x0 CALLER PUSH20 0xFFFFFFFFFFFFFFFFFFFFFFFFFFFFFFFFFFFFFFFF AND PUSH20 0xFFFFFFFFFFFFFFFFFFFFFFFFFFFFFFFFFFFFFFFF AND DUP2 MSTORE PUSH1 0x20 ADD SWAP1 DUP2 MSTORE PUSH1 0x20 ADD PUSH1 0x0 KECCAK256 PUSH1 0x0 SWAP1 SLOAD SWAP1 PUSH2 0x100 EXP SWAP1 DIV PUSH1 0xFF AND ISZERO PUSH2 0x7EC JUMPI PUSH1 0x40 MLOAD PUSH32 0x8C379A000000000000000000000000000000000000000000000000000000000 DUP2 MSTORE PUSH1 0x4 ADD PUSH2 0x7E3 SWAP1 PUSH2 0xFE8 JUMP JUMPDEST PUSH1 0x40 MLOAD DUP1 SWAP2 SUB SWAP1 REVERT JUMPDEST PUSH1 0x1 PUSH1 0x6 PUSH1 0x0 DUP6 DUP2 MSTORE PUSH1 0x20 ADD SWAP1 DUP2 MSTORE PUSH1 0x20 ADD PUSH1 0x0 KECCAK256 PUSH1 0x0 CALLER PUSH20 0xFFFFFFFFFFFFFFFFFFFFFFFFFFFFFFFFFFFFFFFF AND PUSH20 0xFFFFFFFFFFFFFFFFFFFFFFFFFFFFFFFFFFFFFFFF AND DUP2 MSTORE PUSH1 0x20 ADD SWAP1 DUP2 MSTORE PUSH1 0x20 ADD PUSH1 0x0 KECCAK256 PUSH1 0x0 PUSH2 0x100 EXP DUP2 SLOAD DUP2 PUSH1 0xFF MUL NOT AND SWAP1 DUP4 ISZERO ISZERO MUL OR SWAP1 SSTORE POP PUSH1 0x1 PUSH1 0x3 PUSH1 0x0 DUP6 DUP2 MSTORE PUSH1 0x20 ADD SWAP1 DUP2 MSTORE PUSH1 0x20 ADD PUSH1 0x0 KECCAK256 PUSH1 0x0 CALLER PUSH20 0xFFFFFFFFFFFFFFFFFFFFFFFFFFFFFFFFFFFFFFFF AND PUSH20 0xFFFFFFFFFFFFFFFFFFFFFFFFFFFFFFFFFFFFFFFF AND DUP2 MSTORE PUSH1 0x20 ADD SWAP1 DUP2 MSTORE PUSH1 0x20 ADD PUSH1 0x0 KECCAK256 PUSH1 0x0 PUSH2 0x100 EXP DUP2 SLOAD DUP2 PUSH1 0xFF MUL NOT AND SWAP1 DUP4 ISZERO ISZERO MUL OR SWAP1 SSTORE POP PUSH1 0x5 PUSH1 0x0 DUP5 DUP2 MSTORE PUSH1 0x20 ADD SWAP1 DUP2 MSTORE PUSH1 0x20 ADD PUSH1 0x0 KECCAK256 PUSH1 0x0 DUP2 SLOAD DUP1 SWAP3 SWAP2 SWAP1 PUSH2 0x8E2 SWAP1 PUSH2 0xEB1 JUMP JUMPDEST SWAP2 SWAP1 POP SSTORE POP PUSH2 0x8F0 DUP4 PUSH2 0x4F4 JUMP JUMPDEST ISZERO PUSH2 0x8FF JUMPI PUSH2 0x8FE DUP4 PUSH2 0x937 JUMP JUMPDEST JUMPDEST DUP3 SWAP2 POP POP SWAP2 SWAP1 POP JUMP JUMPDEST PUSH1 0x6 PUSH1 0x20 MSTORE DUP2 PUSH1 0x0 MSTORE PUSH1 0x40 PUSH1 0x0 KECCAK256 PUSH1 0x20 MSTORE DUP1 PUSH1 0x0 MSTORE PUSH1 0x40 PUSH1 0x0 KECCAK256 PUSH1 0x0 SWAP2 POP SWAP2 POP SWAP1 SLOAD SWAP1 PUSH2 0x100 EXP SWAP1 DIV PUSH1 0xFF AND DUP2 JUMP JUMPDEST PUSH2 0x940 DUP2 PUSH2 0x4F4 JUMP JUMPDEST PUSH2 0x97F JUMPI PUSH1 0x40 MLOAD PUSH32 0x8C379A000000000000000000000000000000000000000000000000000000000 DUP2 MSTORE PUSH1 0x4 ADD PUSH2 0x976 SWAP1 PUSH2 0x107A JUMP JUMPDEST PUSH1 0x40 MLOAD DUP1 SWAP2 SUB SWAP1 REVERT JUMPDEST PUSH1 0x0 PUSH1 0x4 PUSH1 0x0 DUP4 DUP2 MSTORE PUSH1 0x20 ADD SWAP1 DUP2 MSTORE PUSH1 0x20 ADD PUSH1 0x0 KECCAK256 PUSH1 0x0 ADD PUSH1 0x0 SWAP1 SLOAD SWAP1 PUSH2 0x100 EXP SWAP1 DIV PUSH20 0xFFFFFFFFFFFFFFFFFFFFFFFFFFFFFFFFFFFFFFFF AND SWAP1 POP PUSH1 0x0 PUSH20 0xFFFFFFFFFFFFFFFFFFFFFFFFFFFFFFFFFFFFFFFF AND DUP2 PUSH20 0xFFFFFFFFFFFFFFFFFFFFFFFFFFFFFFFFFFFFFFFF AND SUB PUSH2 0xA29 JUMPI PUSH1 0x40 MLOAD PUSH32 0x8C379A000000000000000000000000000000000000000000000000000000000 DUP2 MSTORE PUSH1 0x4 ADD PUSH2 0xA20 SWAP1 PUSH2 0x110C JUMP JUMPDEST PUSH1 0x40 MLOAD DUP1 SWAP2 SUB SWAP1 REVERT JUMPDEST PUSH1 0x4 PUSH1 0x0 DUP4 DUP2 MSTORE PUSH1 0x20 ADD SWAP1 DUP2 MSTORE PUSH1 0x20 ADD PUSH1 0x0 KECCAK256 PUSH1 0x1 ADD SLOAD SELFBALANCE LT ISZERO PUSH2 0xA82 JUMPI PUSH1 0x40 MLOAD PUSH32 0x8C379A000000000000000000000000000000000000000000000000000000000 DUP2 MSTORE PUSH1 0x4 ADD PUSH2 0xA79 SWAP1 PUSH2 0x11C4 JUMP JUMPDEST PUSH1 0x40 MLOAD DUP1 SWAP2 SUB SWAP1 REVERT JUMPDEST PUSH1 0x0 PUSH1 0x4 PUSH1 0x0 DUP5 DUP2 MSTORE PUSH1 0x20 ADD SWAP1 DUP2 MSTORE PUSH1 0x20 ADD PUSH1 0x0 KECCAK256 PUSH1 0x1 ADD SLOAD SUB PUSH2 0xADB JUMPI PUSH1 0x40 MLOAD PUSH32 0x8C379A000000000000000000000000000000000000000000000000000000000 DUP2 MSTORE PUSH1 0x4 ADD PUSH2 0xAD2 SWAP1 PUSH2 0x1256 JUMP JUMPDEST PUSH1 0x40 MLOAD DUP1 SWAP2 SUB SWAP1 REVERT JUMPDEST PUSH1 0x0 DUP2 PUSH20 0xFFFFFFFFFFFFFFFFFFFFFFFFFFFFFFFFFFFFFFFF AND PUSH1 0x4 PUSH1 0x0 DUP6 DUP2 MSTORE PUSH1 0x20 ADD SWAP1 DUP2 MSTORE PUSH1 0x20 ADD PUSH1 0x0 KECCAK256 PUSH1 0x1 ADD SLOAD PUSH1 0x40 MLOAD PUSH2 0xB17 SWAP1 PUSH2 0x12A7 JUMP JUMPDEST PUSH1 0x0 PUSH1 0x40 MLOAD DUP1 DUP4 SUB DUP2 DUP6 DUP8 GAS CALL SWAP3 POP POP POP RETURNDATASIZE DUP1 PUSH1 0x0 DUP2 EQ PUSH2 0xB54 JUMPI PUSH1 0x40 MLOAD SWAP2 POP PUSH1 0x1F NOT PUSH1 0x3F RETURNDATASIZE ADD AND DUP3 ADD PUSH1 0x40 MSTORE RETURNDATASIZE DUP3 MSTORE RETURNDATASIZE PUSH1 0x0 PUSH1 0x20 DUP5 ADD RETURNDATACOPY PUSH2 0xB59 JUMP JUMPDEST PUSH1 0x60 SWAP2 POP JUMPDEST POP POP SWAP1 POP DUP1 PUSH2 0xB9D JUMPI PUSH1 0x40 MLOAD PUSH32 0x8C379A000000000000000000000000000000000000000000000000000000000 DUP2 MSTORE PUSH1 0x4 ADD PUSH2 0xB94 SWAP1 PUSH2 0x1354 JUMP JUMPDEST PUSH1 0x40 MLOAD DUP1 SWAP2 SUB SWAP1 REVERT JUMPDEST PUSH1 0x1 PUSH1 0x4 PUSH1 0x0 DUP6 DUP2 MSTORE PUSH1 0x20 ADD SWAP1 DUP2 MSTORE PUSH1 0x20 ADD PUSH1 0x0 KECCAK256 PUSH1 0x2 ADD PUSH1 0x0 PUSH2 0x100 EXP DUP2 SLOAD DUP2 PUSH1 0xFF MUL NOT AND SWAP1 DUP4 ISZERO ISZERO MUL OR SWAP1 SSTORE POP DUP2 PUSH20 0xFFFFFFFFFFFFFFFFFFFFFFFFFFFFFFFFFFFFFFFF AND ADDRESS PUSH20 0xFFFFFFFFFFFFFFFFFFFFFFFFFFFFFFFFFFFFFFFF AND PUSH32 0xDDF252AD1BE2C89B69C2B068FC378DAA952BA7F163C4A11628F55A4DF523B3EF PUSH1 0x4 PUSH1 0x0 DUP8 DUP2 MSTORE PUSH1 0x20 ADD SWAP1 DUP2 MSTORE PUSH1 0x20 ADD PUSH1 0x0 KECCAK256 PUSH1 0x1 ADD SLOAD PUSH1 0x40 MLOAD PUSH2 0xC3F SWAP2 SWAP1 PUSH2 0xC65 JUMP JUMPDEST PUSH1 0x40 MLOAD DUP1 SWAP2 SUB SWAP1 LOG3 POP POP POP JUMP JUMPDEST PUSH1 0x0 DUP2 SWAP1 POP SWAP2 SWAP1 POP JUMP JUMPDEST PUSH2 0xC5F DUP2 PUSH2 0xC4C JUMP JUMPDEST DUP3 MSTORE POP POP JUMP JUMPDEST PUSH1 0x0 PUSH1 0x20 DUP3 ADD SWAP1 POP PUSH2 0xC7A PUSH1 0x0 DUP4 ADD DUP5 PUSH2 0xC56 JUMP JUMPDEST SWAP3 SWAP2 POP POP JUMP JUMPDEST PUSH1 0x0 DUP1 REVERT JUMPDEST PUSH2 0xC8E DUP2 PUSH2 0xC4C JUMP JUMPDEST DUP2 EQ PUSH2 0xC99 JUMPI PUSH1 0x0 DUP1 REVERT JUMPDEST POP JUMP JUMPDEST PUSH1 0x0 DUP2 CALLDATALOAD SWAP1 POP PUSH2 0xCAB DUP2 PUSH2 0xC85 JUMP JUMPDEST SWAP3 SWAP2 POP POP JUMP JUMPDEST PUSH1 0x0 PUSH1 0x20 DUP3 DUP5 SUB SLT ISZERO PUSH2 0xCC7 JUMPI PUSH2 0xCC6 PUSH2 0xC80 JUMP JUMPDEST JUMPDEST PUSH1 0x0 PUSH2 0xCD5 DUP5 DUP3 DUP6 ADD PUSH2 0xC9C JUMP JUMPDEST SWAP2 POP POP SWAP3 SWAP2 POP POP JUMP JUMPDEST PUSH1 0x0 PUSH20 0xFFFFFFFFFFFFFFFFFFFFFFFFFFFFFFFFFFFFFFFF DUP3 AND SWAP1 POP SWAP2 SWAP1 POP JUMP JUMPDEST PUSH1 0x0 PUSH2 0xD09 DUP3 PUSH2 0xCDE JUMP JUMPDEST SWAP1 POP SWAP2 SWAP1 POP JUMP JUMPDEST PUSH2 0xD19 DUP2 PUSH2 0xCFE JUMP JUMPDEST DUP3 MSTORE POP POP JUMP JUMPDEST PUSH1 0x0 PUSH1 0x20 DUP3 ADD SWAP1 POP PUSH2 0xD34 PUSH1 0x0 DUP4 ADD DUP5 PUSH2 0xD10 JUMP JUMPDEST SWAP3 SWAP2 POP POP JUMP JUMPDEST PUSH2 0xD43 DUP2 PUSH2 0xCFE JUMP JUMPDEST DUP2 EQ PUSH2 0xD4E JUMPI PUSH1 0x0 DUP1 REVERT JUMPDEST POP JUMP JUMPDEST PUSH1 0x0 DUP2 CALLDATALOAD SWAP1 POP PUSH2 0xD60 DUP2 PUSH2 0xD3A JUMP JUMPDEST SWAP3 SWAP2 POP POP JUMP JUMPDEST PUSH1 0x0 DUP1 PUSH1 0x40 DUP4 DUP6 SUB SLT ISZERO PUSH2 0xD7D JUMPI PUSH2 0xD7C PUSH2 0xC80 JUMP JUMPDEST JUMPDEST PUSH1 0x0 PUSH2 0xD8B DUP6 DUP3 DUP7 ADD PUSH2 0xD51 JUMP JUMPDEST SWAP3 POP POP PUSH1 0x20 PUSH2 0xD9C DUP6 DUP3 DUP7 ADD PUSH2 0xC9C JUMP JUMPDEST SWAP2 POP POP SWAP3 POP SWAP3 SWAP1 POP JUMP JUMPDEST PUSH1 0x0 DUP1 PUSH1 0x40 DUP4 DUP6 SUB SLT ISZERO PUSH2 0xDBD JUMPI PUSH2 0xDBC PUSH2 0xC80 JUMP JUMPDEST JUMPDEST PUSH1 0x0 PUSH2 0xDCB DUP6 DUP3 DUP7 ADD PUSH2 0xC9C JUMP JUMPDEST SWAP3 POP POP PUSH1 0x20 PUSH2 0xDDC DUP6 DUP3 DUP7 ADD PUSH2 0xD51 JUMP JUMPDEST SWAP2 POP POP SWAP3 POP SWAP3 SWAP1 POP JUMP JUMPDEST PUSH1 0x0 DUP2 ISZERO ISZERO SWAP1 POP SWAP2 SWAP1 POP JUMP JUMPDEST PUSH2 0xDFB DUP2 PUSH2 0xDE6 JUMP JUMPDEST DUP3 MSTORE POP POP JUMP JUMPDEST PUSH1 0x0 PUSH1 0x20 DUP3 ADD SWAP1 POP PUSH2 0xE16 PUSH1 0x0 DUP4 ADD DUP5 PUSH2 0xDF2 JUMP JUMPDEST SWAP3 SWAP2 POP POP JUMP JUMPDEST PUSH1 0x0 PUSH1 0x60 DUP3 ADD SWAP1 POP PUSH2 0xE31 PUSH1 0x0 DUP4 ADD DUP7 PUSH2 0xD10 JUMP JUMPDEST PUSH2 0xE3E PUSH1 0x20 DUP4 ADD DUP6 PUSH2 0xC56 JUMP JUMPDEST PUSH2 0xE4B PUSH1 0x40 DUP4 ADD DUP5 PUSH2 0xDF2 JUMP JUMPDEST SWAP5 SWAP4 POP POP POP POP JUMP JUMPDEST PUSH32 0x4E487B7100000000000000000000000000000000000000000000000000000000 PUSH1 0x0 MSTORE PUSH1 0x32 PUSH1 0x4 MSTORE PUSH1 0x24 PUSH1 0x0 REVERT JUMPDEST PUSH32 0x4E487B7100000000000000000000000000000000000000000000000000000000 PUSH1 0x0 MSTORE PUSH1 0x11 PUSH1 0x4 MSTORE PUSH1 0x24 PUSH1 0x0 REVERT JUMPDEST PUSH1 0x0 PUSH2 0xEBC DUP3 PUSH2 0xC4C JUMP JUMPDEST SWAP2 POP PUSH32 0xFFFFFFFFFFFFFFFFFFFFFFFFFFFFFFFFFFFFFFFFFFFFFFFFFFFFFFFFFFFFFFFF DUP3 SUB PUSH2 0xEEE JUMPI PUSH2 0xEED PUSH2 0xE82 JUMP JUMPDEST JUMPDEST PUSH1 0x1 DUP3 ADD SWAP1 POP SWAP2 SWAP1 POP JUMP JUMPDEST PUSH1 0x0 DUP3 DUP3 MSTORE PUSH1 0x20 DUP3 ADD SWAP1 POP SWAP3 SWAP2 POP POP JUMP JUMPDEST PUSH32 0x596F7520617265206E6F7420616E20617574686F7269736564204F776E657221 PUSH1 0x0 DUP3 ADD MSTORE POP JUMP JUMPDEST PUSH1 0x0 PUSH2 0xF40 PUSH1 0x20 DUP4 PUSH2 0xEF9 JUMP JUMPDEST SWAP2 POP PUSH2 0xF4B DUP3 PUSH2 0xF0A JUMP JUMPDEST PUSH1 0x20 DUP3 ADD SWAP1 POP SWAP2 SWAP1 POP JUMP JUMPDEST PUSH1 0x0 PUSH1 0x20 DUP3 ADD SWAP1 POP DUP2 DUP2 SUB PUSH1 0x0 DUP4 ADD MSTORE PUSH2 0xF6F DUP2 PUSH2 0xF33 JUMP JUMPDEST SWAP1 POP SWAP2 SWAP1 POP JUMP JUMPDEST PUSH32 0x596F7520617265206E6F7420616C6C6F77656420746F20646F75626C6520636F PUSH1 0x0 DUP3 ADD MSTORE PUSH32 0x6E6669726D207468652073616D65207472616E73616374696F6E210000000000 PUSH1 0x20 DUP3 ADD MSTORE POP JUMP JUMPDEST PUSH1 0x0 PUSH2 0xFD2 PUSH1 0x3B DUP4 PUSH2 0xEF9 JUMP JUMPDEST SWAP2 POP PUSH2 0xFDD DUP3 PUSH2 0xF76 JUMP JUMPDEST PUSH1 0x40 DUP3 ADD SWAP1 POP SWAP2 SWAP1 POP JUMP JUMPDEST PUSH1 0x0 PUSH1 0x20 DUP3 ADD SWAP1 POP DUP2 DUP2 SUB PUSH1 0x0 DUP4 ADD MSTORE PUSH2 0x1001 DUP2 PUSH2 0xFC5 JUMP JUMPDEST SWAP1 POP SWAP2 SWAP1 POP JUMP JUMPDEST PUSH32 0x5472616E73616374696F6E206973206E6F7420636F6E6669726D656420796574 PUSH1 0x0 DUP3 ADD MSTORE PUSH32 0x2100000000000000000000000000000000000000000000000000000000000000 PUSH1 0x20 DUP3 ADD MSTORE POP JUMP JUMPDEST PUSH1 0x0 PUSH2 0x1064 PUSH1 0x21 DUP4 PUSH2 0xEF9 JUMP JUMPDEST SWAP2 POP PUSH2 0x106F DUP3 PUSH2 0x1008 JUMP JUMPDEST PUSH1 0x40 DUP3 ADD SWAP1 POP SWAP2 SWAP1 POP JUMP JUMPDEST PUSH1 0x0 PUSH1 0x20 DUP3 ADD SWAP1 POP DUP2 DUP2 SUB PUSH1 0x0 DUP4 ADD MSTORE PUSH2 0x1093 DUP2 PUSH2 0x1057 JUMP JUMPDEST SWAP1 POP SWAP2 SWAP1 POP JUMP JUMPDEST PUSH32 0x64657374696E6174696F6E20616464726573732068617320746F206265206E6F PUSH1 0x0 DUP3 ADD MSTORE PUSH32 0x6E2D7A65726F2100000000000000000000000000000000000000000000000000 PUSH1 0x20 DUP3 ADD MSTORE POP JUMP JUMPDEST PUSH1 0x0 PUSH2 0x10F6 PUSH1 0x27 DUP4 PUSH2 0xEF9 JUMP JUMPDEST SWAP2 POP PUSH2 0x1101 DUP3 PUSH2 0x109A JUMP JUMPDEST PUSH1 0x40 DUP3 ADD SWAP1 POP SWAP2 SWAP1 POP JUMP JUMPDEST PUSH1 0x0 PUSH1 0x20 DUP3 ADD SWAP1 POP DUP2 DUP2 SUB PUSH1 0x0 DUP4 ADD MSTORE PUSH2 0x1125 DUP2 PUSH2 0x10E9 JUMP JUMPDEST SWAP1 POP SWAP2 SWAP1 POP JUMP JUMPDEST PUSH32 0x496E73756666696369656E742066756E647320696E207468652077616C6C6574 PUSH1 0x0 DUP3 ADD MSTORE PUSH32 0x20746F207472616E736665722074686520726571756972656420616D6F756E74 PUSH1 0x20 DUP3 ADD MSTORE PUSH32 0x2100000000000000000000000000000000000000000000000000000000000000 PUSH1 0x40 DUP3 ADD MSTORE POP JUMP JUMPDEST PUSH1 0x0 PUSH2 0x11AE PUSH1 0x41 DUP4 PUSH2 0xEF9 JUMP JUMPDEST SWAP2 POP PUSH2 0x11B9 DUP3 PUSH2 0x112C JUMP JUMPDEST PUSH1 0x60 DUP3 ADD SWAP1 POP SWAP2 SWAP1 POP JUMP JUMPDEST PUSH1 0x0 PUSH1 0x20 DUP3 ADD SWAP1 POP DUP2 DUP2 SUB PUSH1 0x0 DUP4 ADD MSTORE PUSH2 0x11DD DUP2 PUSH2 0x11A1 JUMP JUMPDEST SWAP1 POP SWAP2 SWAP1 POP JUMP JUMPDEST PUSH32 0x616D6F756E7420746F207472616E736665722068617320746F206265206E6F6E PUSH1 0x0 DUP3 ADD MSTORE PUSH32 0x2D7A65726F210000000000000000000000000000000000000000000000000000 PUSH1 0x20 DUP3 ADD MSTORE POP JUMP JUMPDEST PUSH1 0x0 PUSH2 0x1240 PUSH1 0x26 DUP4 PUSH2 0xEF9 JUMP JUMPDEST SWAP2 POP PUSH2 0x124B DUP3 PUSH2 0x11E4 JUMP JUMPDEST PUSH1 0x40 DUP3 ADD SWAP1 POP SWAP2 SWAP1 POP JUMP JUMPDEST PUSH1 0x0 PUSH1 0x20 DUP3 ADD SWAP1 POP DUP2 DUP2 SUB PUSH1 0x0 DUP4 ADD MSTORE PUSH2 0x126F DUP2 PUSH2 0x1233 JUMP JUMPDEST SWAP1 POP SWAP2 SWAP1 POP JUMP JUMPDEST PUSH1 0x0 DUP2 SWAP1 POP SWAP3 SWAP2 POP POP JUMP JUMPDEST POP JUMP JUMPDEST PUSH1 0x0 PUSH2 0x1291 PUSH1 0x0 DUP4 PUSH2 0x1276 JUMP JUMPDEST SWAP2 POP PUSH2 0x129C DUP3 PUSH2 0x1281 JUMP JUMPDEST PUSH1 0x0 DUP3 ADD SWAP1 POP SWAP2 SWAP1 POP JUMP JUMPDEST PUSH1 0x0 PUSH2 0x12B2 DUP3 PUSH2 0x1284 JUMP JUMPDEST SWAP2 POP DUP2 SWAP1 POP SWAP2 SWAP1 POP JUMP JUMPDEST PUSH32 0x4661696C656420746F2065786563757465207472616E73616374696F6E206475 PUSH1 0x0 DUP3 ADD MSTORE PUSH32 0x6520746F20696E76616C6964207472616E736665722064657461696C732F696E PUSH1 0x20 DUP3 ADD MSTORE PUSH32 0x73756666696369656E742066756E647320696E207468652077616C6C65742100 PUSH1 0x40 DUP3 ADD MSTORE POP JUMP JUMPDEST PUSH1 0x0 PUSH2 0x133E PUSH1 0x5F DUP4 PUSH2 0xEF9 JUMP JUMPDEST SWAP2 POP PUSH2 0x1349 DUP3 PUSH2 0x12BC JUMP JUMPDEST PUSH1 0x60 DUP3 ADD SWAP1 POP SWAP2 SWAP1 POP JUMP JUMPDEST PUSH1 0x0 PUSH1 0x20 DUP3 ADD SWAP1 POP DUP2 DUP2 SUB PUSH1 0x0 DUP4 ADD MSTORE PUSH2 0x136D DUP2 PUSH2 0x1331 JUMP JUMPDEST SWAP1 POP SWAP2 SWAP1 POP JUMP INVALID LOG2 PUSH5 0x6970667358 0x22 SLT KECCAK256 0xDC PUSH27 0xCDB6D86AE33E2B0E70CE9FEDF90EEB4D9D918043C5755009ACEFAA ISZERO DUP9 0xBC PUSH5 0x736F6C6343 STOP ADDMOD GT STOP CALLER "},"methodIdentifiers":{"addTransaction(address,uint256)":"84a37273","confirmTransaction(uint256)":"c01a8c84","confirmations(uint256,address)":"3411c81c","getConfirmationsCount(uint256)":"bce800e5","isConfirmed(uint256)":"784547a7","isOwnerSignedTrx(uint256,address)":"c35e5e9b","noOfConfirmations()":"7baef2f5","owners(uint256)":"025e7c27","submitTransaction(address,uint256)":"1d43b653","transactionCount()":"b77bf600","transactions(uint256)":"9ace38c2"}}}}}