{"contracts/MultiSig.sol":{"MultiSig":{"abi":[{"inputs":[{"internalType":"address[]","name":"_owners","type":"address[]"},{"internalType":"uint256","name":"_noOfconfirmations","type":"uint256"}],"stateMutability":"nonpayable","type":"constructor"},{"anonymous":false,"inputs":[{"indexed":false,"internalType":"address","name":"from","type":"address"},{"indexed":false,"internalType":"address","name":"to","type":"address"},{"indexed":false,"internalType":"uint256","name":"value","type":"uint256"}],"name":"Transfer","type":"event"},{"inputs":[{"internalType":"uint256","name":"trxId","type":"uint256"}],"name":"confirmTransaction","outputs":[],"stateMutability":"nonpayable","type":"function"},{"inputs":[{"internalType":"uint256","name":"","type":"uint256"},{"internalType":"address","name":"","type":"address"}],"name":"confirmations","outputs":[{"internalType":"bool","name":"","type":"bool"}],"stateMutability":"view","type":"function"},{"inputs":[{"internalType":"uint256","name":"trxId","type":"uint256"}],"name":"getConfirmationsCount","outputs":[{"internalType":"uint256","name":"","type":"uint256"}],"stateMutability":"view","type":"function"},{"inputs":[{"internalType":"uint256","name":"trxId","type":"uint256"}],"name":"isConfirmed","outputs":[{"internalType":"bool","name":"_isConfirmed","type":"bool"}],"stateMutability":"view","type":"function"},{"inputs":[{"internalType":"address","name":"","type":"address"}],"name":"isOwnerSigned","outputs":[{"internalType":"bool","name":"","type":"bool"}],"stateMutability":"view","type":"function"},{"inputs":[],"name":"noOfConfirmations","outputs":[{"internalType":"uint256","name":"","type":"uint256"}],"stateMutability":"view","type":"function"},{"inputs":[{"internalType":"uint256","name":"","type":"uint256"}],"name":"owners","outputs":[{"internalType":"address","name":"","type":"address"}],"stateMutability":"view","type":"function"},{"inputs":[{"internalType":"address","name":"destination","type":"address"},{"internalType":"uint256","name":"value","type":"uint256"}],"name":"submitTransaction","outputs":[],"stateMutability":"nonpayable","type":"function"},{"inputs":[],"name":"transactionCount","outputs":[{"internalType":"uint256","name":"","type":"uint256"}],"stateMutability":"view","type":"function"},{"inputs":[{"internalType":"uint256","name":"","type":"uint256"}],"name":"transactions","outputs":[{"internalType":"address","name":"destination","type":"address"},{"internalType":"uint256","name":"value","type":"uint256"},{"internalType":"bool","name":"executed","type":"bool"}],"stateMutability":"view","type":"function"},{"stateMutability":"payable","type":"receive"}],"evm":{"bytecode":{"linkReferences":{},"object":"60806040523480156200001157600080fd5b50604051620019933803806200199383398181016040528101906200003791906200040a565b60008251116200007e576040517f08c379a00000000000000000000000000000000000000000000000000000000081526004016200007590620004f7565b60405180910390fd5b60008111620000c4576040517f08c379a0000000000000000000000000000000000000000000000000000000008152600401620000bb906200058f565b60405180910390fd5b81518111156200010b576040517f08c379a000000000000000000000000000000000000000000000000000000000815260040162000102906200064d565b60405180910390fd5b81600090805190602001906200012392919062000133565b508060018190555050506200066f565b828054828255906000526020600020908101928215620001af579160200282015b82811115620001ae5782518260006101000a81548173ffffffffffffffffffffffffffffffffffffffff021916908373ffffffffffffffffffffffffffffffffffffffff1602179055509160200191906001019062000154565b5b509050620001be9190620001c2565b5090565b5b80821115620001dd576000816000905550600101620001c3565b5090565b6000604051905090565b600080fd5b600080fd5b600080fd5b6000601f19601f8301169050919050565b7f4e487b7100000000000000000000000000000000000000000000000000000000600052604160045260246000fd5b6200024582620001fa565b810181811067ffffffffffffffff821117156200026757620002666200020b565b5b80604052505050565b60006200027c620001e1565b90506200028a82826200023a565b919050565b600067ffffffffffffffff821115620002ad57620002ac6200020b565b5b602082029050602081019050919050565b600080fd5b600073ffffffffffffffffffffffffffffffffffffffff82169050919050565b6000620002f082620002c3565b9050919050565b6200030281620002e3565b81146200030e57600080fd5b50565b6000815190506200032281620002f7565b92915050565b60006200033f62000339846200028f565b62000270565b90508083825260208201905060208402830185811115620003655762000364620002be565b5b835b818110156200039257806200037d888262000311565b84526020840193505060208101905062000367565b5050509392505050565b600082601f830112620003b457620003b3620001f5565b5b8151620003c684826020860162000328565b91505092915050565b6000819050919050565b620003e481620003cf565b8114620003f057600080fd5b50565b6000815190506200040481620003d9565b92915050565b60008060408385031215620004245762000423620001eb565b5b600083015167ffffffffffffffff811115620004455762000444620001f0565b5b62000453858286016200039c565b92505060206200046685828601620003f3565b9150509250929050565b600082825260208201905092915050565b7f4174206c65617374206f6e65206f776e65722068617320746f2062652073706560008201527f6369666965642100000000000000000000000000000000000000000000000000602082015250565b6000620004df60278362000470565b9150620004ec8262000481565b604082019050919050565b600060208201905081810360008301526200051281620004d0565b9050919050565b7f4e6f2e206f66207369676e74757265732072657175697265642073686f756c6460008201527f206265206e6f6e2d7a65726f0000000000000000000000000000000000000000602082015250565b600062000577602c8362000470565b9150620005848262000519565b604082019050919050565b60006020820190508181036000830152620005aa8162000568565b9050919050565b7f4e6f2e206f66207369676e6174757265732072657175697265642073686f756c60008201527f64206e6f74206265206d6f7265207468616e20746865206e6f2e206f66204f7760208201527f6e65727321000000000000000000000000000000000000000000000000000000604082015250565b60006200063560458362000470565b91506200064282620005b1565b606082019050919050565b60006020820190508181036000830152620006688162000626565b9050919050565b611314806200067f6000396000f3fe6080604052600436106100955760003560e01c80637baef2f5116100595780637baef2f5146101f95780639ace38c214610224578063b77bf60014610263578063bce800e51461028e578063c01a8c84146102cb576100d7565b8063025e7c27146100dc57806309b95b7c146101195780631d43b653146101565780633411c81c1461017f578063784547a7146101bc576100d7565b366100d7577fddf252ad1be2c89b69c2b068fc378daa952ba7f163c4a11628f55a4df523b3ef3330346040516100cd93929190610bac565b60405180910390a1005b600080fd5b3480156100e857600080fd5b5061010360048036038101906100fe9190610c14565b6102f4565b6040516101109190610c41565b60405180910390f35b34801561012557600080fd5b50610140600480360381019061013b9190610c88565b610333565b60405161014d9190610cd0565b60405180910390f35b34801561016257600080fd5b5061017d60048036038101906101789190610ceb565b610353565b005b34801561018b57600080fd5b506101a660048036038101906101a19190610d2b565b610449565b6040516101b39190610cd0565b60405180910390f35b3480156101c857600080fd5b506101e360048036038101906101de9190610c14565b610478565b6040516101f09190610cd0565b60405180910390f35b34801561020557600080fd5b5061020e610495565b60405161021b9190610d6b565b60405180910390f35b34801561023057600080fd5b5061024b60048036038101906102469190610c14565b61049b565b60405161025a93929190610d86565b60405180910390f35b34801561026f57600080fd5b506102786104f2565b6040516102859190610d6b565b60405180910390f35b34801561029a57600080fd5b506102b560048036038101906102b09190610c14565b6104f8565b6040516102c29190610d6b565b60405180910390f35b3480156102d757600080fd5b506102f260048036038101906102ed9190610c14565b610515565b005b6000818154811061030457600080fd5b906000526020600020016000915054906101000a900473ffffffffffffffffffffffffffffffffffffffff1681565b60066020528060005260406000206000915054906101000a900460ff1681565b600080600090505b6000805490508110156103f1576000818154811061037c5761037b610dbd565b5b9060005260206000200160009054906101000a900473ffffffffffffffffffffffffffffffffffffffff1673ffffffffffffffffffffffffffffffffffffffff163373ffffffffffffffffffffffffffffffffffffffff16036103de57600191505b80806103e990610e1b565b91505061035b565b5080610432576040517f08c379a000000000000000000000000000000000000000000000000000000000815260040161042990610ec0565b60405180910390fd5b61044461043f8484610787565b610515565b505050565b60036020528160005260406000206020528060005260406000206000915091509054906101000a900460ff1681565b6000600154610486836104f8565b1061049057600190505b919050565b60015481565b60046020528060005260406000206000915090508060000160009054906101000a900473ffffffffffffffffffffffffffffffffffffffff16908060010154908060020160009054906101000a900460ff16905083565b60025481565b600060056000838152602001908152602001600020549050919050565b600080600090505b6000805490508110156105b3576000818154811061053e5761053d610dbd565b5b9060005260206000200160009054906101000a900473ffffffffffffffffffffffffffffffffffffffff1673ffffffffffffffffffffffffffffffffffffffff163373ffffffffffffffffffffffffffffffffffffffff16036105a057600191505b80806105ab90610e1b565b91505061051d565b50806105f4576040517f08c379a00000000000000000000000000000000000000000000000000000000081526004016105eb90610ec0565b60405180910390fd5b600660003373ffffffffffffffffffffffffffffffffffffffff1673ffffffffffffffffffffffffffffffffffffffff16815260200190815260200160002060009054906101000a900460ff1615610681576040517f08c379a000000000000000000000000000000000000000000000000000000000815260040161067890610f52565b60405180910390fd5b6001600660003373ffffffffffffffffffffffffffffffffffffffff1673ffffffffffffffffffffffffffffffffffffffff16815260200190815260200160002060006101000a81548160ff02191690831515021790555060016003600084815260200190815260200160002060003373ffffffffffffffffffffffffffffffffffffffff1673ffffffffffffffffffffffffffffffffffffffff16815260200190815260200160002060006101000a81548160ff02191690831515021790555060056000838152602001908152602001600020600081548092919061076690610e1b565b919050555061077482610478565b156107835761078282610867565b5b5050565b6000600254905060405180606001604052808473ffffffffffffffffffffffffffffffffffffffff168152602001838152602001600015158152506004600083815260200190815260200160002060008201518160000160006101000a81548173ffffffffffffffffffffffffffffffffffffffff021916908373ffffffffffffffffffffffffffffffffffffffff1602179055506020820151816001015560408201518160020160006101000a81548160ff0219169083151502179055509050506002600081548092919061085c90610e1b565b919050555092915050565b61087081610478565b6108af576040517f08c379a00000000000000000000000000000000000000000000000000000000081526004016108a690610fe4565b60405180910390fd5b60006004600083815260200190815260200160002060000160009054906101000a900473ffffffffffffffffffffffffffffffffffffffff169050600073ffffffffffffffffffffffffffffffffffffffff168173ffffffffffffffffffffffffffffffffffffffff1603610959576040517f08c379a000000000000000000000000000000000000000000000000000000000815260040161095090611076565b60405180910390fd5b60046000838152602001908152602001600020600101544710156109b2576040517f08c379a00000000000000000000000000000000000000000000000000000000081526004016109a99061112e565b60405180910390fd5b6000600460008481526020019081526020016000206001015403610a0b576040517f08c379a0000000000000000000000000000000000000000000000000000000008152600401610a02906111c0565b60405180910390fd5b60008173ffffffffffffffffffffffffffffffffffffffff166004600085815260200190815260200160002060010154604051610a4790611211565b60006040518083038185875af1925050503d8060008114610a84576040519150601f19603f3d011682016040523d82523d6000602084013e610a89565b606091505b5050905080610acd576040517f08c379a0000000000000000000000000000000000000000000000000000000008152600401610ac4906112be565b60405180910390fd5b60016004600085815260200190815260200160002060020160006101000a81548160ff0219169083151502179055507fddf252ad1be2c89b69c2b068fc378daa952ba7f163c4a11628f55a4df523b3ef30836004600087815260200190815260200160002060010154604051610b4593929190610bac565b60405180910390a1505050565b600073ffffffffffffffffffffffffffffffffffffffff82169050919050565b6000610b7d82610b52565b9050919050565b610b8d81610b72565b82525050565b6000819050919050565b610ba681610b93565b82525050565b6000606082019050610bc16000830186610b84565b610bce6020830185610b84565b610bdb6040830184610b9d565b949350505050565b600080fd5b610bf181610b93565b8114610bfc57600080fd5b50565b600081359050610c0e81610be8565b92915050565b600060208284031215610c2a57610c29610be3565b5b6000610c3884828501610bff565b91505092915050565b6000602082019050610c566000830184610b84565b92915050565b610c6581610b72565b8114610c7057600080fd5b50565b600081359050610c8281610c5c565b92915050565b600060208284031215610c9e57610c9d610be3565b5b6000610cac84828501610c73565b91505092915050565b60008115159050919050565b610cca81610cb5565b82525050565b6000602082019050610ce56000830184610cc1565b92915050565b60008060408385031215610d0257610d01610be3565b5b6000610d1085828601610c73565b9250506020610d2185828601610bff565b9150509250929050565b60008060408385031215610d4257610d41610be3565b5b6000610d5085828601610bff565b9250506020610d6185828601610c73565b9150509250929050565b6000602082019050610d806000830184610b9d565b92915050565b6000606082019050610d9b6000830186610b84565b610da86020830185610b9d565b610db56040830184610cc1565b949350505050565b7f4e487b7100000000000000000000000000000000000000000000000000000000600052603260045260246000fd5b7f4e487b7100000000000000000000000000000000000000000000000000000000600052601160045260246000fd5b6000610e2682610b93565b91507fffffffffffffffffffffffffffffffffffffffffffffffffffffffffffffffff8203610e5857610e57610dec565b5b600182019050919050565b600082825260208201905092915050565b7f596f7520617265206e6f7420616e20617574686f7269736564204f776e657221600082015250565b6000610eaa602083610e63565b9150610eb582610e74565b602082019050919050565b60006020820190508181036000830152610ed981610e9d565b9050919050565b7f596f7520617265206e6f7420616c6c6f77656420746f20646f75626c6520636f60008201527f6e6669726d2061207472616e73616374696f6e21000000000000000000000000602082015250565b6000610f3c603483610e63565b9150610f4782610ee0565b604082019050919050565b60006020820190508181036000830152610f6b81610f2f565b9050919050565b7f5472616e73616374696f6e206973206e6f7420636f6e6669726d65642079657460008201527f2100000000000000000000000000000000000000000000000000000000000000602082015250565b6000610fce602183610e63565b9150610fd982610f72565b604082019050919050565b60006020820190508181036000830152610ffd81610fc1565b9050919050565b7f64657374696e6174696f6e20616464726573732068617320746f206265206e6f60008201527f6e2d7a65726f2100000000000000000000000000000000000000000000000000602082015250565b6000611060602783610e63565b915061106b82611004565b604082019050919050565b6000602082019050818103600083015261108f81611053565b9050919050565b7f496e73756666696369656e742066756e647320696e207468652077616c6c657460008201527f20746f207472616e736665722074686520726571756972656420616d6f756e7460208201527f2100000000000000000000000000000000000000000000000000000000000000604082015250565b6000611118604183610e63565b915061112382611096565b606082019050919050565b600060208201905081810360008301526111478161110b565b9050919050565b7f616d6f756e7420746f207472616e736665722068617320746f206265206e6f6e60008201527f2d7a65726f210000000000000000000000000000000000000000000000000000602082015250565b60006111aa602683610e63565b91506111b58261114e565b604082019050919050565b600060208201905081810360008301526111d98161119d565b9050919050565b600081905092915050565b50565b60006111fb6000836111e0565b9150611206826111eb565b600082019050919050565b600061121c826111ee565b9150819050919050565b7f4661696c656420746f2065786563757465207472616e73616374696f6e20647560008201527f6520746f20696e76616c6964207472616e736665722064657461696c732f696e60208201527f73756666696369656e742066756e647320696e207468652077616c6c65742100604082015250565b60006112a8605f83610e63565b91506112b382611226565b606082019050919050565b600060208201905081810360008301526112d78161129b565b905091905056fea2646970667358221220ecef5fb719579b1ae62382ec14f319f0b36aab5a5e32f67b7663083cea03c2c164736f6c63430008110033","opcodes":"PUSH1 0x80 PUSH1 0x40 MSTORE CALLVALUE DUP1 ISZERO PUSH3 0x11 JUMPI PUSH1 0x0 DUP1 REVERT JUMPDEST POP PUSH1 0x40 MLOAD PUSH3 0x1993 CODESIZE SUB DUP1 PUSH3 0x1993 DUP4 CODECOPY DUP2 DUP2 ADD PUSH1 0x40 MSTORE DUP2 ADD SWAP1 PUSH3 0x37 SWAP2 SWAP1 PUSH3 0x40A JUMP JUMPDEST PUSH1 0x0 DUP3 MLOAD GT PUSH3 0x7E JUMPI PUSH1 0x40 MLOAD PUSH32 0x8C379A000000000000000000000000000000000000000000000000000000000 DUP2 MSTORE PUSH1 0x4 ADD PUSH3 0x75 SWAP1 PUSH3 0x4F7 JUMP JUMPDEST PUSH1 0x40 MLOAD DUP1 SWAP2 SUB SWAP1 REVERT JUMPDEST PUSH1 0x0 DUP2 GT PUSH3 0xC4 JUMPI PUSH1 0x40 MLOAD PUSH32 0x8C379A000000000000000000000000000000000000000000000000000000000 DUP2 MSTORE PUSH1 0x4 ADD PUSH3 0xBB SWAP1 PUSH3 0x58F JUMP JUMPDEST PUSH1 0x40 MLOAD DUP1 SWAP2 SUB SWAP1 REVERT JUMPDEST DUP2 MLOAD DUP2 GT ISZERO PUSH3 0x10B JUMPI PUSH1 0x40 MLOAD PUSH32 0x8C379A000000000000000000000000000000000000000000000000000000000 DUP2 MSTORE PUSH1 0x4 ADD PUSH3 0x102 SWAP1 PUSH3 0x64D JUMP JUMPDEST PUSH1 0x40 MLOAD DUP1 SWAP2 SUB SWAP1 REVERT JUMPDEST DUP2 PUSH1 0x0 SWAP1 DUP1 MLOAD SWAP1 PUSH1 0x20 ADD SWAP1 PUSH3 0x123 SWAP3 SWAP2 SWAP1 PUSH3 0x133 JUMP JUMPDEST POP DUP1 PUSH1 0x1 DUP2 SWAP1 SSTORE POP POP POP PUSH3 0x66F JUMP JUMPDEST DUP3 DUP1 SLOAD DUP3 DUP3 SSTORE SWAP1 PUSH1 0x0 MSTORE PUSH1 0x20 PUSH1 0x0 KECCAK256 SWAP1 DUP2 ADD SWAP3 DUP3 ISZERO PUSH3 0x1AF JUMPI SWAP2 PUSH1 0x20 MUL DUP3 ADD JUMPDEST DUP3 DUP2 GT ISZERO PUSH3 0x1AE JUMPI DUP3 MLOAD DUP3 PUSH1 0x0 PUSH2 0x100 EXP DUP2 SLOAD DUP2 PUSH20 0xFFFFFFFFFFFFFFFFFFFFFFFFFFFFFFFFFFFFFFFF MUL NOT AND SWAP1 DUP4 PUSH20 0xFFFFFFFFFFFFFFFFFFFFFFFFFFFFFFFFFFFFFFFF AND MUL OR SWAP1 SSTORE POP SWAP2 PUSH1 0x20 ADD SWAP2 SWAP1 PUSH1 0x1 ADD SWAP1 PUSH3 0x154 JUMP JUMPDEST JUMPDEST POP SWAP1 POP PUSH3 0x1BE SWAP2 SWAP1 PUSH3 0x1C2 JUMP JUMPDEST POP SWAP1 JUMP JUMPDEST JUMPDEST DUP1 DUP3 GT ISZERO PUSH3 0x1DD JUMPI PUSH1 0x0 DUP2 PUSH1 0x0 SWAP1 SSTORE POP PUSH1 0x1 ADD PUSH3 0x1C3 JUMP JUMPDEST POP SWAP1 JUMP JUMPDEST PUSH1 0x0 PUSH1 0x40 MLOAD SWAP1 POP SWAP1 JUMP JUMPDEST PUSH1 0x0 DUP1 REVERT JUMPDEST PUSH1 0x0 DUP1 REVERT JUMPDEST PUSH1 0x0 DUP1 REVERT JUMPDEST PUSH1 0x0 PUSH1 0x1F NOT PUSH1 0x1F DUP4 ADD AND SWAP1 POP SWAP2 SWAP1 POP JUMP JUMPDEST PUSH32 0x4E487B7100000000000000000000000000000000000000000000000000000000 PUSH1 0x0 MSTORE PUSH1 0x41 PUSH1 0x4 MSTORE PUSH1 0x24 PUSH1 0x0 REVERT JUMPDEST PUSH3 0x245 DUP3 PUSH3 0x1FA JUMP JUMPDEST DUP2 ADD DUP2 DUP2 LT PUSH8 0xFFFFFFFFFFFFFFFF DUP3 GT OR ISZERO PUSH3 0x267 JUMPI PUSH3 0x266 PUSH3 0x20B JUMP JUMPDEST JUMPDEST DUP1 PUSH1 0x40 MSTORE POP POP POP JUMP JUMPDEST PUSH1 0x0 PUSH3 0x27C PUSH3 0x1E1 JUMP JUMPDEST SWAP1 POP PUSH3 0x28A DUP3 DUP3 PUSH3 0x23A JUMP JUMPDEST SWAP2 SWAP1 POP JUMP JUMPDEST PUSH1 0x0 PUSH8 0xFFFFFFFFFFFFFFFF DUP3 GT ISZERO PUSH3 0x2AD JUMPI PUSH3 0x2AC PUSH3 0x20B JUMP JUMPDEST JUMPDEST PUSH1 0x20 DUP3 MUL SWAP1 POP PUSH1 0x20 DUP2 ADD SWAP1 POP SWAP2 SWAP1 POP JUMP JUMPDEST PUSH1 0x0 DUP1 REVERT JUMPDEST PUSH1 0x0 PUSH20 0xFFFFFFFFFFFFFFFFFFFFFFFFFFFFFFFFFFFFFFFF DUP3 AND SWAP1 POP SWAP2 SWAP1 POP JUMP JUMPDEST PUSH1 0x0 PUSH3 0x2F0 DUP3 PUSH3 0x2C3 JUMP JUMPDEST SWAP1 POP SWAP2 SWAP1 POP JUMP JUMPDEST PUSH3 0x302 DUP2 PUSH3 0x2E3 JUMP JUMPDEST DUP2 EQ PUSH3 0x30E JUMPI PUSH1 0x0 DUP1 REVERT JUMPDEST POP JUMP JUMPDEST PUSH1 0x0 DUP2 MLOAD SWAP1 POP PUSH3 0x322 DUP2 PUSH3 0x2F7 JUMP JUMPDEST SWAP3 SWAP2 POP POP JUMP JUMPDEST PUSH1 0x0 PUSH3 0x33F PUSH3 0x339 DUP5 PUSH3 0x28F JUMP JUMPDEST PUSH3 0x270 JUMP JUMPDEST SWAP1 POP DUP1 DUP4 DUP3 MSTORE PUSH1 0x20 DUP3 ADD SWAP1 POP PUSH1 0x20 DUP5 MUL DUP4 ADD DUP6 DUP2 GT ISZERO PUSH3 0x365 JUMPI PUSH3 0x364 PUSH3 0x2BE JUMP JUMPDEST JUMPDEST DUP4 JUMPDEST DUP2 DUP2 LT ISZERO PUSH3 0x392 JUMPI DUP1 PUSH3 0x37D DUP9 DUP3 PUSH3 0x311 JUMP JUMPDEST DUP5 MSTORE PUSH1 0x20 DUP5 ADD SWAP4 POP POP PUSH1 0x20 DUP2 ADD SWAP1 POP PUSH3 0x367 JUMP JUMPDEST POP POP POP SWAP4 SWAP3 POP POP POP JUMP JUMPDEST PUSH1 0x0 DUP3 PUSH1 0x1F DUP4 ADD SLT PUSH3 0x3B4 JUMPI PUSH3 0x3B3 PUSH3 0x1F5 JUMP JUMPDEST JUMPDEST DUP2 MLOAD PUSH3 0x3C6 DUP5 DUP3 PUSH1 0x20 DUP7 ADD PUSH3 0x328 JUMP JUMPDEST SWAP2 POP POP SWAP3 SWAP2 POP POP JUMP JUMPDEST PUSH1 0x0 DUP2 SWAP1 POP SWAP2 SWAP1 POP JUMP JUMPDEST PUSH3 0x3E4 DUP2 PUSH3 0x3CF JUMP JUMPDEST DUP2 EQ PUSH3 0x3F0 JUMPI PUSH1 0x0 DUP1 REVERT JUMPDEST POP JUMP JUMPDEST PUSH1 0x0 DUP2 MLOAD SWAP1 POP PUSH3 0x404 DUP2 PUSH3 0x3D9 JUMP JUMPDEST SWAP3 SWAP2 POP POP JUMP JUMPDEST PUSH1 0x0 DUP1 PUSH1 0x40 DUP4 DUP6 SUB SLT ISZERO PUSH3 0x424 JUMPI PUSH3 0x423 PUSH3 0x1EB JUMP JUMPDEST JUMPDEST PUSH1 0x0 DUP4 ADD MLOAD PUSH8 0xFFFFFFFFFFFFFFFF DUP2 GT ISZERO PUSH3 0x445 JUMPI PUSH3 0x444 PUSH3 0x1F0 JUMP JUMPDEST JUMPDEST PUSH3 0x453 DUP6 DUP3 DUP7 ADD PUSH3 0x39C JUMP JUMPDEST SWAP3 POP POP PUSH1 0x20 PUSH3 0x466 DUP6 DUP3 DUP7 ADD PUSH3 0x3F3 JUMP JUMPDEST SWAP2 POP POP SWAP3 POP SWAP3 SWAP1 POP JUMP JUMPDEST PUSH1 0x0 DUP3 DUP3 MSTORE PUSH1 0x20 DUP3 ADD SWAP1 POP SWAP3 SWAP2 POP POP JUMP JUMPDEST PUSH32 0x4174206C65617374206F6E65206F776E65722068617320746F20626520737065 PUSH1 0x0 DUP3 ADD MSTORE PUSH32 0x6369666965642100000000000000000000000000000000000000000000000000 PUSH1 0x20 DUP3 ADD MSTORE POP JUMP JUMPDEST PUSH1 0x0 PUSH3 0x4DF PUSH1 0x27 DUP4 PUSH3 0x470 JUMP JUMPDEST SWAP2 POP PUSH3 0x4EC DUP3 PUSH3 0x481 JUMP JUMPDEST PUSH1 0x40 DUP3 ADD SWAP1 POP SWAP2 SWAP1 POP JUMP JUMPDEST PUSH1 0x0 PUSH1 0x20 DUP3 ADD SWAP1 POP DUP2 DUP2 SUB PUSH1 0x0 DUP4 ADD MSTORE PUSH3 0x512 DUP2 PUSH3 0x4D0 JUMP JUMPDEST SWAP1 POP SWAP2 SWAP1 POP JUMP JUMPDEST PUSH32 0x4E6F2E206F66207369676E74757265732072657175697265642073686F756C64 PUSH1 0x0 DUP3 ADD MSTORE PUSH32 0x206265206E6F6E2D7A65726F0000000000000000000000000000000000000000 PUSH1 0x20 DUP3 ADD MSTORE POP JUMP JUMPDEST PUSH1 0x0 PUSH3 0x577 PUSH1 0x2C DUP4 PUSH3 0x470 JUMP JUMPDEST SWAP2 POP PUSH3 0x584 DUP3 PUSH3 0x519 JUMP JUMPDEST PUSH1 0x40 DUP3 ADD SWAP1 POP SWAP2 SWAP1 POP JUMP JUMPDEST PUSH1 0x0 PUSH1 0x20 DUP3 ADD SWAP1 POP DUP2 DUP2 SUB PUSH1 0x0 DUP4 ADD MSTORE PUSH3 0x5AA DUP2 PUSH3 0x568 JUMP JUMPDEST SWAP1 POP SWAP2 SWAP1 POP JUMP JUMPDEST PUSH32 0x4E6F2E206F66207369676E6174757265732072657175697265642073686F756C PUSH1 0x0 DUP3 ADD MSTORE PUSH32 0x64206E6F74206265206D6F7265207468616E20746865206E6F2E206F66204F77 PUSH1 0x20 DUP3 ADD MSTORE PUSH32 0x6E65727321000000000000000000000000000000000000000000000000000000 PUSH1 0x40 DUP3 ADD MSTORE POP JUMP JUMPDEST PUSH1 0x0 PUSH3 0x635 PUSH1 0x45 DUP4 PUSH3 0x470 JUMP JUMPDEST SWAP2 POP PUSH3 0x642 DUP3 PUSH3 0x5B1 JUMP JUMPDEST PUSH1 0x60 DUP3 ADD SWAP1 POP SWAP2 SWAP1 POP JUMP JUMPDEST PUSH1 0x0 PUSH1 0x20 DUP3 ADD SWAP1 POP DUP2 DUP2 SUB PUSH1 0x0 DUP4 ADD MSTORE PUSH3 0x668 DUP2 PUSH3 0x626 JUMP JUMPDEST SWAP1 POP SWAP2 SWAP1 POP JUMP JUMPDEST PUSH2 0x1314 DUP1 PUSH3 0x67F PUSH1 0x0 CODECOPY PUSH1 0x0 RETURN INVALID PUSH1 0x80 PUSH1 0x40 MSTORE PUSH1 0x4 CALLDATASIZE LT PUSH2 0x95 JUMPI PUSH1 0x0 CALLDATALOAD PUSH1 0xE0 SHR DUP1 PUSH4 0x7BAEF2F5 GT PUSH2 0x59 JUMPI DUP1 PUSH4 0x7BAEF2F5 EQ PUSH2 0x1F9 JUMPI DUP1 PUSH4 0x9ACE38C2 EQ PUSH2 0x224 JUMPI DUP1 PUSH4 0xB77BF600 EQ PUSH2 0x263 JUMPI DUP1 PUSH4 0xBCE800E5 EQ PUSH2 0x28E JUMPI DUP1 PUSH4 0xC01A8C84 EQ PUSH2 0x2CB JUMPI PUSH2 0xD7 JUMP JUMPDEST DUP1 PUSH4 0x25E7C27 EQ PUSH2 0xDC JUMPI DUP1 PUSH4 0x9B95B7C EQ PUSH2 0x119 JUMPI DUP1 PUSH4 0x1D43B653 EQ PUSH2 0x156 JUMPI DUP1 PUSH4 0x3411C81C EQ PUSH2 0x17F JUMPI DUP1 PUSH4 0x784547A7 EQ PUSH2 0x1BC JUMPI PUSH2 0xD7 JUMP JUMPDEST CALLDATASIZE PUSH2 0xD7 JUMPI PUSH32 0xDDF252AD1BE2C89B69C2B068FC378DAA952BA7F163C4A11628F55A4DF523B3EF CALLER ADDRESS CALLVALUE PUSH1 0x40 MLOAD PUSH2 0xCD SWAP4 SWAP3 SWAP2 SWAP1 PUSH2 0xBAC JUMP JUMPDEST PUSH1 0x40 MLOAD DUP1 SWAP2 SUB SWAP1 LOG1 STOP JUMPDEST PUSH1 0x0 DUP1 REVERT JUMPDEST CALLVALUE DUP1 ISZERO PUSH2 0xE8 JUMPI PUSH1 0x0 DUP1 REVERT JUMPDEST POP PUSH2 0x103 PUSH1 0x4 DUP1 CALLDATASIZE SUB DUP2 ADD SWAP1 PUSH2 0xFE SWAP2 SWAP1 PUSH2 0xC14 JUMP JUMPDEST PUSH2 0x2F4 JUMP JUMPDEST PUSH1 0x40 MLOAD PUSH2 0x110 SWAP2 SWAP1 PUSH2 0xC41 JUMP JUMPDEST PUSH1 0x40 MLOAD DUP1 SWAP2 SUB SWAP1 RETURN JUMPDEST CALLVALUE DUP1 ISZERO PUSH2 0x125 JUMPI PUSH1 0x0 DUP1 REVERT JUMPDEST POP PUSH2 0x140 PUSH1 0x4 DUP1 CALLDATASIZE SUB DUP2 ADD SWAP1 PUSH2 0x13B SWAP2 SWAP1 PUSH2 0xC88 JUMP JUMPDEST PUSH2 0x333 JUMP JUMPDEST PUSH1 0x40 MLOAD PUSH2 0x14D SWAP2 SWAP1 PUSH2 0xCD0 JUMP JUMPDEST PUSH1 0x40 MLOAD DUP1 SWAP2 SUB SWAP1 RETURN JUMPDEST CALLVALUE DUP1 ISZERO PUSH2 0x162 JUMPI PUSH1 0x0 DUP1 REVERT JUMPDEST POP PUSH2 0x17D PUSH1 0x4 DUP1 CALLDATASIZE SUB DUP2 ADD SWAP1 PUSH2 0x178 SWAP2 SWAP1 PUSH2 0xCEB JUMP JUMPDEST PUSH2 0x353 JUMP JUMPDEST STOP JUMPDEST CALLVALUE DUP1 ISZERO PUSH2 0x18B JUMPI PUSH1 0x0 DUP1 REVERT JUMPDEST POP PUSH2 0x1A6 PUSH1 0x4 DUP1 CALLDATASIZE SUB DUP2 ADD SWAP1 PUSH2 0x1A1 SWAP2 SWAP1 PUSH2 0xD2B JUMP JUMPDEST PUSH2 0x449 JUMP JUMPDEST PUSH1 0x40 MLOAD PUSH2 0x1B3 SWAP2 SWAP1 PUSH2 0xCD0 JUMP JUMPDEST PUSH1 0x40 MLOAD DUP1 SWAP2 SUB SWAP1 RETURN JUMPDEST CALLVALUE DUP1 ISZERO PUSH2 0x1C8 JUMPI PUSH1 0x0 DUP1 REVERT JUMPDEST POP PUSH2 0x1E3 PUSH1 0x4 DUP1 CALLDATASIZE SUB DUP2 ADD SWAP1 PUSH2 0x1DE SWAP2 SWAP1 PUSH2 0xC14 JUMP JUMPDEST PUSH2 0x478 JUMP JUMPDEST PUSH1 0x40 MLOAD PUSH2 0x1F0 SWAP2 SWAP1 PUSH2 0xCD0 JUMP JUMPDEST PUSH1 0x40 MLOAD DUP1 SWAP2 SUB SWAP1 RETURN JUMPDEST CALLVALUE DUP1 ISZERO PUSH2 0x205 JUMPI PUSH1 0x0 DUP1 REVERT JUMPDEST POP PUSH2 0x20E PUSH2 0x495 JUMP JUMPDEST PUSH1 0x40 MLOAD PUSH2 0x21B SWAP2 SWAP1 PUSH2 0xD6B JUMP JUMPDEST PUSH1 0x40 MLOAD DUP1 SWAP2 SUB SWAP1 RETURN JUMPDEST CALLVALUE DUP1 ISZERO PUSH2 0x230 JUMPI PUSH1 0x0 DUP1 REVERT JUMPDEST POP PUSH2 0x24B PUSH1 0x4 DUP1 CALLDATASIZE SUB DUP2 ADD SWAP1 PUSH2 0x246 SWAP2 SWAP1 PUSH2 0xC14 JUMP JUMPDEST PUSH2 0x49B JUMP JUMPDEST PUSH1 0x40 MLOAD PUSH2 0x25A SWAP4 SWAP3 SWAP2 SWAP1 PUSH2 0xD86 JUMP JUMPDEST PUSH1 0x40 MLOAD DUP1 SWAP2 SUB SWAP1 RETURN JUMPDEST CALLVALUE DUP1 ISZERO PUSH2 0x26F JUMPI PUSH1 0x0 DUP1 REVERT JUMPDEST POP PUSH2 0x278 PUSH2 0x4F2 JUMP JUMPDEST PUSH1 0x40 MLOAD PUSH2 0x285 SWAP2 SWAP1 PUSH2 0xD6B JUMP JUMPDEST PUSH1 0x40 MLOAD DUP1 SWAP2 SUB SWAP1 RETURN JUMPDEST CALLVALUE DUP1 ISZERO PUSH2 0x29A JUMPI PUSH1 0x0 DUP1 REVERT JUMPDEST POP PUSH2 0x2B5 PUSH1 0x4 DUP1 CALLDATASIZE SUB DUP2 ADD SWAP1 PUSH2 0x2B0 SWAP2 SWAP1 PUSH2 0xC14 JUMP JUMPDEST PUSH2 0x4F8 JUMP JUMPDEST PUSH1 0x40 MLOAD PUSH2 0x2C2 SWAP2 SWAP1 PUSH2 0xD6B JUMP JUMPDEST PUSH1 0x40 MLOAD DUP1 SWAP2 SUB SWAP1 RETURN JUMPDEST CALLVALUE DUP1 ISZERO PUSH2 0x2D7 JUMPI PUSH1 0x0 DUP1 REVERT JUMPDEST POP PUSH2 0x2F2 PUSH1 0x4 DUP1 CALLDATASIZE SUB DUP2 ADD SWAP1 PUSH2 0x2ED SWAP2 SWAP1 PUSH2 0xC14 JUMP JUMPDEST PUSH2 0x515 JUMP JUMPDEST STOP JUMPDEST PUSH1 0x0 DUP2 DUP2 SLOAD DUP2 LT PUSH2 0x304 JUMPI PUSH1 0x0 DUP1 REVERT JUMPDEST SWAP1 PUSH1 0x0 MSTORE PUSH1 0x20 PUSH1 0x0 KECCAK256 ADD PUSH1 0x0 SWAP2 POP SLOAD SWAP1 PUSH2 0x100 EXP SWAP1 DIV PUSH20 0xFFFFFFFFFFFFFFFFFFFFFFFFFFFFFFFFFFFFFFFF AND DUP2 JUMP JUMPDEST PUSH1 0x6 PUSH1 0x20 MSTORE DUP1 PUSH1 0x0 MSTORE PUSH1 0x40 PUSH1 0x0 KECCAK256 PUSH1 0x0 SWAP2 POP SLOAD SWAP1 PUSH2 0x100 EXP SWAP1 DIV PUSH1 0xFF AND DUP2 JUMP JUMPDEST PUSH1 0x0 DUP1 PUSH1 0x0 SWAP1 POP JUMPDEST PUSH1 0x0 DUP1 SLOAD SWAP1 POP DUP2 LT ISZERO PUSH2 0x3F1 JUMPI PUSH1 0x0 DUP2 DUP2 SLOAD DUP2 LT PUSH2 0x37C JUMPI PUSH2 0x37B PUSH2 0xDBD JUMP JUMPDEST JUMPDEST SWAP1 PUSH1 0x0 MSTORE PUSH1 0x20 PUSH1 0x0 KECCAK256 ADD PUSH1 0x0 SWAP1 SLOAD SWAP1 PUSH2 0x100 EXP SWAP1 DIV PUSH20 0xFFFFFFFFFFFFFFFFFFFFFFFFFFFFFFFFFFFFFFFF AND PUSH20 0xFFFFFFFFFFFFFFFFFFFFFFFFFFFFFFFFFFFFFFFF AND CALLER PUSH20 0xFFFFFFFFFFFFFFFFFFFFFFFFFFFFFFFFFFFFFFFF AND SUB PUSH2 0x3DE JUMPI PUSH1 0x1 SWAP2 POP JUMPDEST DUP1 DUP1 PUSH2 0x3E9 SWAP1 PUSH2 0xE1B JUMP JUMPDEST SWAP2 POP POP PUSH2 0x35B JUMP JUMPDEST POP DUP1 PUSH2 0x432 JUMPI PUSH1 0x40 MLOAD PUSH32 0x8C379A000000000000000000000000000000000000000000000000000000000 DUP2 MSTORE PUSH1 0x4 ADD PUSH2 0x429 SWAP1 PUSH2 0xEC0 JUMP JUMPDEST PUSH1 0x40 MLOAD DUP1 SWAP2 SUB SWAP1 REVERT JUMPDEST PUSH2 0x444 PUSH2 0x43F DUP5 DUP5 PUSH2 0x787 JUMP JUMPDEST PUSH2 0x515 JUMP JUMPDEST POP POP POP JUMP JUMPDEST PUSH1 0x3 PUSH1 0x20 MSTORE DUP2 PUSH1 0x0 MSTORE PUSH1 0x40 PUSH1 0x0 KECCAK256 PUSH1 0x20 MSTORE DUP1 PUSH1 0x0 MSTORE PUSH1 0x40 PUSH1 0x0 KECCAK256 PUSH1 0x0 SWAP2 POP SWAP2 POP SWAP1 SLOAD SWAP1 PUSH2 0x100 EXP SWAP1 DIV PUSH1 0xFF AND DUP2 JUMP JUMPDEST PUSH1 0x0 PUSH1 0x1 SLOAD PUSH2 0x486 DUP4 PUSH2 0x4F8 JUMP JUMPDEST LT PUSH2 0x490 JUMPI PUSH1 0x1 SWAP1 POP JUMPDEST SWAP2 SWAP1 POP JUMP JUMPDEST PUSH1 0x1 SLOAD DUP2 JUMP JUMPDEST PUSH1 0x4 PUSH1 0x20 MSTORE DUP1 PUSH1 0x0 MSTORE PUSH1 0x40 PUSH1 0x0 KECCAK256 PUSH1 0x0 SWAP2 POP SWAP1 POP DUP1 PUSH1 0x0 ADD PUSH1 0x0 SWAP1 SLOAD SWAP1 PUSH2 0x100 EXP SWAP1 DIV PUSH20 0xFFFFFFFFFFFFFFFFFFFFFFFFFFFFFFFFFFFFFFFF AND SWAP1 DUP1 PUSH1 0x1 ADD SLOAD SWAP1 DUP1 PUSH1 0x2 ADD PUSH1 0x0 SWAP1 SLOAD SWAP1 PUSH2 0x100 EXP SWAP1 DIV PUSH1 0xFF AND SWAP1 POP DUP4 JUMP JUMPDEST PUSH1 0x2 SLOAD DUP2 JUMP JUMPDEST PUSH1 0x0 PUSH1 0x5 PUSH1 0x0 DUP4 DUP2 MSTORE PUSH1 0x20 ADD SWAP1 DUP2 MSTORE PUSH1 0x20 ADD PUSH1 0x0 KECCAK256 SLOAD SWAP1 POP SWAP2 SWAP1 POP JUMP JUMPDEST PUSH1 0x0 DUP1 PUSH1 0x0 SWAP1 POP JUMPDEST PUSH1 0x0 DUP1 SLOAD SWAP1 POP DUP2 LT ISZERO PUSH2 0x5B3 JUMPI PUSH1 0x0 DUP2 DUP2 SLOAD DUP2 LT PUSH2 0x53E JUMPI PUSH2 0x53D PUSH2 0xDBD JUMP JUMPDEST JUMPDEST SWAP1 PUSH1 0x0 MSTORE PUSH1 0x20 PUSH1 0x0 KECCAK256 ADD PUSH1 0x0 SWAP1 SLOAD SWAP1 PUSH2 0x100 EXP SWAP1 DIV PUSH20 0xFFFFFFFFFFFFFFFFFFFFFFFFFFFFFFFFFFFFFFFF AND PUSH20 0xFFFFFFFFFFFFFFFFFFFFFFFFFFFFFFFFFFFFFFFF AND CALLER PUSH20 0xFFFFFFFFFFFFFFFFFFFFFFFFFFFFFFFFFFFFFFFF AND SUB PUSH2 0x5A0 JUMPI PUSH1 0x1 SWAP2 POP JUMPDEST DUP1 DUP1 PUSH2 0x5AB SWAP1 PUSH2 0xE1B JUMP JUMPDEST SWAP2 POP POP PUSH2 0x51D JUMP JUMPDEST POP DUP1 PUSH2 0x5F4 JUMPI PUSH1 0x40 MLOAD PUSH32 0x8C379A000000000000000000000000000000000000000000000000000000000 DUP2 MSTORE PUSH1 0x4 ADD PUSH2 0x5EB SWAP1 PUSH2 0xEC0 JUMP JUMPDEST PUSH1 0x40 MLOAD DUP1 SWAP2 SUB SWAP1 REVERT JUMPDEST PUSH1 0x6 PUSH1 0x0 CALLER PUSH20 0xFFFFFFFFFFFFFFFFFFFFFFFFFFFFFFFFFFFFFFFF AND PUSH20 0xFFFFFFFFFFFFFFFFFFFFFFFFFFFFFFFFFFFFFFFF AND DUP2 MSTORE PUSH1 0x20 ADD SWAP1 DUP2 MSTORE PUSH1 0x20 ADD PUSH1 0x0 KECCAK256 PUSH1 0x0 SWAP1 SLOAD SWAP1 PUSH2 0x100 EXP SWAP1 DIV PUSH1 0xFF AND ISZERO PUSH2 0x681 JUMPI PUSH1 0x40 MLOAD PUSH32 0x8C379A000000000000000000000000000000000000000000000000000000000 DUP2 MSTORE PUSH1 0x4 ADD PUSH2 0x678 SWAP1 PUSH2 0xF52 JUMP JUMPDEST PUSH1 0x40 MLOAD DUP1 SWAP2 SUB SWAP1 REVERT JUMPDEST PUSH1 0x1 PUSH1 0x6 PUSH1 0x0 CALLER PUSH20 0xFFFFFFFFFFFFFFFFFFFFFFFFFFFFFFFFFFFFFFFF AND PUSH20 0xFFFFFFFFFFFFFFFFFFFFFFFFFFFFFFFFFFFFFFFF AND DUP2 MSTORE PUSH1 0x20 ADD SWAP1 DUP2 MSTORE PUSH1 0x20 ADD PUSH1 0x0 KECCAK256 PUSH1 0x0 PUSH2 0x100 EXP DUP2 SLOAD DUP2 PUSH1 0xFF MUL NOT AND SWAP1 DUP4 ISZERO ISZERO MUL OR SWAP1 SSTORE POP PUSH1 0x1 PUSH1 0x3 PUSH1 0x0 DUP5 DUP2 MSTORE PUSH1 0x20 ADD SWAP1 DUP2 MSTORE PUSH1 0x20 ADD PUSH1 0x0 KECCAK256 PUSH1 0x0 CALLER PUSH20 0xFFFFFFFFFFFFFFFFFFFFFFFFFFFFFFFFFFFFFFFF AND PUSH20 0xFFFFFFFFFFFFFFFFFFFFFFFFFFFFFFFFFFFFFFFF AND DUP2 MSTORE PUSH1 0x20 ADD SWAP1 DUP2 MSTORE PUSH1 0x20 ADD PUSH1 0x0 KECCAK256 PUSH1 0x0 PUSH2 0x100 EXP DUP2 SLOAD DUP2 PUSH1 0xFF MUL NOT AND SWAP1 DUP4 ISZERO ISZERO MUL OR SWAP1 SSTORE POP PUSH1 0x5 PUSH1 0x0 DUP4 DUP2 MSTORE PUSH1 0x20 ADD SWAP1 DUP2 MSTORE PUSH1 0x20 ADD PUSH1 0x0 KECCAK256 PUSH1 0x0 DUP2 SLOAD DUP1 SWAP3 SWAP2 SWAP1 PUSH2 0x766 SWAP1 PUSH2 0xE1B JUMP JUMPDEST SWAP2 SWAP1 POP SSTORE POP PUSH2 0x774 DUP3 PUSH2 0x478 JUMP JUMPDEST ISZERO PUSH2 0x783 JUMPI PUSH2 0x782 DUP3 PUSH2 0x867 JUMP JUMPDEST JUMPDEST POP POP JUMP JUMPDEST PUSH1 0x0 PUSH1 0x2 SLOAD SWAP1 POP PUSH1 0x40 MLOAD DUP1 PUSH1 0x60 ADD PUSH1 0x40 MSTORE DUP1 DUP5 PUSH20 0xFFFFFFFFFFFFFFFFFFFFFFFFFFFFFFFFFFFFFFFF AND DUP2 MSTORE PUSH1 0x20 ADD DUP4 DUP2 MSTORE PUSH1 0x20 ADD PUSH1 0x0 ISZERO ISZERO DUP2 MSTORE POP PUSH1 0x4 PUSH1 0x0 DUP4 DUP2 MSTORE PUSH1 0x20 ADD SWAP1 DUP2 MSTORE PUSH1 0x20 ADD PUSH1 0x0 KECCAK256 PUSH1 0x0 DUP3 ADD MLOAD DUP2 PUSH1 0x0 ADD PUSH1 0x0 PUSH2 0x100 EXP DUP2 SLOAD DUP2 PUSH20 0xFFFFFFFFFFFFFFFFFFFFFFFFFFFFFFFFFFFFFFFF MUL NOT AND SWAP1 DUP4 PUSH20 0xFFFFFFFFFFFFFFFFFFFFFFFFFFFFFFFFFFFFFFFF AND MUL OR SWAP1 SSTORE POP PUSH1 0x20 DUP3 ADD MLOAD DUP2 PUSH1 0x1 ADD SSTORE PUSH1 0x40 DUP3 ADD MLOAD DUP2 PUSH1 0x2 ADD PUSH1 0x0 PUSH2 0x100 EXP DUP2 SLOAD DUP2 PUSH1 0xFF MUL NOT AND SWAP1 DUP4 ISZERO ISZERO MUL OR SWAP1 SSTORE POP SWAP1 POP POP PUSH1 0x2 PUSH1 0x0 DUP2 SLOAD DUP1 SWAP3 SWAP2 SWAP1 PUSH2 0x85C SWAP1 PUSH2 0xE1B JUMP JUMPDEST SWAP2 SWAP1 POP SSTORE POP SWAP3 SWAP2 POP POP JUMP JUMPDEST PUSH2 0x870 DUP2 PUSH2 0x478 JUMP JUMPDEST PUSH2 0x8AF JUMPI PUSH1 0x40 MLOAD PUSH32 0x8C379A000000000000000000000000000000000000000000000000000000000 DUP2 MSTORE PUSH1 0x4 ADD PUSH2 0x8A6 SWAP1 PUSH2 0xFE4 JUMP JUMPDEST PUSH1 0x40 MLOAD DUP1 SWAP2 SUB SWAP1 REVERT JUMPDEST PUSH1 0x0 PUSH1 0x4 PUSH1 0x0 DUP4 DUP2 MSTORE PUSH1 0x20 ADD SWAP1 DUP2 MSTORE PUSH1 0x20 ADD PUSH1 0x0 KECCAK256 PUSH1 0x0 ADD PUSH1 0x0 SWAP1 SLOAD SWAP1 PUSH2 0x100 EXP SWAP1 DIV PUSH20 0xFFFFFFFFFFFFFFFFFFFFFFFFFFFFFFFFFFFFFFFF AND SWAP1 POP PUSH1 0x0 PUSH20 0xFFFFFFFFFFFFFFFFFFFFFFFFFFFFFFFFFFFFFFFF AND DUP2 PUSH20 0xFFFFFFFFFFFFFFFFFFFFFFFFFFFFFFFFFFFFFFFF AND SUB PUSH2 0x959 JUMPI PUSH1 0x40 MLOAD PUSH32 0x8C379A000000000000000000000000000000000000000000000000000000000 DUP2 MSTORE PUSH1 0x4 ADD PUSH2 0x950 SWAP1 PUSH2 0x1076 JUMP JUMPDEST PUSH1 0x40 MLOAD DUP1 SWAP2 SUB SWAP1 REVERT JUMPDEST PUSH1 0x4 PUSH1 0x0 DUP4 DUP2 MSTORE PUSH1 0x20 ADD SWAP1 DUP2 MSTORE PUSH1 0x20 ADD PUSH1 0x0 KECCAK256 PUSH1 0x1 ADD SLOAD SELFBALANCE LT ISZERO PUSH2 0x9B2 JUMPI PUSH1 0x40 MLOAD PUSH32 0x8C379A000000000000000000000000000000000000000000000000000000000 DUP2 MSTORE PUSH1 0x4 ADD PUSH2 0x9A9 SWAP1 PUSH2 0x112E JUMP JUMPDEST PUSH1 0x40 MLOAD DUP1 SWAP2 SUB SWAP1 REVERT JUMPDEST PUSH1 0x0 PUSH1 0x4 PUSH1 0x0 DUP5 DUP2 MSTORE PUSH1 0x20 ADD SWAP1 DUP2 MSTORE PUSH1 0x20 ADD PUSH1 0x0 KECCAK256 PUSH1 0x1 ADD SLOAD SUB PUSH2 0xA0B JUMPI PUSH1 0x40 MLOAD PUSH32 0x8C379A000000000000000000000000000000000000000000000000000000000 DUP2 MSTORE PUSH1 0x4 ADD PUSH2 0xA02 SWAP1 PUSH2 0x11C0 JUMP JUMPDEST PUSH1 0x40 MLOAD DUP1 SWAP2 SUB SWAP1 REVERT JUMPDEST PUSH1 0x0 DUP2 PUSH20 0xFFFFFFFFFFFFFFFFFFFFFFFFFFFFFFFFFFFFFFFF AND PUSH1 0x4 PUSH1 0x0 DUP6 DUP2 MSTORE PUSH1 0x20 ADD SWAP1 DUP2 MSTORE PUSH1 0x20 ADD PUSH1 0x0 KECCAK256 PUSH1 0x1 ADD SLOAD PUSH1 0x40 MLOAD PUSH2 0xA47 SWAP1 PUSH2 0x1211 JUMP JUMPDEST PUSH1 0x0 PUSH1 0x40 MLOAD DUP1 DUP4 SUB DUP2 DUP6 DUP8 GAS CALL SWAP3 POP POP POP RETURNDATASIZE DUP1 PUSH1 0x0 DUP2 EQ PUSH2 0xA84 JUMPI PUSH1 0x40 MLOAD SWAP2 POP PUSH1 0x1F NOT PUSH1 0x3F RETURNDATASIZE ADD AND DUP3 ADD PUSH1 0x40 MSTORE RETURNDATASIZE DUP3 MSTORE RETURNDATASIZE PUSH1 0x0 PUSH1 0x20 DUP5 ADD RETURNDATACOPY PUSH2 0xA89 JUMP JUMPDEST PUSH1 0x60 SWAP2 POP JUMPDEST POP POP SWAP1 POP DUP1 PUSH2 0xACD JUMPI PUSH1 0x40 MLOAD PUSH32 0x8C379A000000000000000000000000000000000000000000000000000000000 DUP2 MSTORE PUSH1 0x4 ADD PUSH2 0xAC4 SWAP1 PUSH2 0x12BE JUMP JUMPDEST PUSH1 0x40 MLOAD DUP1 SWAP2 SUB SWAP1 REVERT JUMPDEST PUSH1 0x1 PUSH1 0x4 PUSH1 0x0 DUP6 DUP2 MSTORE PUSH1 0x20 ADD SWAP1 DUP2 MSTORE PUSH1 0x20 ADD PUSH1 0x0 KECCAK256 PUSH1 0x2 ADD PUSH1 0x0 PUSH2 0x100 EXP DUP2 SLOAD DUP2 PUSH1 0xFF MUL NOT AND SWAP1 DUP4 ISZERO ISZERO MUL OR SWAP1 SSTORE POP PUSH32 0xDDF252AD1BE2C89B69C2B068FC378DAA952BA7F163C4A11628F55A4DF523B3EF ADDRESS DUP4 PUSH1 0x4 PUSH1 0x0 DUP8 DUP2 MSTORE PUSH1 0x20 ADD SWAP1 DUP2 MSTORE PUSH1 0x20 ADD PUSH1 0x0 KECCAK256 PUSH1 0x1 ADD SLOAD PUSH1 0x40 MLOAD PUSH2 0xB45 SWAP4 SWAP3 SWAP2 SWAP1 PUSH2 0xBAC JUMP JUMPDEST PUSH1 0x40 MLOAD DUP1 SWAP2 SUB SWAP1 LOG1 POP POP POP JUMP JUMPDEST PUSH1 0x0 PUSH20 0xFFFFFFFFFFFFFFFFFFFFFFFFFFFFFFFFFFFFFFFF DUP3 AND SWAP1 POP SWAP2 SWAP1 POP JUMP JUMPDEST PUSH1 0x0 PUSH2 0xB7D DUP3 PUSH2 0xB52 JUMP JUMPDEST SWAP1 POP SWAP2 SWAP1 POP JUMP JUMPDEST PUSH2 0xB8D DUP2 PUSH2 0xB72 JUMP JUMPDEST DUP3 MSTORE POP POP JUMP JUMPDEST PUSH1 0x0 DUP2 SWAP1 POP SWAP2 SWAP1 POP JUMP JUMPDEST PUSH2 0xBA6 DUP2 PUSH2 0xB93 JUMP JUMPDEST DUP3 MSTORE POP POP JUMP JUMPDEST PUSH1 0x0 PUSH1 0x60 DUP3 ADD SWAP1 POP PUSH2 0xBC1 PUSH1 0x0 DUP4 ADD DUP7 PUSH2 0xB84 JUMP JUMPDEST PUSH2 0xBCE PUSH1 0x20 DUP4 ADD DUP6 PUSH2 0xB84 JUMP JUMPDEST PUSH2 0xBDB PUSH1 0x40 DUP4 ADD DUP5 PUSH2 0xB9D JUMP JUMPDEST SWAP5 SWAP4 POP POP POP POP JUMP JUMPDEST PUSH1 0x0 DUP1 REVERT JUMPDEST PUSH2 0xBF1 DUP2 PUSH2 0xB93 JUMP JUMPDEST DUP2 EQ PUSH2 0xBFC JUMPI PUSH1 0x0 DUP1 REVERT JUMPDEST POP JUMP JUMPDEST PUSH1 0x0 DUP2 CALLDATALOAD SWAP1 POP PUSH2 0xC0E DUP2 PUSH2 0xBE8 JUMP JUMPDEST SWAP3 SWAP2 POP POP JUMP JUMPDEST PUSH1 0x0 PUSH1 0x20 DUP3 DUP5 SUB SLT ISZERO PUSH2 0xC2A JUMPI PUSH2 0xC29 PUSH2 0xBE3 JUMP JUMPDEST JUMPDEST PUSH1 0x0 PUSH2 0xC38 DUP5 DUP3 DUP6 ADD PUSH2 0xBFF JUMP JUMPDEST SWAP2 POP POP SWAP3 SWAP2 POP POP JUMP JUMPDEST PUSH1 0x0 PUSH1 0x20 DUP3 ADD SWAP1 POP PUSH2 0xC56 PUSH1 0x0 DUP4 ADD DUP5 PUSH2 0xB84 JUMP JUMPDEST SWAP3 SWAP2 POP POP JUMP JUMPDEST PUSH2 0xC65 DUP2 PUSH2 0xB72 JUMP JUMPDEST DUP2 EQ PUSH2 0xC70 JUMPI PUSH1 0x0 DUP1 REVERT JUMPDEST POP JUMP JUMPDEST PUSH1 0x0 DUP2 CALLDATALOAD SWAP1 POP PUSH2 0xC82 DUP2 PUSH2 0xC5C JUMP JUMPDEST SWAP3 SWAP2 POP POP JUMP JUMPDEST PUSH1 0x0 PUSH1 0x20 DUP3 DUP5 SUB SLT ISZERO PUSH2 0xC9E JUMPI PUSH2 0xC9D PUSH2 0xBE3 JUMP JUMPDEST JUMPDEST PUSH1 0x0 PUSH2 0xCAC DUP5 DUP3 DUP6 ADD PUSH2 0xC73 JUMP JUMPDEST SWAP2 POP POP SWAP3 SWAP2 POP POP JUMP JUMPDEST PUSH1 0x0 DUP2 ISZERO ISZERO SWAP1 POP SWAP2 SWAP1 POP JUMP JUMPDEST PUSH2 0xCCA DUP2 PUSH2 0xCB5 JUMP JUMPDEST DUP3 MSTORE POP POP JUMP JUMPDEST PUSH1 0x0 PUSH1 0x20 DUP3 ADD SWAP1 POP PUSH2 0xCE5 PUSH1 0x0 DUP4 ADD DUP5 PUSH2 0xCC1 JUMP JUMPDEST SWAP3 SWAP2 POP POP JUMP JUMPDEST PUSH1 0x0 DUP1 PUSH1 0x40 DUP4 DUP6 SUB SLT ISZERO PUSH2 0xD02 JUMPI PUSH2 0xD01 PUSH2 0xBE3 JUMP JUMPDEST JUMPDEST PUSH1 0x0 PUSH2 0xD10 DUP6 DUP3 DUP7 ADD PUSH2 0xC73 JUMP JUMPDEST SWAP3 POP POP PUSH1 0x20 PUSH2 0xD21 DUP6 DUP3 DUP7 ADD PUSH2 0xBFF JUMP JUMPDEST SWAP2 POP POP SWAP3 POP SWAP3 SWAP1 POP JUMP JUMPDEST PUSH1 0x0 DUP1 PUSH1 0x40 DUP4 DUP6 SUB SLT ISZERO PUSH2 0xD42 JUMPI PUSH2 0xD41 PUSH2 0xBE3 JUMP JUMPDEST JUMPDEST PUSH1 0x0 PUSH2 0xD50 DUP6 DUP3 DUP7 ADD PUSH2 0xBFF JUMP JUMPDEST SWAP3 POP POP PUSH1 0x20 PUSH2 0xD61 DUP6 DUP3 DUP7 ADD PUSH2 0xC73 JUMP JUMPDEST SWAP2 POP POP SWAP3 POP SWAP3 SWAP1 POP JUMP JUMPDEST PUSH1 0x0 PUSH1 0x20 DUP3 ADD SWAP1 POP PUSH2 0xD80 PUSH1 0x0 DUP4 ADD DUP5 PUSH2 0xB9D JUMP JUMPDEST SWAP3 SWAP2 POP POP JUMP JUMPDEST PUSH1 0x0 PUSH1 0x60 DUP3 ADD SWAP1 POP PUSH2 0xD9B PUSH1 0x0 DUP4 ADD DUP7 PUSH2 0xB84 JUMP JUMPDEST PUSH2 0xDA8 PUSH1 0x20 DUP4 ADD DUP6 PUSH2 0xB9D JUMP JUMPDEST PUSH2 0xDB5 PUSH1 0x40 DUP4 ADD DUP5 PUSH2 0xCC1 JUMP JUMPDEST SWAP5 SWAP4 POP POP POP POP JUMP JUMPDEST PUSH32 0x4E487B7100000000000000000000000000000000000000000000000000000000 PUSH1 0x0 MSTORE PUSH1 0x32 PUSH1 0x4 MSTORE PUSH1 0x24 PUSH1 0x0 REVERT JUMPDEST PUSH32 0x4E487B7100000000000000000000000000000000000000000000000000000000 PUSH1 0x0 MSTORE PUSH1 0x11 PUSH1 0x4 MSTORE PUSH1 0x24 PUSH1 0x0 REVERT JUMPDEST PUSH1 0x0 PUSH2 0xE26 DUP3 PUSH2 0xB93 JUMP JUMPDEST SWAP2 POP PUSH32 0xFFFFFFFFFFFFFFFFFFFFFFFFFFFFFFFFFFFFFFFFFFFFFFFFFFFFFFFFFFFFFFFF DUP3 SUB PUSH2 0xE58 JUMPI PUSH2 0xE57 PUSH2 0xDEC JUMP JUMPDEST JUMPDEST PUSH1 0x1 DUP3 ADD SWAP1 POP SWAP2 SWAP1 POP JUMP JUMPDEST PUSH1 0x0 DUP3 DUP3 MSTORE PUSH1 0x20 DUP3 ADD SWAP1 POP SWAP3 SWAP2 POP POP JUMP JUMPDEST PUSH32 0x596F7520617265206E6F7420616E20617574686F7269736564204F776E657221 PUSH1 0x0 DUP3 ADD MSTORE POP JUMP JUMPDEST PUSH1 0x0 PUSH2 0xEAA PUSH1 0x20 DUP4 PUSH2 0xE63 JUMP JUMPDEST SWAP2 POP PUSH2 0xEB5 DUP3 PUSH2 0xE74 JUMP JUMPDEST PUSH1 0x20 DUP3 ADD SWAP1 POP SWAP2 SWAP1 POP JUMP JUMPDEST PUSH1 0x0 PUSH1 0x20 DUP3 ADD SWAP1 POP DUP2 DUP2 SUB PUSH1 0x0 DUP4 ADD MSTORE PUSH2 0xED9 DUP2 PUSH2 0xE9D JUMP JUMPDEST SWAP1 POP SWAP2 SWAP1 POP JUMP JUMPDEST PUSH32 0x596F7520617265206E6F7420616C6C6F77656420746F20646F75626C6520636F PUSH1 0x0 DUP3 ADD MSTORE PUSH32 0x6E6669726D2061207472616E73616374696F6E21000000000000000000000000 PUSH1 0x20 DUP3 ADD MSTORE POP JUMP JUMPDEST PUSH1 0x0 PUSH2 0xF3C PUSH1 0x34 DUP4 PUSH2 0xE63 JUMP JUMPDEST SWAP2 POP PUSH2 0xF47 DUP3 PUSH2 0xEE0 JUMP JUMPDEST PUSH1 0x40 DUP3 ADD SWAP1 POP SWAP2 SWAP1 POP JUMP JUMPDEST PUSH1 0x0 PUSH1 0x20 DUP3 ADD SWAP1 POP DUP2 DUP2 SUB PUSH1 0x0 DUP4 ADD MSTORE PUSH2 0xF6B DUP2 PUSH2 0xF2F JUMP JUMPDEST SWAP1 POP SWAP2 SWAP1 POP JUMP JUMPDEST PUSH32 0x5472616E73616374696F6E206973206E6F7420636F6E6669726D656420796574 PUSH1 0x0 DUP3 ADD MSTORE PUSH32 0x2100000000000000000000000000000000000000000000000000000000000000 PUSH1 0x20 DUP3 ADD MSTORE POP JUMP JUMPDEST PUSH1 0x0 PUSH2 0xFCE PUSH1 0x21 DUP4 PUSH2 0xE63 JUMP JUMPDEST SWAP2 POP PUSH2 0xFD9 DUP3 PUSH2 0xF72 JUMP JUMPDEST PUSH1 0x40 DUP3 ADD SWAP1 POP SWAP2 SWAP1 POP JUMP JUMPDEST PUSH1 0x0 PUSH1 0x20 DUP3 ADD SWAP1 POP DUP2 DUP2 SUB PUSH1 0x0 DUP4 ADD MSTORE PUSH2 0xFFD DUP2 PUSH2 0xFC1 JUMP JUMPDEST SWAP1 POP SWAP2 SWAP1 POP JUMP JUMPDEST PUSH32 0x64657374696E6174696F6E20616464726573732068617320746F206265206E6F PUSH1 0x0 DUP3 ADD MSTORE PUSH32 0x6E2D7A65726F2100000000000000000000000000000000000000000000000000 PUSH1 0x20 DUP3 ADD MSTORE POP JUMP JUMPDEST PUSH1 0x0 PUSH2 0x1060 PUSH1 0x27 DUP4 PUSH2 0xE63 JUMP JUMPDEST SWAP2 POP PUSH2 0x106B DUP3 PUSH2 0x1004 JUMP JUMPDEST PUSH1 0x40 DUP3 ADD SWAP1 POP SWAP2 SWAP1 POP JUMP JUMPDEST PUSH1 0x0 PUSH1 0x20 DUP3 ADD SWAP1 POP DUP2 DUP2 SUB PUSH1 0x0 DUP4 ADD MSTORE PUSH2 0x108F DUP2 PUSH2 0x1053 JUMP JUMPDEST SWAP1 POP SWAP2 SWAP1 POP JUMP JUMPDEST PUSH32 0x496E73756666696369656E742066756E647320696E207468652077616C6C6574 PUSH1 0x0 DUP3 ADD MSTORE PUSH32 0x20746F207472616E736665722074686520726571756972656420616D6F756E74 PUSH1 0x20 DUP3 ADD MSTORE PUSH32 0x2100000000000000000000000000000000000000000000000000000000000000 PUSH1 0x40 DUP3 ADD MSTORE POP JUMP JUMPDEST PUSH1 0x0 PUSH2 0x1118 PUSH1 0x41 DUP4 PUSH2 0xE63 JUMP JUMPDEST SWAP2 POP PUSH2 0x1123 DUP3 PUSH2 0x1096 JUMP JUMPDEST PUSH1 0x60 DUP3 ADD SWAP1 POP SWAP2 SWAP1 POP JUMP JUMPDEST PUSH1 0x0 PUSH1 0x20 DUP3 ADD SWAP1 POP DUP2 DUP2 SUB PUSH1 0x0 DUP4 ADD MSTORE PUSH2 0x1147 DUP2 PUSH2 0x110B JUMP JUMPDEST SWAP1 POP SWAP2 SWAP1 POP JUMP JUMPDEST PUSH32 0x616D6F756E7420746F207472616E736665722068617320746F206265206E6F6E PUSH1 0x0 DUP3 ADD MSTORE PUSH32 0x2D7A65726F210000000000000000000000000000000000000000000000000000 PUSH1 0x20 DUP3 ADD MSTORE POP JUMP JUMPDEST PUSH1 0x0 PUSH2 0x11AA PUSH1 0x26 DUP4 PUSH2 0xE63 JUMP JUMPDEST SWAP2 POP PUSH2 0x11B5 DUP3 PUSH2 0x114E JUMP JUMPDEST PUSH1 0x40 DUP3 ADD SWAP1 POP SWAP2 SWAP1 POP JUMP JUMPDEST PUSH1 0x0 PUSH1 0x20 DUP3 ADD SWAP1 POP DUP2 DUP2 SUB PUSH1 0x0 DUP4 ADD MSTORE PUSH2 0x11D9 DUP2 PUSH2 0x119D JUMP JUMPDEST SWAP1 POP SWAP2 SWAP1 POP JUMP JUMPDEST PUSH1 0x0 DUP2 SWAP1 POP SWAP3 SWAP2 POP POP JUMP JUMPDEST POP JUMP JUMPDEST PUSH1 0x0 PUSH2 0x11FB PUSH1 0x0 DUP4 PUSH2 0x11E0 JUMP JUMPDEST SWAP2 POP PUSH2 0x1206 DUP3 PUSH2 0x11EB JUMP JUMPDEST PUSH1 0x0 DUP3 ADD SWAP1 POP SWAP2 SWAP1 POP JUMP JUMPDEST PUSH1 0x0 PUSH2 0x121C DUP3 PUSH2 0x11EE JUMP JUMPDEST SWAP2 POP DUP2 SWAP1 POP SWAP2 SWAP1 POP JUMP JUMPDEST PUSH32 0x4661696C656420746F2065786563757465207472616E73616374696F6E206475 PUSH1 0x0 DUP3 ADD MSTORE PUSH32 0x6520746F20696E76616C6964207472616E736665722064657461696C732F696E PUSH1 0x20 DUP3 ADD MSTORE PUSH32 0x73756666696369656E742066756E647320696E207468652077616C6C65742100 PUSH1 0x40 DUP3 ADD MSTORE POP JUMP JUMPDEST PUSH1 0x0 PUSH2 0x12A8 PUSH1 0x5F DUP4 PUSH2 0xE63 JUMP JUMPDEST SWAP2 POP PUSH2 0x12B3 DUP3 PUSH2 0x1226 JUMP JUMPDEST PUSH1 0x60 DUP3 ADD SWAP1 POP SWAP2 SWAP1 POP JUMP JUMPDEST PUSH1 0x0 PUSH1 0x20 DUP3 ADD SWAP1 POP DUP2 DUP2 SUB PUSH1 0x0 DUP4 ADD MSTORE PUSH2 0x12D7 DUP2 PUSH2 0x129B JUMP JUMPDEST SWAP1 POP SWAP2 SWAP1 POP JUMP INVALID LOG2 PUSH5 0x6970667358 0x22 SLT KECCAK256 0xEC 0xEF 0x5F 0xB7 NOT JUMPI SWAP12 BYTE 0xE6 0x23 DUP3 0xEC EQ RETURN NOT CREATE 0xB3 PUSH11 0xAB5A5E32F67B7663083CEA SUB 0xC2 0xC1 PUSH5 0x736F6C6343 STOP ADDMOD GT STOP CALLER "},"methodIdentifiers":{"confirmTransaction(uint256)":"c01a8c84","confirmations(uint256,address)":"3411c81c","getConfirmationsCount(uint256)":"bce800e5","isConfirmed(uint256)":"784547a7","isOwnerSigned(address)":"09b95b7c","noOfConfirmations()":"7baef2f5","owners(uint256)":"025e7c27","submitTransaction(address,uint256)":"1d43b653","transactionCount()":"b77bf600","transactions(uint256)":"9ace38c2"}}}}}