{
  "_format": "hh-sol-artifact-1",
  "contractName": "MultiSig",
  "sourceName": "contracts/MultiSig.sol",
  "abi": [
    {
      "inputs": [
        {
          "internalType": "address[]",
          "name": "_owners",
          "type": "address[]"
        },
        {
          "internalType": "uint256",
          "name": "_noOfconfirmations",
          "type": "uint256"
        }
      ],
      "stateMutability": "nonpayable",
      "type": "constructor"
    },
    {
      "anonymous": false,
      "inputs": [
        {
          "indexed": true,
          "internalType": "address",
          "name": "from",
          "type": "address"
        },
        {
          "indexed": true,
          "internalType": "address",
          "name": "to",
          "type": "address"
        },
        {
          "indexed": false,
          "internalType": "uint256",
          "name": "value",
          "type": "uint256"
        }
      ],
      "name": "Transfer",
      "type": "event"
    },
    {
      "inputs": [
        {
          "internalType": "address",
          "name": "destination",
          "type": "address"
        },
        {
          "internalType": "uint256",
          "name": "value",
          "type": "uint256"
        }
      ],
      "name": "addTransaction",
      "outputs": [
        {
          "internalType": "uint256",
          "name": "trxId",
          "type": "uint256"
        }
      ],
      "stateMutability": "nonpayable",
      "type": "function"
    },
    {
      "inputs": [
        {
          "internalType": "uint256",
          "name": "trxId",
          "type": "uint256"
        }
      ],
      "name": "confirmTransaction",
      "outputs": [
        {
          "internalType": "uint256",
          "name": "",
          "type": "uint256"
        }
      ],
      "stateMutability": "nonpayable",
      "type": "function"
    },
    {
      "inputs": [
        {
          "internalType": "uint256",
          "name": "",
          "type": "uint256"
        },
        {
          "internalType": "address",
          "name": "",
          "type": "address"
        }
      ],
      "name": "confirmations",
      "outputs": [
        {
          "internalType": "bool",
          "name": "",
          "type": "bool"
        }
      ],
      "stateMutability": "view",
      "type": "function"
    },
    {
      "inputs": [
        {
          "internalType": "uint256",
          "name": "trxId",
          "type": "uint256"
        }
      ],
      "name": "getConfirmationsCount",
      "outputs": [
        {
          "internalType": "uint256",
          "name": "",
          "type": "uint256"
        }
      ],
      "stateMutability": "view",
      "type": "function"
    },
    {
      "inputs": [
        {
          "internalType": "uint256",
          "name": "trxId",
          "type": "uint256"
        }
      ],
      "name": "isConfirmed",
      "outputs": [
        {
          "internalType": "bool",
          "name": "_isConfirmed",
          "type": "bool"
        }
      ],
      "stateMutability": "view",
      "type": "function"
    },
    {
      "inputs": [
        {
          "internalType": "uint256",
          "name": "",
          "type": "uint256"
        },
        {
          "internalType": "address",
          "name": "",
          "type": "address"
        }
      ],
      "name": "isOwnerSignedTrx",
      "outputs": [
        {
          "internalType": "bool",
          "name": "",
          "type": "bool"
        }
      ],
      "stateMutability": "view",
      "type": "function"
    },
    {
      "inputs": [],
      "name": "noOfConfirmations",
      "outputs": [
        {
          "internalType": "uint256",
          "name": "",
          "type": "uint256"
        }
      ],
      "stateMutability": "view",
      "type": "function"
    },
    {
      "inputs": [
        {
          "internalType": "uint256",
          "name": "",
          "type": "uint256"
        }
      ],
      "name": "owners",
      "outputs": [
        {
          "internalType": "address",
          "name": "",
          "type": "address"
        }
      ],
      "stateMutability": "view",
      "type": "function"
    },
    {
      "inputs": [
        {
          "internalType": "address",
          "name": "destination",
          "type": "address"
        },
        {
          "internalType": "uint256",
          "name": "value",
          "type": "uint256"
        }
      ],
      "name": "submitTransaction",
      "outputs": [
        {
          "internalType": "uint256",
          "name": "trxId",
          "type": "uint256"
        }
      ],
      "stateMutability": "nonpayable",
      "type": "function"
    },
    {
      "inputs": [],
      "name": "transactionCount",
      "outputs": [
        {
          "internalType": "uint256",
          "name": "",
          "type": "uint256"
        }
      ],
      "stateMutability": "view",
      "type": "function"
    },
    {
      "inputs": [
        {
          "internalType": "uint256",
          "name": "",
          "type": "uint256"
        }
      ],
      "name": "transactions",
      "outputs": [
        {
          "internalType": "address",
          "name": "destination",
          "type": "address"
        },
        {
          "internalType": "uint256",
          "name": "value",
          "type": "uint256"
        },
        {
          "internalType": "bool",
          "name": "executed",
          "type": "bool"
        }
      ],
      "stateMutability": "view",
      "type": "function"
    },
    {
      "stateMutability": "payable",
      "type": "receive"
    }
  ],
  "bytecode": "0x608060405260006002553480156200001657600080fd5b5060405162001a2e38038062001a2e83398181016040528101906200003c91906200040f565b600082511162000083576040517f08c379a00000000000000000000000000000000000000000000000000000000081526004016200007a90620004fc565b60405180910390fd5b60018111620000c9576040517f08c379a0000000000000000000000000000000000000000000000000000000008152600401620000c09062000594565b60405180910390fd5b815181111562000110576040517f08c379a0000000000000000000000000000000000000000000000000000000008152600401620001079062000652565b60405180910390fd5b81600090805190602001906200012892919062000138565b5080600181905550505062000674565b828054828255906000526020600020908101928215620001b4579160200282015b82811115620001b35782518260006101000a81548173ffffffffffffffffffffffffffffffffffffffff021916908373ffffffffffffffffffffffffffffffffffffffff1602179055509160200191906001019062000159565b5b509050620001c39190620001c7565b5090565b5b80821115620001e2576000816000905550600101620001c8565b5090565b6000604051905090565b600080fd5b600080fd5b600080fd5b6000601f19601f8301169050919050565b7f4e487b7100000000000000000000000000000000000000000000000000000000600052604160045260246000fd5b6200024a82620001ff565b810181811067ffffffffffffffff821117156200026c576200026b62000210565b5b80604052505050565b600062000281620001e6565b90506200028f82826200023f565b919050565b600067ffffffffffffffff821115620002b257620002b162000210565b5b602082029050602081019050919050565b600080fd5b600073ffffffffffffffffffffffffffffffffffffffff82169050919050565b6000620002f582620002c8565b9050919050565b6200030781620002e8565b81146200031357600080fd5b50565b6000815190506200032781620002fc565b92915050565b6000620003446200033e8462000294565b62000275565b905080838252602082019050602084028301858111156200036a5762000369620002c3565b5b835b8181101562000397578062000382888262000316565b8452602084019350506020810190506200036c565b5050509392505050565b600082601f830112620003b957620003b8620001fa565b5b8151620003cb8482602086016200032d565b91505092915050565b6000819050919050565b620003e981620003d4565b8114620003f557600080fd5b50565b6000815190506200040981620003de565b92915050565b60008060408385031215620004295762000428620001f0565b5b600083015167ffffffffffffffff8111156200044a5762000449620001f5565b5b6200045885828601620003a1565b92505060206200046b85828601620003f8565b9150509250929050565b600082825260208201905092915050565b7f4174206c65617374206f6e65206f776e65722068617320746f2062652073706560008201527f6369666965642100000000000000000000000000000000000000000000000000602082015250565b6000620004e460278362000475565b9150620004f18262000486565b604082019050919050565b600060208201905081810360008301526200051781620004d5565b9050919050565b7f4e6f2e206f66207369676e74757265732072657175697265642073686f756c6460008201527f206265206174206c656173742032000000000000000000000000000000000000602082015250565b60006200057c602e8362000475565b915062000589826200051e565b604082019050919050565b60006020820190508181036000830152620005af816200056d565b9050919050565b7f4e6f2e206f66207369676e6174757265732072657175697265642073686f756c60008201527f64206e6f74206265206d6f7265207468616e20746865206e6f2e206f66204f7760208201527f6e65727321000000000000000000000000000000000000000000000000000000604082015250565b60006200063a60458362000475565b91506200064782620005b6565b606082019050919050565b600060208201905081810360008301526200066d816200062b565b9050919050565b6113aa80620006846000396000f3fe6080604052600436106100a05760003560e01c806384a372731161006457806384a37273146102305780639ace38c21461026d578063b77bf600146102ac578063bce800e5146102d7578063c01a8c8414610314578063c35e5e9b146103515761010c565b8063025e7c27146101115780631d43b6531461014e5780633411c81c1461018b578063784547a7146101c85780637baef2f5146102055761010c565b3661010c573073ffffffffffffffffffffffffffffffffffffffff163373ffffffffffffffffffffffffffffffffffffffff167fddf252ad1be2c89b69c2b068fc378daa952ba7f163c4a11628f55a4df523b3ef346040516101029190610c65565b60405180910390a3005b600080fd5b34801561011d57600080fd5b5061013860048036038101906101339190610cb1565b61038e565b6040516101459190610d1f565b60405180910390f35b34801561015a57600080fd5b5061017560048036038101906101709190610d66565b6103cd565b6040516101829190610c65565b60405180910390f35b34801561019757600080fd5b506101b260048036038101906101ad9190610da6565b6104c5565b6040516101bf9190610e01565b60405180910390f35b3480156101d457600080fd5b506101ef60048036038101906101ea9190610cb1565b6104f4565b6040516101fc9190610e01565b60405180910390f35b34801561021157600080fd5b5061021a610511565b6040516102279190610c65565b60405180910390f35b34801561023c57600080fd5b5061025760048036038101906102529190610d66565b610517565b6040516102649190610c65565b60405180910390f35b34801561027957600080fd5b50610294600480360381019061028f9190610cb1565b6105f7565b6040516102a393929190610e1c565b60405180910390f35b3480156102b857600080fd5b506102c161064e565b6040516102ce9190610c65565b60405180910390f35b3480156102e357600080fd5b506102fe60048036038101906102f99190610cb1565b610654565b60405161030b9190610c65565b60405180910390f35b34801561032057600080fd5b5061033b60048036038101906103369190610cb1565b610671565b6040516103489190610c65565b60405180910390f35b34801561035d57600080fd5b5061037860048036038101906103739190610da6565b610908565b6040516103859190610e01565b60405180910390f35b6000818154811061039e57600080fd5b906000526020600020016000915054906101000a900473ffffffffffffffffffffffffffffffffffffffff1681565b60008060005b60008054905081101561046957600081815481106103f4576103f3610e53565b5b9060005260206000200160009054906101000a900473ffffffffffffffffffffffffffffffffffffffff1673ffffffffffffffffffffffffffffffffffffffff163373ffffffffffffffffffffffffffffffffffffffff160361045657600191505b808061046190610eb1565b9150506103d3565b50806104aa576040517f08c379a00000000000000000000000000000000000000000000000000000000081526004016104a190610f56565b60405180910390fd5b6104bc6104b78585610517565b610671565b91505092915050565b60036020528160005260406000206020528060005260406000206000915091509054906101000a900460ff1681565b600060015461050283610654565b1061050c57600190505b919050565b60015481565b6000600254905060405180606001604052808473ffffffffffffffffffffffffffffffffffffffff168152602001838152602001600015158152506004600083815260200190815260200160002060008201518160000160006101000a81548173ffffffffffffffffffffffffffffffffffffffff021916908373ffffffffffffffffffffffffffffffffffffffff1602179055506020820151816001015560408201518160020160006101000a81548160ff021916908315150217905550905050600260008154809291906105ec90610eb1565b919050555092915050565b60046020528060005260406000206000915090508060000160009054906101000a900473ffffffffffffffffffffffffffffffffffffffff16908060010154908060020160009054906101000a900460ff16905083565b60025481565b600060056000838152602001908152602001600020549050919050565b60008060005b60008054905081101561070d576000818154811061069857610697610e53565b5b9060005260206000200160009054906101000a900473ffffffffffffffffffffffffffffffffffffffff1673ffffffffffffffffffffffffffffffffffffffff163373ffffffffffffffffffffffffffffffffffffffff16036106fa57600191505b808061070590610eb1565b915050610677565b508061074e576040517f08c379a000000000000000000000000000000000000000000000000000000000815260040161074590610f56565b60405180910390fd5b6006600084815260200190815260200160002060003373ffffffffffffffffffffffffffffffffffffffff1673ffffffffffffffffffffffffffffffffffffffff16815260200190815260200160002060009054906101000a900460ff16156107ec576040517f08c379a00000000000000000000000000000000000000000000000000000000081526004016107e390610fe8565b60405180910390fd5b60016006600085815260200190815260200160002060003373ffffffffffffffffffffffffffffffffffffffff1673ffffffffffffffffffffffffffffffffffffffff16815260200190815260200160002060006101000a81548160ff02191690831515021790555060016003600085815260200190815260200160002060003373ffffffffffffffffffffffffffffffffffffffff1673ffffffffffffffffffffffffffffffffffffffff16815260200190815260200160002060006101000a81548160ff0219169083151502179055506005600084815260200190815260200160002060008154809291906108e290610eb1565b91905055506108f0836104f4565b156108ff576108fe83610937565b5b82915050919050565b60066020528160005260406000206020528060005260406000206000915091509054906101000a900460ff1681565b610940816104f4565b61097f576040517f08c379a00000000000000000000000000000000000000000000000000000000081526004016109769061107a565b60405180910390fd5b60006004600083815260200190815260200160002060000160009054906101000a900473ffffffffffffffffffffffffffffffffffffffff169050600073ffffffffffffffffffffffffffffffffffffffff168173ffffffffffffffffffffffffffffffffffffffff1603610a29576040517f08c379a0000000000000000000000000000000000000000000000000000000008152600401610a209061110c565b60405180910390fd5b6004600083815260200190815260200160002060010154471015610a82576040517f08c379a0000000000000000000000000000000000000000000000000000000008152600401610a79906111c4565b60405180910390fd5b6000600460008481526020019081526020016000206001015403610adb576040517f08c379a0000000000000000000000000000000000000000000000000000000008152600401610ad290611256565b60405180910390fd5b60008173ffffffffffffffffffffffffffffffffffffffff166004600085815260200190815260200160002060010154604051610b17906112a7565b60006040518083038185875af1925050503d8060008114610b54576040519150601f19603f3d011682016040523d82523d6000602084013e610b59565b606091505b5050905080610b9d576040517f08c379a0000000000000000000000000000000000000000000000000000000008152600401610b9490611354565b60405180910390fd5b60016004600085815260200190815260200160002060020160006101000a81548160ff0219169083151502179055508173ffffffffffffffffffffffffffffffffffffffff163073ffffffffffffffffffffffffffffffffffffffff167fddf252ad1be2c89b69c2b068fc378daa952ba7f163c4a11628f55a4df523b3ef6004600087815260200190815260200160002060010154604051610c3f9190610c65565b60405180910390a3505050565b6000819050919050565b610c5f81610c4c565b82525050565b6000602082019050610c7a6000830184610c56565b92915050565b600080fd5b610c8e81610c4c565b8114610c9957600080fd5b50565b600081359050610cab81610c85565b92915050565b600060208284031215610cc757610cc6610c80565b5b6000610cd584828501610c9c565b91505092915050565b600073ffffffffffffffffffffffffffffffffffffffff82169050919050565b6000610d0982610cde565b9050919050565b610d1981610cfe565b82525050565b6000602082019050610d346000830184610d10565b92915050565b610d4381610cfe565b8114610d4e57600080fd5b50565b600081359050610d6081610d3a565b92915050565b60008060408385031215610d7d57610d7c610c80565b5b6000610d8b85828601610d51565b9250506020610d9c85828601610c9c565b9150509250929050565b60008060408385031215610dbd57610dbc610c80565b5b6000610dcb85828601610c9c565b9250506020610ddc85828601610d51565b9150509250929050565b60008115159050919050565b610dfb81610de6565b82525050565b6000602082019050610e166000830184610df2565b92915050565b6000606082019050610e316000830186610d10565b610e3e6020830185610c56565b610e4b6040830184610df2565b949350505050565b7f4e487b7100000000000000000000000000000000000000000000000000000000600052603260045260246000fd5b7f4e487b7100000000000000000000000000000000000000000000000000000000600052601160045260246000fd5b6000610ebc82610c4c565b91507fffffffffffffffffffffffffffffffffffffffffffffffffffffffffffffffff8203610eee57610eed610e82565b5b600182019050919050565b600082825260208201905092915050565b7f596f7520617265206e6f7420616e20617574686f7269736564204f776e657221600082015250565b6000610f40602083610ef9565b9150610f4b82610f0a565b602082019050919050565b60006020820190508181036000830152610f6f81610f33565b9050919050565b7f596f7520617265206e6f7420616c6c6f77656420746f20646f75626c6520636f60008201527f6e6669726d207468652073616d65207472616e73616374696f6e210000000000602082015250565b6000610fd2603b83610ef9565b9150610fdd82610f76565b604082019050919050565b6000602082019050818103600083015261100181610fc5565b9050919050565b7f5472616e73616374696f6e206973206e6f7420636f6e6669726d65642079657460008201527f2100000000000000000000000000000000000000000000000000000000000000602082015250565b6000611064602183610ef9565b915061106f82611008565b604082019050919050565b6000602082019050818103600083015261109381611057565b9050919050565b7f64657374696e6174696f6e20616464726573732068617320746f206265206e6f60008201527f6e2d7a65726f2100000000000000000000000000000000000000000000000000602082015250565b60006110f6602783610ef9565b91506111018261109a565b604082019050919050565b60006020820190508181036000830152611125816110e9565b9050919050565b7f496e73756666696369656e742066756e647320696e207468652077616c6c657460008201527f20746f207472616e736665722074686520726571756972656420616d6f756e7460208201527f2100000000000000000000000000000000000000000000000000000000000000604082015250565b60006111ae604183610ef9565b91506111b98261112c565b606082019050919050565b600060208201905081810360008301526111dd816111a1565b9050919050565b7f616d6f756e7420746f207472616e736665722068617320746f206265206e6f6e60008201527f2d7a65726f210000000000000000000000000000000000000000000000000000602082015250565b6000611240602683610ef9565b915061124b826111e4565b604082019050919050565b6000602082019050818103600083015261126f81611233565b9050919050565b600081905092915050565b50565b6000611291600083611276565b915061129c82611281565b600082019050919050565b60006112b282611284565b9150819050919050565b7f4661696c656420746f2065786563757465207472616e73616374696f6e20647560008201527f6520746f20696e76616c6964207472616e736665722064657461696c732f696e60208201527f73756666696369656e742066756e647320696e207468652077616c6c65742100604082015250565b600061133e605f83610ef9565b9150611349826112bc565b606082019050919050565b6000602082019050818103600083015261136d81611331565b905091905056fea2646970667358221220dc7acdb6d86ae33e2b0e70ce9fedf90eeb4d9d918043c5755009acefaa1588bc64736f6c63430008110033",
  "linkReferences": {},
  "deployedLinkReferences": {}
}