{
  "_format": "hh-sol-artifact-1",
  "contractName": "MultiSig",
  "sourceName": "contracts/MultiSig.sol",
  "abi": [
    {
      "inputs": [
        {
          "internalType": "address[]",
          "name": "_owners",
          "type": "address[]"
        },
        {
          "internalType": "uint256",
          "name": "_noOfconfirmations",
          "type": "uint256"
        }
      ],
      "stateMutability": "nonpayable",
      "type": "constructor"
    },
    {
      "inputs": [
        {
          "internalType": "uint256",
          "name": "trxId",
          "type": "uint256"
        }
      ],
      "name": "confirmTransaction",
      "outputs": [],
      "stateMutability": "nonpayable",
      "type": "function"
    },
    {
      "inputs": [
        {
          "internalType": "uint256",
          "name": "",
          "type": "uint256"
        },
        {
          "internalType": "address",
          "name": "",
          "type": "address"
        }
      ],
      "name": "confirmations",
      "outputs": [
        {
          "internalType": "bool",
          "name": "",
          "type": "bool"
        }
      ],
      "stateMutability": "view",
      "type": "function"
    },
    {
      "inputs": [
        {
          "internalType": "uint256",
          "name": "trxId",
          "type": "uint256"
        }
      ],
      "name": "getConfirmationsCount",
      "outputs": [
        {
          "internalType": "uint256",
          "name": "",
          "type": "uint256"
        }
      ],
      "stateMutability": "view",
      "type": "function"
    },
    {
      "inputs": [
        {
          "internalType": "uint256",
          "name": "trxId",
          "type": "uint256"
        }
      ],
      "name": "isConfirmed",
      "outputs": [
        {
          "internalType": "bool",
          "name": "_isConfirmed",
          "type": "bool"
        }
      ],
      "stateMutability": "view",
      "type": "function"
    },
    {
      "inputs": [
        {
          "internalType": "address",
          "name": "",
          "type": "address"
        }
      ],
      "name": "isOwnerSigned",
      "outputs": [
        {
          "internalType": "bool",
          "name": "",
          "type": "bool"
        }
      ],
      "stateMutability": "view",
      "type": "function"
    },
    {
      "inputs": [],
      "name": "noOfConfirmations",
      "outputs": [
        {
          "internalType": "uint256",
          "name": "",
          "type": "uint256"
        }
      ],
      "stateMutability": "view",
      "type": "function"
    },
    {
      "inputs": [
        {
          "internalType": "uint256",
          "name": "",
          "type": "uint256"
        }
      ],
      "name": "owners",
      "outputs": [
        {
          "internalType": "address",
          "name": "",
          "type": "address"
        }
      ],
      "stateMutability": "view",
      "type": "function"
    },
    {
      "inputs": [
        {
          "internalType": "address",
          "name": "destination",
          "type": "address"
        },
        {
          "internalType": "uint256",
          "name": "value",
          "type": "uint256"
        }
      ],
      "name": "submitTransaction",
      "outputs": [],
      "stateMutability": "nonpayable",
      "type": "function"
    },
    {
      "inputs": [],
      "name": "transactionCount",
      "outputs": [
        {
          "internalType": "uint256",
          "name": "",
          "type": "uint256"
        }
      ],
      "stateMutability": "view",
      "type": "function"
    },
    {
      "inputs": [
        {
          "internalType": "uint256",
          "name": "",
          "type": "uint256"
        }
      ],
      "name": "transactions",
      "outputs": [
        {
          "internalType": "address",
          "name": "destination",
          "type": "address"
        },
        {
          "internalType": "uint256",
          "name": "value",
          "type": "uint256"
        },
        {
          "internalType": "bool",
          "name": "executed",
          "type": "bool"
        }
      ],
      "stateMutability": "view",
      "type": "function"
    },
    {
      "stateMutability": "payable",
      "type": "receive"
    }
  ],
  "bytecode": "0x60806040523480156200001157600080fd5b50604051620018d0380380620018d083398181016040528101906200003791906200040a565b60008251116200007e576040517f08c379a00000000000000000000000000000000000000000000000000000000081526004016200007590620004f7565b60405180910390fd5b60008111620000c4576040517f08c379a0000000000000000000000000000000000000000000000000000000008152600401620000bb906200058f565b60405180910390fd5b81518111156200010b576040517f08c379a000000000000000000000000000000000000000000000000000000000815260040162000102906200064d565b60405180910390fd5b81600090805190602001906200012392919062000133565b508060018190555050506200066f565b828054828255906000526020600020908101928215620001af579160200282015b82811115620001ae5782518260006101000a81548173ffffffffffffffffffffffffffffffffffffffff021916908373ffffffffffffffffffffffffffffffffffffffff1602179055509160200191906001019062000154565b5b509050620001be9190620001c2565b5090565b5b80821115620001dd576000816000905550600101620001c3565b5090565b6000604051905090565b600080fd5b600080fd5b600080fd5b6000601f19601f8301169050919050565b7f4e487b7100000000000000000000000000000000000000000000000000000000600052604160045260246000fd5b6200024582620001fa565b810181811067ffffffffffffffff821117156200026757620002666200020b565b5b80604052505050565b60006200027c620001e1565b90506200028a82826200023a565b919050565b600067ffffffffffffffff821115620002ad57620002ac6200020b565b5b602082029050602081019050919050565b600080fd5b600073ffffffffffffffffffffffffffffffffffffffff82169050919050565b6000620002f082620002c3565b9050919050565b6200030281620002e3565b81146200030e57600080fd5b50565b6000815190506200032281620002f7565b92915050565b60006200033f62000339846200028f565b62000270565b90508083825260208201905060208402830185811115620003655762000364620002be565b5b835b818110156200039257806200037d888262000311565b84526020840193505060208101905062000367565b5050509392505050565b600082601f830112620003b457620003b3620001f5565b5b8151620003c684826020860162000328565b91505092915050565b6000819050919050565b620003e481620003cf565b8114620003f057600080fd5b50565b6000815190506200040481620003d9565b92915050565b60008060408385031215620004245762000423620001eb565b5b600083015167ffffffffffffffff811115620004455762000444620001f0565b5b62000453858286016200039c565b92505060206200046685828601620003f3565b9150509250929050565b600082825260208201905092915050565b7f4174206c65617374206f6e65206f776e65722068617320746f2062652073706560008201527f6369666965642100000000000000000000000000000000000000000000000000602082015250565b6000620004df60278362000470565b9150620004ec8262000481565b604082019050919050565b600060208201905081810360008301526200051281620004d0565b9050919050565b7f4e6f2e206f66207369676e74757265732072657175697265642073686f756c6460008201527f206265206e6f6e2d7a65726f0000000000000000000000000000000000000000602082015250565b600062000577602c8362000470565b9150620005848262000519565b604082019050919050565b60006020820190508181036000830152620005aa8162000568565b9050919050565b7f4e6f2e206f66207369676e6174757265732072657175697265642073686f756c60008201527f64206e6f74206265206d6f7265207468616e20746865206e6f2e206f66204f7760208201527f6e65727321000000000000000000000000000000000000000000000000000000604082015250565b60006200063560458362000470565b91506200064282620005b1565b606082019050919050565b60006020820190508181036000830152620006688162000626565b9050919050565b611251806200067f6000396000f3fe6080604052600436106100955760003560e01c80637baef2f5116100595780637baef2f5146101be5780639ace38c2146101e9578063b77bf60014610228578063bce800e514610253578063c01a8c84146102905761009c565b8063025e7c27146100a157806309b95b7c146100de5780631d43b6531461011b5780633411c81c14610144578063784547a7146101815761009c565b3661009c57005b600080fd5b3480156100ad57600080fd5b506100c860048036038101906100c39190610b01565b6102b9565b6040516100d59190610b6f565b60405180910390f35b3480156100ea57600080fd5b5061010560048036038101906101009190610bb6565b6102f8565b6040516101129190610bfe565b60405180910390f35b34801561012757600080fd5b50610142600480360381019061013d9190610c19565b610318565b005b34801561015057600080fd5b5061016b60048036038101906101669190610c59565b61040e565b6040516101789190610bfe565b60405180910390f35b34801561018d57600080fd5b506101a860048036038101906101a39190610b01565b61043d565b6040516101b59190610bfe565b60405180910390f35b3480156101ca57600080fd5b506101d361045a565b6040516101e09190610ca8565b60405180910390f35b3480156101f557600080fd5b50610210600480360381019061020b9190610b01565b610460565b60405161021f93929190610cc3565b60405180910390f35b34801561023457600080fd5b5061023d6104b7565b60405161024a9190610ca8565b60405180910390f35b34801561025f57600080fd5b5061027a60048036038101906102759190610b01565b6104bd565b6040516102879190610ca8565b60405180910390f35b34801561029c57600080fd5b506102b760048036038101906102b29190610b01565b6104da565b005b600081815481106102c957600080fd5b906000526020600020016000915054906101000a900473ffffffffffffffffffffffffffffffffffffffff1681565b60066020528060005260406000206000915054906101000a900460ff1681565b600080600090505b6000805490508110156103b6576000818154811061034157610340610cfa565b5b9060005260206000200160009054906101000a900473ffffffffffffffffffffffffffffffffffffffff1673ffffffffffffffffffffffffffffffffffffffff163373ffffffffffffffffffffffffffffffffffffffff16036103a357600191505b80806103ae90610d58565b915050610320565b50806103f7576040517f08c379a00000000000000000000000000000000000000000000000000000000081526004016103ee90610dfd565b60405180910390fd5b610409610404848461074c565b6104da565b505050565b60036020528160005260406000206020528060005260406000206000915091509054906101000a900460ff1681565b600060015461044b836104bd565b1061045557600190505b919050565b60015481565b60046020528060005260406000206000915090508060000160009054906101000a900473ffffffffffffffffffffffffffffffffffffffff16908060010154908060020160009054906101000a900460ff16905083565b60025481565b600060056000838152602001908152602001600020549050919050565b600080600090505b600080549050811015610578576000818154811061050357610502610cfa565b5b9060005260206000200160009054906101000a900473ffffffffffffffffffffffffffffffffffffffff1673ffffffffffffffffffffffffffffffffffffffff163373ffffffffffffffffffffffffffffffffffffffff160361056557600191505b808061057090610d58565b9150506104e2565b50806105b9576040517f08c379a00000000000000000000000000000000000000000000000000000000081526004016105b090610dfd565b60405180910390fd5b600660003373ffffffffffffffffffffffffffffffffffffffff1673ffffffffffffffffffffffffffffffffffffffff16815260200190815260200160002060009054906101000a900460ff1615610646576040517f08c379a000000000000000000000000000000000000000000000000000000000815260040161063d90610e8f565b60405180910390fd5b6001600660003373ffffffffffffffffffffffffffffffffffffffff1673ffffffffffffffffffffffffffffffffffffffff16815260200190815260200160002060006101000a81548160ff02191690831515021790555060016003600084815260200190815260200160002060003373ffffffffffffffffffffffffffffffffffffffff1673ffffffffffffffffffffffffffffffffffffffff16815260200190815260200160002060006101000a81548160ff02191690831515021790555060056000838152602001908152602001600020600081548092919061072b90610d58565b91905055506107398261043d565b15610748576107478261082c565b5b5050565b6000600254905060405180606001604052808473ffffffffffffffffffffffffffffffffffffffff168152602001838152602001600015158152506004600083815260200190815260200160002060008201518160000160006101000a81548173ffffffffffffffffffffffffffffffffffffffff021916908373ffffffffffffffffffffffffffffffffffffffff1602179055506020820151816001015560408201518160020160006101000a81548160ff0219169083151502179055509050506002600081548092919061082190610d58565b919050555092915050565b6108358161043d565b610874576040517f08c379a000000000000000000000000000000000000000000000000000000000815260040161086b90610f21565b60405180910390fd5b60006004600083815260200190815260200160002060000160009054906101000a900473ffffffffffffffffffffffffffffffffffffffff169050600073ffffffffffffffffffffffffffffffffffffffff168173ffffffffffffffffffffffffffffffffffffffff160361091e576040517f08c379a000000000000000000000000000000000000000000000000000000000815260040161091590610fb3565b60405180910390fd5b6004600083815260200190815260200160002060010154471015610977576040517f08c379a000000000000000000000000000000000000000000000000000000000815260040161096e9061106b565b60405180910390fd5b60006004600084815260200190815260200160002060010154036109d0576040517f08c379a00000000000000000000000000000000000000000000000000000000081526004016109c7906110fd565b60405180910390fd5b60008173ffffffffffffffffffffffffffffffffffffffff166004600085815260200190815260200160002060010154604051610a0c9061114e565b60006040518083038185875af1925050503d8060008114610a49576040519150601f19603f3d011682016040523d82523d6000602084013e610a4e565b606091505b5050905080610a92576040517f08c379a0000000000000000000000000000000000000000000000000000000008152600401610a89906111fb565b60405180910390fd5b60016004600085815260200190815260200160002060020160006101000a81548160ff021916908315150217905550505050565b600080fd5b6000819050919050565b610ade81610acb565b8114610ae957600080fd5b50565b600081359050610afb81610ad5565b92915050565b600060208284031215610b1757610b16610ac6565b5b6000610b2584828501610aec565b91505092915050565b600073ffffffffffffffffffffffffffffffffffffffff82169050919050565b6000610b5982610b2e565b9050919050565b610b6981610b4e565b82525050565b6000602082019050610b846000830184610b60565b92915050565b610b9381610b4e565b8114610b9e57600080fd5b50565b600081359050610bb081610b8a565b92915050565b600060208284031215610bcc57610bcb610ac6565b5b6000610bda84828501610ba1565b91505092915050565b60008115159050919050565b610bf881610be3565b82525050565b6000602082019050610c136000830184610bef565b92915050565b60008060408385031215610c3057610c2f610ac6565b5b6000610c3e85828601610ba1565b9250506020610c4f85828601610aec565b9150509250929050565b60008060408385031215610c7057610c6f610ac6565b5b6000610c7e85828601610aec565b9250506020610c8f85828601610ba1565b9150509250929050565b610ca281610acb565b82525050565b6000602082019050610cbd6000830184610c99565b92915050565b6000606082019050610cd86000830186610b60565b610ce56020830185610c99565b610cf26040830184610bef565b949350505050565b7f4e487b7100000000000000000000000000000000000000000000000000000000600052603260045260246000fd5b7f4e487b7100000000000000000000000000000000000000000000000000000000600052601160045260246000fd5b6000610d6382610acb565b91507fffffffffffffffffffffffffffffffffffffffffffffffffffffffffffffffff8203610d9557610d94610d29565b5b600182019050919050565b600082825260208201905092915050565b7f596f7520617265206e6f7420616e20617574686f7269736564204f776e657221600082015250565b6000610de7602083610da0565b9150610df282610db1565b602082019050919050565b60006020820190508181036000830152610e1681610dda565b9050919050565b7f596f7520617265206e6f7420616c6c6f77656420746f20646f75626c6520636f60008201527f6e6669726d2061207472616e73616374696f6e21000000000000000000000000602082015250565b6000610e79603483610da0565b9150610e8482610e1d565b604082019050919050565b60006020820190508181036000830152610ea881610e6c565b9050919050565b7f5472616e73616374696f6e206973206e6f7420636f6e6669726d65642079657460008201527f2100000000000000000000000000000000000000000000000000000000000000602082015250565b6000610f0b602183610da0565b9150610f1682610eaf565b604082019050919050565b60006020820190508181036000830152610f3a81610efe565b9050919050565b7f64657374696e6174696f6e20616464726573732068617320746f206265206e6f60008201527f6e2d7a65726f2100000000000000000000000000000000000000000000000000602082015250565b6000610f9d602783610da0565b9150610fa882610f41565b604082019050919050565b60006020820190508181036000830152610fcc81610f90565b9050919050565b7f496e73756666696369656e742066756e647320696e207468652077616c6c657460008201527f20746f207472616e736665722074686520726571756972656420616d6f756e7460208201527f2100000000000000000000000000000000000000000000000000000000000000604082015250565b6000611055604183610da0565b915061106082610fd3565b606082019050919050565b6000602082019050818103600083015261108481611048565b9050919050565b7f616d6f756e7420746f207472616e736665722068617320746f206265206e6f6e60008201527f2d7a65726f210000000000000000000000000000000000000000000000000000602082015250565b60006110e7602683610da0565b91506110f28261108b565b604082019050919050565b60006020820190508181036000830152611116816110da565b9050919050565b600081905092915050565b50565b600061113860008361111d565b915061114382611128565b600082019050919050565b60006111598261112b565b9150819050919050565b7f4661696c656420746f2065786563757465207472616e73616374696f6e20647560008201527f6520746f20696e76616c6964207472616e736665722064657461696c732f696e60208201527f73756666696369656e742066756e647320696e207468652077616c6c65742100604082015250565b60006111e5605f83610da0565b91506111f082611163565b606082019050919050565b60006020820190508181036000830152611214816111d8565b905091905056fea2646970667358221220021ab8d1984448d06f2554927667b140ed6973ba4911b272509a8a47d7d1fa7164736f6c63430008110033",
  "linkReferences": {},
  "deployedLinkReferences": {}
}