{
  "_format": "hh-sol-artifact-1",
  "contractName": "MultiSig",
  "sourceName": "contracts/MultiSig.sol",
  "abi": [
    {
      "inputs": [
        {
          "internalType": "address[]",
          "name": "_owners",
          "type": "address[]"
        },
        {
          "internalType": "uint256",
          "name": "_noOfReqConfirmations",
          "type": "uint256"
        }
      ],
      "stateMutability": "nonpayable",
      "type": "constructor"
    },
    {
      "anonymous": false,
      "inputs": [
        {
          "indexed": true,
          "internalType": "address",
          "name": "from",
          "type": "address"
        },
        {
          "indexed": true,
          "internalType": "address",
          "name": "to",
          "type": "address"
        },
        {
          "indexed": false,
          "internalType": "uint256",
          "name": "value",
          "type": "uint256"
        }
      ],
      "name": "Transfer",
      "type": "event"
    },
    {
      "inputs": [
        {
          "internalType": "uint256",
          "name": "trxId",
          "type": "uint256"
        }
      ],
      "name": "confirmTransaction",
      "outputs": [
        {
          "internalType": "uint256",
          "name": "",
          "type": "uint256"
        }
      ],
      "stateMutability": "nonpayable",
      "type": "function"
    },
    {
      "inputs": [
        {
          "internalType": "uint256",
          "name": "",
          "type": "uint256"
        },
        {
          "internalType": "address",
          "name": "",
          "type": "address"
        }
      ],
      "name": "confirmations",
      "outputs": [
        {
          "internalType": "bool",
          "name": "",
          "type": "bool"
        }
      ],
      "stateMutability": "view",
      "type": "function"
    },
    {
      "inputs": [
        {
          "internalType": "uint256",
          "name": "trxId",
          "type": "uint256"
        }
      ],
      "name": "getConfirmationsCount",
      "outputs": [
        {
          "internalType": "uint256",
          "name": "",
          "type": "uint256"
        }
      ],
      "stateMutability": "view",
      "type": "function"
    },
    {
      "inputs": [
        {
          "internalType": "uint256",
          "name": "trxId",
          "type": "uint256"
        }
      ],
      "name": "isConfirmed",
      "outputs": [
        {
          "internalType": "bool",
          "name": "_isConfirmed",
          "type": "bool"
        }
      ],
      "stateMutability": "view",
      "type": "function"
    },
    {
      "inputs": [
        {
          "internalType": "uint256",
          "name": "",
          "type": "uint256"
        },
        {
          "internalType": "address",
          "name": "",
          "type": "address"
        }
      ],
      "name": "isOwnerSignedTrx",
      "outputs": [
        {
          "internalType": "bool",
          "name": "",
          "type": "bool"
        }
      ],
      "stateMutability": "view",
      "type": "function"
    },
    {
      "inputs": [],
      "name": "noOfReqConfirmations",
      "outputs": [
        {
          "internalType": "uint256",
          "name": "",
          "type": "uint256"
        }
      ],
      "stateMutability": "view",
      "type": "function"
    },
    {
      "inputs": [
        {
          "internalType": "uint256",
          "name": "",
          "type": "uint256"
        }
      ],
      "name": "owners",
      "outputs": [
        {
          "internalType": "address",
          "name": "",
          "type": "address"
        }
      ],
      "stateMutability": "view",
      "type": "function"
    },
    {
      "inputs": [
        {
          "internalType": "address",
          "name": "destination",
          "type": "address"
        },
        {
          "internalType": "uint256",
          "name": "value",
          "type": "uint256"
        }
      ],
      "name": "submitTransaction",
      "outputs": [
        {
          "internalType": "uint256",
          "name": "trxId",
          "type": "uint256"
        }
      ],
      "stateMutability": "nonpayable",
      "type": "function"
    },
    {
      "inputs": [],
      "name": "transactionCount",
      "outputs": [
        {
          "internalType": "uint256",
          "name": "",
          "type": "uint256"
        }
      ],
      "stateMutability": "view",
      "type": "function"
    },
    {
      "inputs": [
        {
          "internalType": "uint256",
          "name": "",
          "type": "uint256"
        }
      ],
      "name": "transactions",
      "outputs": [
        {
          "internalType": "address",
          "name": "destination",
          "type": "address"
        },
        {
          "internalType": "uint256",
          "name": "value",
          "type": "uint256"
        },
        {
          "internalType": "bool",
          "name": "executed",
          "type": "bool"
        }
      ],
      "stateMutability": "view",
      "type": "function"
    },
    {
      "stateMutability": "payable",
      "type": "receive"
    }
  ],
  "bytecode": "0x608060405260006002553480156200001657600080fd5b50604051620019e6380380620019e683398181016040528101906200003c91906200040f565b600082511162000083576040517f08c379a00000000000000000000000000000000000000000000000000000000081526004016200007a90620004fc565b60405180910390fd5b60018111620000c9576040517f08c379a0000000000000000000000000000000000000000000000000000000008152600401620000c09062000594565b60405180910390fd5b815181111562000110576040517f08c379a0000000000000000000000000000000000000000000000000000000008152600401620001079062000652565b60405180910390fd5b81600090805190602001906200012892919062000138565b5080600181905550505062000674565b828054828255906000526020600020908101928215620001b4579160200282015b82811115620001b35782518260006101000a81548173ffffffffffffffffffffffffffffffffffffffff021916908373ffffffffffffffffffffffffffffffffffffffff1602179055509160200191906001019062000159565b5b509050620001c39190620001c7565b5090565b5b80821115620001e2576000816000905550600101620001c8565b5090565b6000604051905090565b600080fd5b600080fd5b600080fd5b6000601f19601f8301169050919050565b7f4e487b7100000000000000000000000000000000000000000000000000000000600052604160045260246000fd5b6200024a82620001ff565b810181811067ffffffffffffffff821117156200026c576200026b62000210565b5b80604052505050565b600062000281620001e6565b90506200028f82826200023f565b919050565b600067ffffffffffffffff821115620002b257620002b162000210565b5b602082029050602081019050919050565b600080fd5b600073ffffffffffffffffffffffffffffffffffffffff82169050919050565b6000620002f582620002c8565b9050919050565b6200030781620002e8565b81146200031357600080fd5b50565b6000815190506200032781620002fc565b92915050565b6000620003446200033e8462000294565b62000275565b905080838252602082019050602084028301858111156200036a5762000369620002c3565b5b835b8181101562000397578062000382888262000316565b8452602084019350506020810190506200036c565b5050509392505050565b600082601f830112620003b957620003b8620001fa565b5b8151620003cb8482602086016200032d565b91505092915050565b6000819050919050565b620003e981620003d4565b8114620003f557600080fd5b50565b6000815190506200040981620003de565b92915050565b60008060408385031215620004295762000428620001f0565b5b600083015167ffffffffffffffff8111156200044a5762000449620001f5565b5b6200045885828601620003a1565b92505060206200046b85828601620003f8565b9150509250929050565b600082825260208201905092915050565b7f4174206c65617374206f6e65206f776e65722068617320746f2062652073706560008201527f6369666965642100000000000000000000000000000000000000000000000000602082015250565b6000620004e460278362000475565b9150620004f18262000486565b604082019050919050565b600060208201905081810360008301526200051781620004d5565b9050919050565b7f4e6f2e206f66207369676e74757265732072657175697265642073686f756c6460008201527f206265206174206c656173742032000000000000000000000000000000000000602082015250565b60006200057c602e8362000475565b915062000589826200051e565b604082019050919050565b60006020820190508181036000830152620005af816200056d565b9050919050565b7f4e6f2e206f66207369676e6174757265732072657175697265642073686f756c60008201527f64206e6f74206265206d6f7265207468616e20746865206e6f2e206f66204f7760208201527f6e65727321000000000000000000000000000000000000000000000000000000604082015250565b60006200063a60458362000475565b91506200064782620005b6565b606082019050919050565b600060208201905081810360008301526200066d816200062b565b9050919050565b61136280620006846000396000f3fe6080604052600436106100955760003560e01c80639ace38c2116100595780639ace38c214610225578063b77bf60014610264578063bce800e51461028f578063c01a8c84146102cc578063c35e5e9b1461030957610101565b8063025e7c271461010657806318f1c1e1146101435780631d43b6531461016e5780633411c81c146101ab578063784547a7146101e857610101565b36610101573073ffffffffffffffffffffffffffffffffffffffff163373ffffffffffffffffffffffffffffffffffffffff167fddf252ad1be2c89b69c2b068fc378daa952ba7f163c4a11628f55a4df523b3ef346040516100f79190610c1d565b60405180910390a3005b600080fd5b34801561011257600080fd5b5061012d60048036038101906101289190610c69565b610346565b60405161013a9190610cd7565b60405180910390f35b34801561014f57600080fd5b50610158610385565b6040516101659190610c1d565b60405180910390f35b34801561017a57600080fd5b5061019560048036038101906101909190610d1e565b61038b565b6040516101a29190610c1d565b60405180910390f35b3480156101b757600080fd5b506101d260048036038101906101cd9190610d5e565b610483565b6040516101df9190610db9565b60405180910390f35b3480156101f457600080fd5b5061020f600480360381019061020a9190610c69565b6104b2565b60405161021c9190610db9565b60405180910390f35b34801561023157600080fd5b5061024c60048036038101906102479190610c69565b6104cf565b60405161025b93929190610dd4565b60405180910390f35b34801561027057600080fd5b50610279610526565b6040516102869190610c1d565b60405180910390f35b34801561029b57600080fd5b506102b660048036038101906102b19190610c69565b61052c565b6040516102c39190610c1d565b60405180910390f35b3480156102d857600080fd5b506102f360048036038101906102ee9190610c69565b610549565b6040516103009190610c1d565b60405180910390f35b34801561031557600080fd5b50610330600480360381019061032b9190610d5e565b6107e0565b60405161033d9190610db9565b60405180910390f35b6000818154811061035657600080fd5b906000526020600020016000915054906101000a900473ffffffffffffffffffffffffffffffffffffffff1681565b60015481565b60008060005b60008054905081101561042757600081815481106103b2576103b1610e0b565b5b9060005260206000200160009054906101000a900473ffffffffffffffffffffffffffffffffffffffff1673ffffffffffffffffffffffffffffffffffffffff163373ffffffffffffffffffffffffffffffffffffffff160361041457600191505b808061041f90610e69565b915050610391565b5080610468576040517f08c379a000000000000000000000000000000000000000000000000000000000815260040161045f90610f0e565b60405180910390fd5b61047a610475858561080f565b610549565b91505092915050565b60036020528160005260406000206020528060005260406000206000915091509054906101000a900460ff1681565b60006001546104c08361052c565b106104ca57600190505b919050565b60046020528060005260406000206000915090508060000160009054906101000a900473ffffffffffffffffffffffffffffffffffffffff16908060010154908060020160009054906101000a900460ff16905083565b60025481565b600060056000838152602001908152602001600020549050919050565b60008060005b6000805490508110156105e557600081815481106105705761056f610e0b565b5b9060005260206000200160009054906101000a900473ffffffffffffffffffffffffffffffffffffffff1673ffffffffffffffffffffffffffffffffffffffff163373ffffffffffffffffffffffffffffffffffffffff16036105d257600191505b80806105dd90610e69565b91505061054f565b5080610626576040517f08c379a000000000000000000000000000000000000000000000000000000000815260040161061d90610f0e565b60405180910390fd5b6006600084815260200190815260200160002060003373ffffffffffffffffffffffffffffffffffffffff1673ffffffffffffffffffffffffffffffffffffffff16815260200190815260200160002060009054906101000a900460ff16156106c4576040517f08c379a00000000000000000000000000000000000000000000000000000000081526004016106bb90610fa0565b60405180910390fd5b60016006600085815260200190815260200160002060003373ffffffffffffffffffffffffffffffffffffffff1673ffffffffffffffffffffffffffffffffffffffff16815260200190815260200160002060006101000a81548160ff02191690831515021790555060016003600085815260200190815260200160002060003373ffffffffffffffffffffffffffffffffffffffff1673ffffffffffffffffffffffffffffffffffffffff16815260200190815260200160002060006101000a81548160ff0219169083151502179055506005600084815260200190815260200160002060008154809291906107ba90610e69565b91905055506107c8836104b2565b156107d7576107d6836108ef565b5b82915050919050565b60066020528160005260406000206020528060005260406000206000915091509054906101000a900460ff1681565b6000600254905060405180606001604052808473ffffffffffffffffffffffffffffffffffffffff168152602001838152602001600015158152506004600083815260200190815260200160002060008201518160000160006101000a81548173ffffffffffffffffffffffffffffffffffffffff021916908373ffffffffffffffffffffffffffffffffffffffff1602179055506020820151816001015560408201518160020160006101000a81548160ff021916908315150217905550905050600260008154809291906108e490610e69565b919050555092915050565b6108f8816104b2565b610937576040517f08c379a000000000000000000000000000000000000000000000000000000000815260040161092e90611032565b60405180910390fd5b60006004600083815260200190815260200160002060000160009054906101000a900473ffffffffffffffffffffffffffffffffffffffff169050600073ffffffffffffffffffffffffffffffffffffffff168173ffffffffffffffffffffffffffffffffffffffff16036109e1576040517f08c379a00000000000000000000000000000000000000000000000000000000081526004016109d8906110c4565b60405180910390fd5b6004600083815260200190815260200160002060010154471015610a3a576040517f08c379a0000000000000000000000000000000000000000000000000000000008152600401610a319061117c565b60405180910390fd5b6000600460008481526020019081526020016000206001015403610a93576040517f08c379a0000000000000000000000000000000000000000000000000000000008152600401610a8a9061120e565b60405180910390fd5b60008173ffffffffffffffffffffffffffffffffffffffff166004600085815260200190815260200160002060010154604051610acf9061125f565b60006040518083038185875af1925050503d8060008114610b0c576040519150601f19603f3d011682016040523d82523d6000602084013e610b11565b606091505b5050905080610b55576040517f08c379a0000000000000000000000000000000000000000000000000000000008152600401610b4c9061130c565b60405180910390fd5b60016004600085815260200190815260200160002060020160006101000a81548160ff0219169083151502179055508173ffffffffffffffffffffffffffffffffffffffff163073ffffffffffffffffffffffffffffffffffffffff167fddf252ad1be2c89b69c2b068fc378daa952ba7f163c4a11628f55a4df523b3ef6004600087815260200190815260200160002060010154604051610bf79190610c1d565b60405180910390a3505050565b6000819050919050565b610c1781610c04565b82525050565b6000602082019050610c326000830184610c0e565b92915050565b600080fd5b610c4681610c04565b8114610c5157600080fd5b50565b600081359050610c6381610c3d565b92915050565b600060208284031215610c7f57610c7e610c38565b5b6000610c8d84828501610c54565b91505092915050565b600073ffffffffffffffffffffffffffffffffffffffff82169050919050565b6000610cc182610c96565b9050919050565b610cd181610cb6565b82525050565b6000602082019050610cec6000830184610cc8565b92915050565b610cfb81610cb6565b8114610d0657600080fd5b50565b600081359050610d1881610cf2565b92915050565b60008060408385031215610d3557610d34610c38565b5b6000610d4385828601610d09565b9250506020610d5485828601610c54565b9150509250929050565b60008060408385031215610d7557610d74610c38565b5b6000610d8385828601610c54565b9250506020610d9485828601610d09565b9150509250929050565b60008115159050919050565b610db381610d9e565b82525050565b6000602082019050610dce6000830184610daa565b92915050565b6000606082019050610de96000830186610cc8565b610df66020830185610c0e565b610e036040830184610daa565b949350505050565b7f4e487b7100000000000000000000000000000000000000000000000000000000600052603260045260246000fd5b7f4e487b7100000000000000000000000000000000000000000000000000000000600052601160045260246000fd5b6000610e7482610c04565b91507fffffffffffffffffffffffffffffffffffffffffffffffffffffffffffffffff8203610ea657610ea5610e3a565b5b600182019050919050565b600082825260208201905092915050565b7f596f7520617265206e6f7420616e20617574686f7269736564204f776e657221600082015250565b6000610ef8602083610eb1565b9150610f0382610ec2565b602082019050919050565b60006020820190508181036000830152610f2781610eeb565b9050919050565b7f596f7520617265206e6f7420616c6c6f77656420746f20646f75626c6520636f60008201527f6e6669726d207468652073616d65207472616e73616374696f6e210000000000602082015250565b6000610f8a603b83610eb1565b9150610f9582610f2e565b604082019050919050565b60006020820190508181036000830152610fb981610f7d565b9050919050565b7f5472616e73616374696f6e206973206e6f7420636f6e6669726d65642079657460008201527f2100000000000000000000000000000000000000000000000000000000000000602082015250565b600061101c602183610eb1565b915061102782610fc0565b604082019050919050565b6000602082019050818103600083015261104b8161100f565b9050919050565b7f64657374696e6174696f6e20616464726573732068617320746f206265206e6f60008201527f6e2d7a65726f2100000000000000000000000000000000000000000000000000602082015250565b60006110ae602783610eb1565b91506110b982611052565b604082019050919050565b600060208201905081810360008301526110dd816110a1565b9050919050565b7f496e73756666696369656e742066756e647320696e207468652077616c6c657460008201527f20746f207472616e736665722074686520726571756972656420616d6f756e7460208201527f2100000000000000000000000000000000000000000000000000000000000000604082015250565b6000611166604183610eb1565b9150611171826110e4565b606082019050919050565b6000602082019050818103600083015261119581611159565b9050919050565b7f616d6f756e7420746f207472616e736665722068617320746f206265206e6f6e60008201527f2d7a65726f210000000000000000000000000000000000000000000000000000602082015250565b60006111f8602683610eb1565b91506112038261119c565b604082019050919050565b60006020820190508181036000830152611227816111eb565b9050919050565b600081905092915050565b50565b600061124960008361122e565b915061125482611239565b600082019050919050565b600061126a8261123c565b9150819050919050565b7f4661696c656420746f2065786563757465207472616e73616374696f6e20647560008201527f6520746f20696e76616c6964207472616e736665722064657461696c732f696e60208201527f73756666696369656e742066756e647320696e207468652077616c6c65742100604082015250565b60006112f6605f83610eb1565b915061130182611274565b606082019050919050565b60006020820190508181036000830152611325816112e9565b905091905056fea26469706673582212207eb451e734deb21d88196e9f7d335d51f880a548c64c98dd66ff5d0f9b33902264736f6c63430008110033",
  "linkReferences": {},
  "deployedLinkReferences": {}
}