{
  "_format": "hh-sol-artifact-1",
  "contractName": "MultiSig",
  "sourceName": "contracts/MultiSig.sol",
  "abi": [
    {
      "inputs": [
        {
          "internalType": "address[]",
          "name": "_owners",
          "type": "address[]"
        },
        {
          "internalType": "uint256",
          "name": "_noOfconfirmations",
          "type": "uint256"
        }
      ],
      "stateMutability": "nonpayable",
      "type": "constructor"
    },
    {
      "anonymous": false,
      "inputs": [
        {
          "indexed": false,
          "internalType": "address",
          "name": "from",
          "type": "address"
        },
        {
          "indexed": false,
          "internalType": "address",
          "name": "to",
          "type": "address"
        },
        {
          "indexed": false,
          "internalType": "uint256",
          "name": "value",
          "type": "uint256"
        }
      ],
      "name": "Transfer",
      "type": "event"
    },
    {
      "inputs": [
        {
          "internalType": "uint256",
          "name": "trxId",
          "type": "uint256"
        }
      ],
      "name": "confirmTransaction",
      "outputs": [],
      "stateMutability": "nonpayable",
      "type": "function"
    },
    {
      "inputs": [
        {
          "internalType": "uint256",
          "name": "",
          "type": "uint256"
        },
        {
          "internalType": "address",
          "name": "",
          "type": "address"
        }
      ],
      "name": "confirmations",
      "outputs": [
        {
          "internalType": "bool",
          "name": "",
          "type": "bool"
        }
      ],
      "stateMutability": "view",
      "type": "function"
    },
    {
      "inputs": [
        {
          "internalType": "uint256",
          "name": "trxId",
          "type": "uint256"
        }
      ],
      "name": "getConfirmationsCount",
      "outputs": [
        {
          "internalType": "uint256",
          "name": "",
          "type": "uint256"
        }
      ],
      "stateMutability": "view",
      "type": "function"
    },
    {
      "inputs": [
        {
          "internalType": "uint256",
          "name": "trxId",
          "type": "uint256"
        }
      ],
      "name": "isConfirmed",
      "outputs": [
        {
          "internalType": "bool",
          "name": "_isConfirmed",
          "type": "bool"
        }
      ],
      "stateMutability": "view",
      "type": "function"
    },
    {
      "inputs": [
        {
          "internalType": "address",
          "name": "",
          "type": "address"
        }
      ],
      "name": "isOwnerSigned",
      "outputs": [
        {
          "internalType": "bool",
          "name": "",
          "type": "bool"
        }
      ],
      "stateMutability": "view",
      "type": "function"
    },
    {
      "inputs": [],
      "name": "noOfConfirmations",
      "outputs": [
        {
          "internalType": "uint256",
          "name": "",
          "type": "uint256"
        }
      ],
      "stateMutability": "view",
      "type": "function"
    },
    {
      "inputs": [
        {
          "internalType": "uint256",
          "name": "",
          "type": "uint256"
        }
      ],
      "name": "owners",
      "outputs": [
        {
          "internalType": "address",
          "name": "",
          "type": "address"
        }
      ],
      "stateMutability": "view",
      "type": "function"
    },
    {
      "inputs": [
        {
          "internalType": "address",
          "name": "destination",
          "type": "address"
        },
        {
          "internalType": "uint256",
          "name": "value",
          "type": "uint256"
        }
      ],
      "name": "submitTransaction",
      "outputs": [],
      "stateMutability": "nonpayable",
      "type": "function"
    },
    {
      "inputs": [],
      "name": "transactionCount",
      "outputs": [
        {
          "internalType": "uint256",
          "name": "",
          "type": "uint256"
        }
      ],
      "stateMutability": "view",
      "type": "function"
    },
    {
      "inputs": [
        {
          "internalType": "uint256",
          "name": "",
          "type": "uint256"
        }
      ],
      "name": "transactions",
      "outputs": [
        {
          "internalType": "address",
          "name": "destination",
          "type": "address"
        },
        {
          "internalType": "uint256",
          "name": "value",
          "type": "uint256"
        },
        {
          "internalType": "bool",
          "name": "executed",
          "type": "bool"
        }
      ],
      "stateMutability": "view",
      "type": "function"
    },
    {
      "stateMutability": "payable",
      "type": "receive"
    }
  ],
  "bytecode": "0x60806040523480156200001157600080fd5b50604051620019933803806200199383398181016040528101906200003791906200040a565b60008251116200007e576040517f08c379a00000000000000000000000000000000000000000000000000000000081526004016200007590620004f7565b60405180910390fd5b60008111620000c4576040517f08c379a0000000000000000000000000000000000000000000000000000000008152600401620000bb906200058f565b60405180910390fd5b81518111156200010b576040517f08c379a000000000000000000000000000000000000000000000000000000000815260040162000102906200064d565b60405180910390fd5b81600090805190602001906200012392919062000133565b508060018190555050506200066f565b828054828255906000526020600020908101928215620001af579160200282015b82811115620001ae5782518260006101000a81548173ffffffffffffffffffffffffffffffffffffffff021916908373ffffffffffffffffffffffffffffffffffffffff1602179055509160200191906001019062000154565b5b509050620001be9190620001c2565b5090565b5b80821115620001dd576000816000905550600101620001c3565b5090565b6000604051905090565b600080fd5b600080fd5b600080fd5b6000601f19601f8301169050919050565b7f4e487b7100000000000000000000000000000000000000000000000000000000600052604160045260246000fd5b6200024582620001fa565b810181811067ffffffffffffffff821117156200026757620002666200020b565b5b80604052505050565b60006200027c620001e1565b90506200028a82826200023a565b919050565b600067ffffffffffffffff821115620002ad57620002ac6200020b565b5b602082029050602081019050919050565b600080fd5b600073ffffffffffffffffffffffffffffffffffffffff82169050919050565b6000620002f082620002c3565b9050919050565b6200030281620002e3565b81146200030e57600080fd5b50565b6000815190506200032281620002f7565b92915050565b60006200033f62000339846200028f565b62000270565b90508083825260208201905060208402830185811115620003655762000364620002be565b5b835b818110156200039257806200037d888262000311565b84526020840193505060208101905062000367565b5050509392505050565b600082601f830112620003b457620003b3620001f5565b5b8151620003c684826020860162000328565b91505092915050565b6000819050919050565b620003e481620003cf565b8114620003f057600080fd5b50565b6000815190506200040481620003d9565b92915050565b60008060408385031215620004245762000423620001eb565b5b600083015167ffffffffffffffff811115620004455762000444620001f0565b5b62000453858286016200039c565b92505060206200046685828601620003f3565b9150509250929050565b600082825260208201905092915050565b7f4174206c65617374206f6e65206f776e65722068617320746f2062652073706560008201527f6369666965642100000000000000000000000000000000000000000000000000602082015250565b6000620004df60278362000470565b9150620004ec8262000481565b604082019050919050565b600060208201905081810360008301526200051281620004d0565b9050919050565b7f4e6f2e206f66207369676e74757265732072657175697265642073686f756c6460008201527f206265206e6f6e2d7a65726f0000000000000000000000000000000000000000602082015250565b600062000577602c8362000470565b9150620005848262000519565b604082019050919050565b60006020820190508181036000830152620005aa8162000568565b9050919050565b7f4e6f2e206f66207369676e6174757265732072657175697265642073686f756c60008201527f64206e6f74206265206d6f7265207468616e20746865206e6f2e206f66204f7760208201527f6e65727321000000000000000000000000000000000000000000000000000000604082015250565b60006200063560458362000470565b91506200064282620005b1565b606082019050919050565b60006020820190508181036000830152620006688162000626565b9050919050565b611314806200067f6000396000f3fe6080604052600436106100955760003560e01c80637baef2f5116100595780637baef2f5146101f95780639ace38c214610224578063b77bf60014610263578063bce800e51461028e578063c01a8c84146102cb576100d7565b8063025e7c27146100dc57806309b95b7c146101195780631d43b653146101565780633411c81c1461017f578063784547a7146101bc576100d7565b366100d7577fddf252ad1be2c89b69c2b068fc378daa952ba7f163c4a11628f55a4df523b3ef3330346040516100cd93929190610bac565b60405180910390a1005b600080fd5b3480156100e857600080fd5b5061010360048036038101906100fe9190610c14565b6102f4565b6040516101109190610c41565b60405180910390f35b34801561012557600080fd5b50610140600480360381019061013b9190610c88565b610333565b60405161014d9190610cd0565b60405180910390f35b34801561016257600080fd5b5061017d60048036038101906101789190610ceb565b610353565b005b34801561018b57600080fd5b506101a660048036038101906101a19190610d2b565b610449565b6040516101b39190610cd0565b60405180910390f35b3480156101c857600080fd5b506101e360048036038101906101de9190610c14565b610478565b6040516101f09190610cd0565b60405180910390f35b34801561020557600080fd5b5061020e610495565b60405161021b9190610d6b565b60405180910390f35b34801561023057600080fd5b5061024b60048036038101906102469190610c14565b61049b565b60405161025a93929190610d86565b60405180910390f35b34801561026f57600080fd5b506102786104f2565b6040516102859190610d6b565b60405180910390f35b34801561029a57600080fd5b506102b560048036038101906102b09190610c14565b6104f8565b6040516102c29190610d6b565b60405180910390f35b3480156102d757600080fd5b506102f260048036038101906102ed9190610c14565b610515565b005b6000818154811061030457600080fd5b906000526020600020016000915054906101000a900473ffffffffffffffffffffffffffffffffffffffff1681565b60066020528060005260406000206000915054906101000a900460ff1681565b600080600090505b6000805490508110156103f1576000818154811061037c5761037b610dbd565b5b9060005260206000200160009054906101000a900473ffffffffffffffffffffffffffffffffffffffff1673ffffffffffffffffffffffffffffffffffffffff163373ffffffffffffffffffffffffffffffffffffffff16036103de57600191505b80806103e990610e1b565b91505061035b565b5080610432576040517f08c379a000000000000000000000000000000000000000000000000000000000815260040161042990610ec0565b60405180910390fd5b61044461043f8484610787565b610515565b505050565b60036020528160005260406000206020528060005260406000206000915091509054906101000a900460ff1681565b6000600154610486836104f8565b1061049057600190505b919050565b60015481565b60046020528060005260406000206000915090508060000160009054906101000a900473ffffffffffffffffffffffffffffffffffffffff16908060010154908060020160009054906101000a900460ff16905083565b60025481565b600060056000838152602001908152602001600020549050919050565b600080600090505b6000805490508110156105b3576000818154811061053e5761053d610dbd565b5b9060005260206000200160009054906101000a900473ffffffffffffffffffffffffffffffffffffffff1673ffffffffffffffffffffffffffffffffffffffff163373ffffffffffffffffffffffffffffffffffffffff16036105a057600191505b80806105ab90610e1b565b91505061051d565b50806105f4576040517f08c379a00000000000000000000000000000000000000000000000000000000081526004016105eb90610ec0565b60405180910390fd5b600660003373ffffffffffffffffffffffffffffffffffffffff1673ffffffffffffffffffffffffffffffffffffffff16815260200190815260200160002060009054906101000a900460ff1615610681576040517f08c379a000000000000000000000000000000000000000000000000000000000815260040161067890610f52565b60405180910390fd5b6001600660003373ffffffffffffffffffffffffffffffffffffffff1673ffffffffffffffffffffffffffffffffffffffff16815260200190815260200160002060006101000a81548160ff02191690831515021790555060016003600084815260200190815260200160002060003373ffffffffffffffffffffffffffffffffffffffff1673ffffffffffffffffffffffffffffffffffffffff16815260200190815260200160002060006101000a81548160ff02191690831515021790555060056000838152602001908152602001600020600081548092919061076690610e1b565b919050555061077482610478565b156107835761078282610867565b5b5050565b6000600254905060405180606001604052808473ffffffffffffffffffffffffffffffffffffffff168152602001838152602001600015158152506004600083815260200190815260200160002060008201518160000160006101000a81548173ffffffffffffffffffffffffffffffffffffffff021916908373ffffffffffffffffffffffffffffffffffffffff1602179055506020820151816001015560408201518160020160006101000a81548160ff0219169083151502179055509050506002600081548092919061085c90610e1b565b919050555092915050565b61087081610478565b6108af576040517f08c379a00000000000000000000000000000000000000000000000000000000081526004016108a690610fe4565b60405180910390fd5b60006004600083815260200190815260200160002060000160009054906101000a900473ffffffffffffffffffffffffffffffffffffffff169050600073ffffffffffffffffffffffffffffffffffffffff168173ffffffffffffffffffffffffffffffffffffffff1603610959576040517f08c379a000000000000000000000000000000000000000000000000000000000815260040161095090611076565b60405180910390fd5b60046000838152602001908152602001600020600101544710156109b2576040517f08c379a00000000000000000000000000000000000000000000000000000000081526004016109a99061112e565b60405180910390fd5b6000600460008481526020019081526020016000206001015403610a0b576040517f08c379a0000000000000000000000000000000000000000000000000000000008152600401610a02906111c0565b60405180910390fd5b60008173ffffffffffffffffffffffffffffffffffffffff166004600085815260200190815260200160002060010154604051610a4790611211565b60006040518083038185875af1925050503d8060008114610a84576040519150601f19603f3d011682016040523d82523d6000602084013e610a89565b606091505b5050905080610acd576040517f08c379a0000000000000000000000000000000000000000000000000000000008152600401610ac4906112be565b60405180910390fd5b60016004600085815260200190815260200160002060020160006101000a81548160ff0219169083151502179055507fddf252ad1be2c89b69c2b068fc378daa952ba7f163c4a11628f55a4df523b3ef30836004600087815260200190815260200160002060010154604051610b4593929190610bac565b60405180910390a1505050565b600073ffffffffffffffffffffffffffffffffffffffff82169050919050565b6000610b7d82610b52565b9050919050565b610b8d81610b72565b82525050565b6000819050919050565b610ba681610b93565b82525050565b6000606082019050610bc16000830186610b84565b610bce6020830185610b84565b610bdb6040830184610b9d565b949350505050565b600080fd5b610bf181610b93565b8114610bfc57600080fd5b50565b600081359050610c0e81610be8565b92915050565b600060208284031215610c2a57610c29610be3565b5b6000610c3884828501610bff565b91505092915050565b6000602082019050610c566000830184610b84565b92915050565b610c6581610b72565b8114610c7057600080fd5b50565b600081359050610c8281610c5c565b92915050565b600060208284031215610c9e57610c9d610be3565b5b6000610cac84828501610c73565b91505092915050565b60008115159050919050565b610cca81610cb5565b82525050565b6000602082019050610ce56000830184610cc1565b92915050565b60008060408385031215610d0257610d01610be3565b5b6000610d1085828601610c73565b9250506020610d2185828601610bff565b9150509250929050565b60008060408385031215610d4257610d41610be3565b5b6000610d5085828601610bff565b9250506020610d6185828601610c73565b9150509250929050565b6000602082019050610d806000830184610b9d565b92915050565b6000606082019050610d9b6000830186610b84565b610da86020830185610b9d565b610db56040830184610cc1565b949350505050565b7f4e487b7100000000000000000000000000000000000000000000000000000000600052603260045260246000fd5b7f4e487b7100000000000000000000000000000000000000000000000000000000600052601160045260246000fd5b6000610e2682610b93565b91507fffffffffffffffffffffffffffffffffffffffffffffffffffffffffffffffff8203610e5857610e57610dec565b5b600182019050919050565b600082825260208201905092915050565b7f596f7520617265206e6f7420616e20617574686f7269736564204f776e657221600082015250565b6000610eaa602083610e63565b9150610eb582610e74565b602082019050919050565b60006020820190508181036000830152610ed981610e9d565b9050919050565b7f596f7520617265206e6f7420616c6c6f77656420746f20646f75626c6520636f60008201527f6e6669726d2061207472616e73616374696f6e21000000000000000000000000602082015250565b6000610f3c603483610e63565b9150610f4782610ee0565b604082019050919050565b60006020820190508181036000830152610f6b81610f2f565b9050919050565b7f5472616e73616374696f6e206973206e6f7420636f6e6669726d65642079657460008201527f2100000000000000000000000000000000000000000000000000000000000000602082015250565b6000610fce602183610e63565b9150610fd982610f72565b604082019050919050565b60006020820190508181036000830152610ffd81610fc1565b9050919050565b7f64657374696e6174696f6e20616464726573732068617320746f206265206e6f60008201527f6e2d7a65726f2100000000000000000000000000000000000000000000000000602082015250565b6000611060602783610e63565b915061106b82611004565b604082019050919050565b6000602082019050818103600083015261108f81611053565b9050919050565b7f496e73756666696369656e742066756e647320696e207468652077616c6c657460008201527f20746f207472616e736665722074686520726571756972656420616d6f756e7460208201527f2100000000000000000000000000000000000000000000000000000000000000604082015250565b6000611118604183610e63565b915061112382611096565b606082019050919050565b600060208201905081810360008301526111478161110b565b9050919050565b7f616d6f756e7420746f207472616e736665722068617320746f206265206e6f6e60008201527f2d7a65726f210000000000000000000000000000000000000000000000000000602082015250565b60006111aa602683610e63565b91506111b58261114e565b604082019050919050565b600060208201905081810360008301526111d98161119d565b9050919050565b600081905092915050565b50565b60006111fb6000836111e0565b9150611206826111eb565b600082019050919050565b600061121c826111ee565b9150819050919050565b7f4661696c656420746f2065786563757465207472616e73616374696f6e20647560008201527f6520746f20696e76616c6964207472616e736665722064657461696c732f696e60208201527f73756666696369656e742066756e647320696e207468652077616c6c65742100604082015250565b60006112a8605f83610e63565b91506112b382611226565b606082019050919050565b600060208201905081810360008301526112d78161129b565b905091905056fea2646970667358221220ecef5fb719579b1ae62382ec14f319f0b36aab5a5e32f67b7663083cea03c2c164736f6c63430008110033",
  "linkReferences": {},
  "deployedLinkReferences": {}
}